{
  "contractName": "RequestManager",
  "abi": [
    {
      "inputs": [
        {
          "internalType": "contract ChiralToken",
          "name": "newtoken",
          "type": "address"
        },
        {
          "internalType": "address",
          "name": "_forwarder",
          "type": "address"
        }
      ],
      "stateMutability": "nonpayable",
      "type": "constructor"
    },
    {
      "anonymous": false,
      "inputs": [
        {
          "indexed": true,
          "internalType": "uint32",
          "name": "index",
          "type": "uint32"
        },
        {
          "indexed": true,
          "internalType": "address",
          "name": "courierAddress",
          "type": "address"
        },
        {
          "indexed": false,
          "internalType": "uint8",
          "name": "step",
          "type": "uint8"
        }
      ],
      "name": "Accepted",
      "type": "event"
    },
    {
      "anonymous": false,
      "inputs": [
        {
          "indexed": true,
          "internalType": "uint32",
          "name": "index",
          "type": "uint32"
        },
        {
          "indexed": false,
          "internalType": "string",
          "name": "identifier",
          "type": "string"
        },
        {
          "indexed": true,
          "internalType": "address",
          "name": "pickupAddress",
          "type": "address"
        },
        {
          "indexed": false,
          "internalType": "uint256",
          "name": "value",
          "type": "uint256"
        },
        {
          "indexed": false,
          "internalType": "uint256",
          "name": "fees",
          "type": "uint256"
        },
        {
          "indexed": false,
          "internalType": "uint8",
          "name": "weight",
          "type": "uint8"
        },
        {
          "components": [
            {
              "internalType": "uint64",
              "name": "pickup_lat",
              "type": "uint64"
            },
            {
              "internalType": "uint64",
              "name": "pickup_lng",
              "type": "uint64"
            },
            {
              "internalType": "uint8",
              "name": "pickup_floor",
              "type": "uint8"
            },
            {
              "internalType": "uint16",
              "name": "pickup_unit",
              "type": "uint16"
            }
          ],
          "indexed": false,
          "internalType": "struct RequestManager.S_pickup",
          "name": "pickup",
          "type": "tuple"
        },
        {
          "components": [
            {
              "internalType": "uint64",
              "name": "destination_lat",
              "type": "uint64"
            },
            {
              "internalType": "uint64",
              "name": "destination_lng",
              "type": "uint64"
            },
            {
              "internalType": "uint8",
              "name": "destination_floor",
              "type": "uint8"
            },
            {
              "internalType": "uint16",
              "name": "destination_unit",
              "type": "uint16"
            }
          ],
          "indexed": false,
          "internalType": "struct RequestManager.S_destination",
          "name": "destination",
          "type": "tuple"
        },
        {
          "indexed": false,
          "internalType": "uint8",
          "name": "step",
          "type": "uint8"
        }
      ],
      "name": "Created",
      "type": "event"
    },
    {
      "anonymous": false,
      "inputs": [
        {
          "indexed": true,
          "internalType": "uint32",
          "name": "index",
          "type": "uint32"
        },
        {
          "indexed": false,
          "internalType": "uint8",
          "name": "step",
          "type": "uint8"
        }
      ],
      "name": "Step",
      "type": "event"
    },
    {
      "anonymous": false,
      "inputs": [
        {
          "indexed": true,
          "internalType": "uint32",
          "name": "index",
          "type": "uint32"
        },
        {
          "indexed": true,
          "internalType": "address",
          "name": "winner",
          "type": "address"
        },
        {
          "indexed": true,
          "internalType": "address",
          "name": "loser",
          "type": "address"
        }
      ],
      "name": "Verdict",
      "type": "event"
    },
    {
      "inputs": [
        {
          "internalType": "address",
          "name": "forwarder",
          "type": "address"
        }
      ],
      "name": "isTrustedForwarder",
      "outputs": [
        {
          "internalType": "bool",
          "name": "",
          "type": "bool"
        }
      ],
      "stateMutability": "view",
      "type": "function",
      "constant": true
    },
    {
      "inputs": [
        {
          "internalType": "uint32",
          "name": "",
          "type": "uint32"
        }
      ],
      "name": "requests",
      "outputs": [
        {
          "internalType": "contract Request",
          "name": "",
          "type": "address"
        }
      ],
      "stateMutability": "view",
      "type": "function",
      "constant": true
    },
    {
      "inputs": [
        {
          "internalType": "string",
          "name": "identifier",
          "type": "string"
        },
        {
          "components": [
            {
              "internalType": "uint64",
              "name": "pickup_lat",
              "type": "uint64"
            },
            {
              "internalType": "uint64",
              "name": "pickup_lng",
              "type": "uint64"
            },
            {
              "internalType": "uint8",
              "name": "pickup_floor",
              "type": "uint8"
            },
            {
              "internalType": "uint16",
              "name": "pickup_unit",
              "type": "uint16"
            }
          ],
          "internalType": "struct RequestManager.S_pickup",
          "name": "pickup",
          "type": "tuple"
        },
        {
          "components": [
            {
              "internalType": "uint64",
              "name": "destination_lat",
              "type": "uint64"
            },
            {
              "internalType": "uint64",
              "name": "destination_lng",
              "type": "uint64"
            },
            {
              "internalType": "uint8",
              "name": "destination_floor",
              "type": "uint8"
            },
            {
              "internalType": "uint16",
              "name": "destination_unit",
              "type": "uint16"
            }
          ],
          "internalType": "struct RequestManager.S_destination",
          "name": "destination",
          "type": "tuple"
        },
        {
          "internalType": "uint256",
          "name": "value",
          "type": "uint256"
        },
        {
          "internalType": "uint256",
          "name": "fees",
          "type": "uint256"
        },
        {
          "internalType": "enum RequestManager.weights",
          "name": "weight",
          "type": "uint8"
        }
      ],
      "name": "createRequest",
      "outputs": [],
      "stateMutability": "nonpayable",
      "type": "function"
    },
    {
      "inputs": [
        {
          "internalType": "uint32",
          "name": "_index",
          "type": "uint32"
        }
      ],
      "name": "triggerAccepted",
      "outputs": [],
      "stateMutability": "nonpayable",
      "type": "function"
    },
    {
      "inputs": [
        {
          "internalType": "uint32",
          "name": "_index",
          "type": "uint32"
        }
      ],
      "name": "triggerDelivery",
      "outputs": [],
      "stateMutability": "nonpayable",
      "type": "function"
    },
    {
      "inputs": [
        {
          "internalType": "uint32",
          "name": "_index",
          "type": "uint32"
        }
      ],
      "name": "triggerReceive",
      "outputs": [],
      "stateMutability": "nonpayable",
      "type": "function"
    },
    {
      "inputs": [
        {
          "internalType": "uint32",
          "name": "_index",
          "type": "uint32"
        }
      ],
      "name": "triggerCancel",
      "outputs": [],
      "stateMutability": "nonpayable",
      "type": "function"
    },
    {
      "inputs": [
        {
          "internalType": "uint32",
          "name": "_index",
          "type": "uint32"
        }
      ],
      "name": "triggerReport",
      "outputs": [],
      "stateMutability": "nonpayable",
      "type": "function"
    },
    {
      "inputs": [
        {
          "internalType": "uint32",
          "name": "_index",
          "type": "uint32"
        }
      ],
      "name": "awardToSender",
      "outputs": [],
      "stateMutability": "nonpayable",
      "type": "function"
    },
    {
      "inputs": [
        {
          "internalType": "uint32",
          "name": "_index",
          "type": "uint32"
        }
      ],
      "name": "awardToCourier",
      "outputs": [],
      "stateMutability": "nonpayable",
      "type": "function"
    }
  ],
  "bytecode": "0x60806040523480156200001157600080fd5b5060405162005e6c38038062005e6c833981810160405281019062000037919062000171565b80806000806101000a81548173ffffffffffffffffffffffffffffffffffffffff021916908373ffffffffffffffffffffffffffffffffffffffff1602179055505081600160006101000a81548173ffffffffffffffffffffffffffffffffffffffff021916908373ffffffffffffffffffffffffffffffffffffffff1602179055505050620001b8565b600080fd5b600073ffffffffffffffffffffffffffffffffffffffff82169050919050565b6000620000f482620000c7565b9050919050565b60006200010882620000e7565b9050919050565b6200011a81620000fb565b81146200012657600080fd5b50565b6000815190506200013a816200010f565b92915050565b6200014b81620000e7565b81146200015757600080fd5b50565b6000815190506200016b8162000140565b92915050565b600080604083850312156200018b576200018a620000c2565b5b60006200019b8582860162000129565b9250506020620001ae858286016200015a565b9150509250929050565b615ca480620001c86000396000f3fe60806040523480156200001157600080fd5b5060043610620000ac5760003560e01c80635732fd3c116200006f5780635732fd3c146200017d5780637463f874146200019d578063a1a4628714620001bd578063ae01046d14620001dd578063fd3a5c3014620001fd57620000ac565b80630ab469b014620000b157806343e8d0fc14620000e75780634828207c146200010757806353139d441462000127578063572b6c051462000147575b600080fd5b620000cf6004803603810190620000c9919062003c33565b6200021d565b604051620000de919062003cf0565b60405180910390f35b620001056004803603810190620000ff919062003c33565b62000250565b005b6200012560048036038101906200011f919062003c33565b62000cfb565b005b6200014560048036038101906200013f919062003c33565b620010bc565b005b6200016560048036038101906200015f919062003d52565b6200176e565b60405162000174919062003da1565b60405180910390f35b6200019b600480360381019062000195919062003c33565b620017c7565b005b620001bb6004803603810190620001b5919062003c33565b6200205d565b005b620001db6004803603810190620001d5919062003c33565b62002b09565b005b620001fb6004803603810190620001f5919062003c33565b62003170565b005b6200021b600480360381019062000215919062004154565b620037d7565b005b60026020528060005260406000206000915054906101000a900473ffffffffffffffffffffffffffffffffffffffff1681565b600260008263ffffffff1663ffffffff16815260200190815260200160002060009054906101000a900473ffffffffffffffffffffffffffffffffffffffff1673ffffffffffffffffffffffffffffffffffffffff1663d16a53356040518163ffffffff1660e01b815260040160206040518083038186803b158015620002d657600080fd5b505afa158015620002eb573d6000803e3d6000fd5b505050506040513d601f19601f820116820180604052508101906200031191906200422a565b73ffffffffffffffffffffffffffffffffffffffff166200033162003b8f565b73ffffffffffffffffffffffffffffffffffffffff16141580156200044b5750600260008263ffffffff1663ffffffff16815260200190815260200160002060009054906101000a900473ffffffffffffffffffffffffffffffffffffffff1673ffffffffffffffffffffffffffffffffffffffff1663020c99c66040518163ffffffff1660e01b815260040160206040518083038186803b158015620003d757600080fd5b505afa158015620003ec573d6000803e3d6000fd5b505050506040513d601f19601f820116820180604052508101906200041291906200422a565b73ffffffffffffffffffffffffffffffffffffffff166200043262003b8f565b73ffffffffffffffffffffffffffffffffffffffff1614155b6200045557600080fd5b600a600260008363ffffffff1663ffffffff16815260200190815260200160002060009054906101000a900473ffffffffffffffffffffffffffffffffffffffff1673ffffffffffffffffffffffffffffffffffffffff16633fa4f2456040518163ffffffff1660e01b815260040160206040518083038186803b158015620004dd57600080fd5b505afa158015620004f2573d6000803e3d6000fd5b505050506040513d601f19601f8201168201806040525081019062000518919062004273565b620005249190620042d4565b600160009054906101000a900473ffffffffffffffffffffffffffffffffffffffff1673ffffffffffffffffffffffffffffffffffffffff166370a082316200056c62003b8f565b6040518263ffffffff1660e01b81526004016200058a919062004346565b60206040518083038186803b158015620005a357600080fd5b505afa158015620005b8573d6000803e3d6000fd5b505050506040513d601f19601f82011682018060405250810190620005de919062004273565b11620005e957600080fd5b600580811115620005ff57620005fe62004363565b5b600260008363ffffffff1663ffffffff16815260200190815260200160002060009054906101000a900473ffffffffffffffffffffffffffffffffffffffff1673ffffffffffffffffffffffffffffffffffffffff1663e25fe1756040518163ffffffff1660e01b815260040160206040518083038186803b1580156200068557600080fd5b505afa1580156200069a573d6000803e3d6000fd5b505050506040513d601f19601f82011682018060405250810190620006c09190620043ba565b6005811115620006d557620006d462004363565b5b14620006e057600080fd5b600160009054906101000a900473ffffffffffffffffffffffffffffffffffffffff1673ffffffffffffffffffffffffffffffffffffffff166323b872dd600260008463ffffffff1663ffffffff16815260200190815260200160002060009054906101000a900473ffffffffffffffffffffffffffffffffffffffff16600260008563ffffffff1663ffffffff16815260200190815260200160002060009054906101000a900473ffffffffffffffffffffffffffffffffffffffff1673ffffffffffffffffffffffffffffffffffffffff1663d16a53356040518163ffffffff1660e01b815260040160206040518083038186803b158015620007e457600080fd5b505afa158015620007f9573d6000803e3d6000fd5b505050506040513d601f19601f820116820180604052508101906200081f91906200422a565b600260008663ffffffff1663ffffffff16815260200190815260200160002060009054906101000a900473ffffffffffffffffffffffffffffffffffffffff1673ffffffffffffffffffffffffffffffffffffffff16633fa4f2456040518163ffffffff1660e01b815260040160206040518083038186803b158015620008a557600080fd5b505afa158015620008ba573d6000803e3d6000fd5b505050506040513d601f19601f82011682018060405250810190620008e0919062004273565b6040518463ffffffff1660e01b81526004016200090093929190620043fd565b602060405180830381600087803b1580156200091b57600080fd5b505af115801562000930573d6000803e3d6000fd5b505050506040513d601f19601f820116820180604052508101906200095691906200446b565b50600160009054906101000a900473ffffffffffffffffffffffffffffffffffffffff1673ffffffffffffffffffffffffffffffffffffffff166323b872dd600260008463ffffffff1663ffffffff16815260200190815260200160002060009054906101000a900473ffffffffffffffffffffffffffffffffffffffff16620009df62003b8f565b600260008663ffffffff1663ffffffff16815260200190815260200160002060009054906101000a900473ffffffffffffffffffffffffffffffffffffffff1673ffffffffffffffffffffffffffffffffffffffff16639af1d35a6040518163ffffffff1660e01b815260040160206040518083038186803b15801562000a6557600080fd5b505afa15801562000a7a573d6000803e3d6000fd5b505050506040513d601f19601f8201168201806040525081019062000aa0919062004273565b6040518463ffffffff1660e01b815260040162000ac093929190620043fd565b602060405180830381600087803b15801562000adb57600080fd5b505af115801562000af0573d6000803e3d6000fd5b505050506040513d601f19601f8201168201806040525081019062000b1691906200446b565b50600260008263ffffffff1663ffffffff16815260200190815260200160002060009054906101000a900473ffffffffffffffffffffffffffffffffffffffff1673ffffffffffffffffffffffffffffffffffffffff1663020c99c66040518163ffffffff1660e01b815260040160206040518083038186803b15801562000b9d57600080fd5b505afa15801562000bb2573d6000803e3d6000fd5b505050506040513d601f19601f8201168201806040525081019062000bd891906200422a565b73ffffffffffffffffffffffffffffffffffffffff16600260008363ffffffff1663ffffffff16815260200190815260200160002060009054906101000a900473ffffffffffffffffffffffffffffffffffffffff1673ffffffffffffffffffffffffffffffffffffffff1663d16a53356040518163ffffffff1660e01b815260040160206040518083038186803b15801562000c7457600080fd5b505afa15801562000c89573d6000803e3d6000fd5b505050506040513d601f19601f8201168201806040525081019062000caf91906200422a565b73ffffffffffffffffffffffffffffffffffffffff168263ffffffff167f04ec3b7c041765dfd873888179935f1e20ac529837156c3e370a05636d33da5c60405160405180910390a450565b6001600581111562000d125762000d1162004363565b5b600260008363ffffffff1663ffffffff16815260200190815260200160002060009054906101000a900473ffffffffffffffffffffffffffffffffffffffff1673ffffffffffffffffffffffffffffffffffffffff1663e25fe1756040518163ffffffff1660e01b815260040160206040518083038186803b15801562000d9857600080fd5b505afa15801562000dad573d6000803e3d6000fd5b505050506040513d601f19601f8201168201806040525081019062000dd39190620043ba565b600581111562000de85762000de762004363565b5b1462000df357600080fd5b600260008263ffffffff1663ffffffff16815260200190815260200160002060009054906101000a900473ffffffffffffffffffffffffffffffffffffffff1673ffffffffffffffffffffffffffffffffffffffff1663020c99c66040518163ffffffff1660e01b815260040160206040518083038186803b15801562000e7957600080fd5b505afa15801562000e8e573d6000803e3d6000fd5b505050506040513d601f19601f8201168201806040525081019062000eb491906200422a565b73ffffffffffffffffffffffffffffffffffffffff1662000ed462003b8f565b73ffffffffffffffffffffffffffffffffffffffff161462000ef557600080fd5b600260008263ffffffff1663ffffffff16815260200190815260200160002060009054906101000a900473ffffffffffffffffffffffffffffffffffffffff1673ffffffffffffffffffffffffffffffffffffffff1663f8b89dfb60026040518263ffffffff1660e01b815260040162000f709190620044ee565b600060405180830381600087803b15801562000f8b57600080fd5b505af115801562000fa0573d6000803e3d6000fd5b505050508063ffffffff167f0328cc765bc28471b54b0e1c79c0373d75d958a8c64ac111b8e101e592a9acf5600260008463ffffffff1663ffffffff16815260200190815260200160002060009054906101000a900473ffffffffffffffffffffffffffffffffffffffff1673ffffffffffffffffffffffffffffffffffffffff1663e25fe1756040518163ffffffff1660e01b815260040160206040518083038186803b1580156200105257600080fd5b505afa15801562001067573d6000803e3d6000fd5b505050506040513d601f19601f820116820180604052508101906200108d9190620043ba565b6005811115620010a257620010a162004363565b5b604051620010b191906200451c565b60405180910390a250565b600260008263ffffffff1663ffffffff16815260200190815260200160002060009054906101000a900473ffffffffffffffffffffffffffffffffffffffff1673ffffffffffffffffffffffffffffffffffffffff1663d16a53356040518163ffffffff1660e01b815260040160206040518083038186803b1580156200114257600080fd5b505afa15801562001157573d6000803e3d6000fd5b505050506040513d601f19601f820116820180604052508101906200117d91906200422a565b73ffffffffffffffffffffffffffffffffffffffff166200119d62003b8f565b73ffffffffffffffffffffffffffffffffffffffff161480620012b45750600260008263ffffffff1663ffffffff16815260200190815260200160002060009054906101000a900473ffffffffffffffffffffffffffffffffffffffff1673ffffffffffffffffffffffffffffffffffffffff1663020c99c66040518163ffffffff1660e01b815260040160206040518083038186803b1580156200124157600080fd5b505afa15801562001256573d6000803e3d6000fd5b505050506040513d601f19601f820116820180604052508101906200127c91906200422a565b73ffffffffffffffffffffffffffffffffffffffff166200129c62003b8f565b73ffffffffffffffffffffffffffffffffffffffff16145b620012be57600080fd5b60006005811115620012d557620012d462004363565b5b600260008363ffffffff1663ffffffff16815260200190815260200160002060009054906101000a900473ffffffffffffffffffffffffffffffffffffffff1673ffffffffffffffffffffffffffffffffffffffff1663e25fe1756040518163ffffffff1660e01b815260040160206040518083038186803b1580156200135b57600080fd5b505afa15801562001370573d6000803e3d6000fd5b505050506040513d601f19601f82011682018060405250810190620013969190620043ba565b6005811115620013ab57620013aa62004363565b5b14158015620014a5575060046005811115620013cc57620013cb62004363565b5b600260008363ffffffff1663ffffffff16815260200190815260200160002060009054906101000a900473ffffffffffffffffffffffffffffffffffffffff1673ffffffffffffffffffffffffffffffffffffffff1663e25fe1756040518163ffffffff1660e01b815260040160206040518083038186803b1580156200145257600080fd5b505afa15801562001467573d6000803e3d6000fd5b505050506040513d601f19601f820116820180604052508101906200148d9190620043ba565b6005811115620014a257620014a162004363565b5b14155b620014af57600080fd5b600580811115620014c557620014c462004363565b5b600260008363ffffffff1663ffffffff16815260200190815260200160002060009054906101000a900473ffffffffffffffffffffffffffffffffffffffff1673ffffffffffffffffffffffffffffffffffffffff1663e25fe1756040518163ffffffff1660e01b815260040160206040518083038186803b1580156200154b57600080fd5b505afa15801562001560573d6000803e3d6000fd5b505050506040513d601f19601f82011682018060405250810190620015869190620043ba565b60058111156200159b576200159a62004363565b5b1415620015a757600080fd5b600260008263ffffffff1663ffffffff16815260200190815260200160002060009054906101000a900473ffffffffffffffffffffffffffffffffffffffff1673ffffffffffffffffffffffffffffffffffffffff1663f8b89dfb60056040518263ffffffff1660e01b8152600401620016229190620044ee565b600060405180830381600087803b1580156200163d57600080fd5b505af115801562001652573d6000803e3d6000fd5b505050508063ffffffff167f0328cc765bc28471b54b0e1c79c0373d75d958a8c64ac111b8e101e592a9acf5600260008463ffffffff1663ffffffff16815260200190815260200160002060009054906101000a900473ffffffffffffffffffffffffffffffffffffffff1673ffffffffffffffffffffffffffffffffffffffff1663e25fe1756040518163ffffffff1660e01b815260040160206040518083038186803b1580156200170457600080fd5b505afa15801562001719573d6000803e3d6000fd5b505050506040513d601f19601f820116820180604052508101906200173f9190620043ba565b600581111562001754576200175362004363565b5b6040516200176391906200451c565b60405180910390a250565b60008060009054906101000a900473ffffffffffffffffffffffffffffffffffffffff1673ffffffffffffffffffffffffffffffffffffffff168273ffffffffffffffffffffffffffffffffffffffff16149050919050565b60006005811115620017de57620017dd62004363565b5b600260008363ffffffff1663ffffffff16815260200190815260200160002060009054906101000a900473ffffffffffffffffffffffffffffffffffffffff1673ffffffffffffffffffffffffffffffffffffffff1663e25fe1756040518163ffffffff1660e01b815260040160206040518083038186803b1580156200186457600080fd5b505afa15801562001879573d6000803e3d6000fd5b505050506040513d601f19601f820116820180604052508101906200189f9190620043ba565b6005811115620018b457620018b362004363565b5b14620018bf57600080fd5b600260008263ffffffff1663ffffffff16815260200190815260200160002060009054906101000a900473ffffffffffffffffffffffffffffffffffffffff1673ffffffffffffffffffffffffffffffffffffffff16633fa4f2456040518163ffffffff1660e01b815260040160206040518083038186803b1580156200194557600080fd5b505afa1580156200195a573d6000803e3d6000fd5b505050506040513d601f19601f8201168201806040525081019062001980919062004273565b600160009054906101000a900473ffffffffffffffffffffffffffffffffffffffff1673ffffffffffffffffffffffffffffffffffffffff166370a08231620019c862003b8f565b6040518263ffffffff1660e01b8152600401620019e6919062004346565b60206040518083038186803b158015620019ff57600080fd5b505afa15801562001a14573d6000803e3d6000fd5b505050506040513d601f19601f8201168201806040525081019062001a3a919062004273565b1162001a4557600080fd5b600260008263ffffffff1663ffffffff16815260200190815260200160002060009054906101000a900473ffffffffffffffffffffffffffffffffffffffff1673ffffffffffffffffffffffffffffffffffffffff1663d16a53356040518163ffffffff1660e01b815260040160206040518083038186803b15801562001acb57600080fd5b505afa15801562001ae0573d6000803e3d6000fd5b505050506040513d601f19601f8201168201806040525081019062001b0691906200422a565b73ffffffffffffffffffffffffffffffffffffffff1662001b2662003b8f565b73ffffffffffffffffffffffffffffffffffffffff16141562001b4857600080fd5b600160009054906101000a900473ffffffffffffffffffffffffffffffffffffffff1673ffffffffffffffffffffffffffffffffffffffff166323b872dd62001b9062003b8f565b600260008563ffffffff1663ffffffff16815260200190815260200160002060009054906101000a900473ffffffffffffffffffffffffffffffffffffffff16600260008663ffffffff1663ffffffff16815260200190815260200160002060009054906101000a900473ffffffffffffffffffffffffffffffffffffffff1673ffffffffffffffffffffffffffffffffffffffff16633fa4f2456040518163ffffffff1660e01b815260040160206040518083038186803b15801562001c5657600080fd5b505afa15801562001c6b573d6000803e3d6000fd5b505050506040513d601f19601f8201168201806040525081019062001c91919062004273565b6040518463ffffffff1660e01b815260040162001cb193929190620043fd565b602060405180830381600087803b15801562001ccc57600080fd5b505af115801562001ce1573d6000803e3d6000fd5b505050506040513d601f19601f8201168201806040525081019062001d0791906200446b565b50600260008263ffffffff1663ffffffff16815260200190815260200160002060009054906101000a900473ffffffffffffffffffffffffffffffffffffffff1673ffffffffffffffffffffffffffffffffffffffff166333bfc8b462001d6d62003b8f565b6040518263ffffffff1660e01b815260040162001d8b919062004346565b600060405180830381600087803b15801562001da657600080fd5b505af115801562001dbb573d6000803e3d6000fd5b50505050600260008263ffffffff1663ffffffff16815260200190815260200160002060009054906101000a900473ffffffffffffffffffffffffffffffffffffffff1673ffffffffffffffffffffffffffffffffffffffff1663f8b89dfb60016040518263ffffffff1660e01b815260040162001e3a9190620044ee565b600060405180830381600087803b15801562001e5557600080fd5b505af115801562001e6a573d6000803e3d6000fd5b50505050600260008263ffffffff1663ffffffff16815260200190815260200160002060009054906101000a900473ffffffffffffffffffffffffffffffffffffffff1673ffffffffffffffffffffffffffffffffffffffff1663020c99c66040518163ffffffff1660e01b815260040160206040518083038186803b15801562001ef457600080fd5b505afa15801562001f09573d6000803e3d6000fd5b505050506040513d601f19601f8201168201806040525081019062001f2f91906200422a565b73ffffffffffffffffffffffffffffffffffffffff168163ffffffff167f70224dc41b0f3706ebf2e1180f1bcc5505dddf32faa529cacdf20457e07fc41f600260008563ffffffff1663ffffffff16815260200190815260200160002060009054906101000a900473ffffffffffffffffffffffffffffffffffffffff1673ffffffffffffffffffffffffffffffffffffffff1663e25fe1756040518163ffffffff1660e01b815260040160206040518083038186803b15801562001ff357600080fd5b505afa15801562002008573d6000803e3d6000fd5b505050506040513d601f19601f820116820180604052508101906200202e9190620043ba565b600581111562002043576200204262004363565b5b6040516200205291906200451c565b60405180910390a350565b600260008263ffffffff1663ffffffff16815260200190815260200160002060009054906101000a900473ffffffffffffffffffffffffffffffffffffffff1673ffffffffffffffffffffffffffffffffffffffff1663d16a53356040518163ffffffff1660e01b815260040160206040518083038186803b158015620020e357600080fd5b505afa158015620020f8573d6000803e3d6000fd5b505050506040513d601f19601f820116820180604052508101906200211e91906200422a565b73ffffffffffffffffffffffffffffffffffffffff166200213e62003b8f565b73ffffffffffffffffffffffffffffffffffffffff1614158015620022585750600260008263ffffffff1663ffffffff16815260200190815260200160002060009054906101000a900473ffffffffffffffffffffffffffffffffffffffff1673ffffffffffffffffffffffffffffffffffffffff1663020c99c66040518163ffffffff1660e01b815260040160206040518083038186803b158015620021e457600080fd5b505afa158015620021f9573d6000803e3d6000fd5b505050506040513d601f19601f820116820180604052508101906200221f91906200422a565b73ffffffffffffffffffffffffffffffffffffffff166200223f62003b8f565b73ffffffffffffffffffffffffffffffffffffffff1614155b6200226257600080fd5b600a600260008363ffffffff1663ffffffff16815260200190815260200160002060009054906101000a900473ffffffffffffffffffffffffffffffffffffffff1673ffffffffffffffffffffffffffffffffffffffff16633fa4f2456040518163ffffffff1660e01b815260040160206040518083038186803b158015620022ea57600080fd5b505afa158015620022ff573d6000803e3d6000fd5b505050506040513d601f19601f8201168201806040525081019062002325919062004273565b620023319190620042d4565b600160009054906101000a900473ffffffffffffffffffffffffffffffffffffffff1673ffffffffffffffffffffffffffffffffffffffff166370a082316200237962003b8f565b6040518263ffffffff1660e01b815260040162002397919062004346565b60206040518083038186803b158015620023b057600080fd5b505afa158015620023c5573d6000803e3d6000fd5b505050506040513d601f19601f82011682018060405250810190620023eb919062004273565b1015620023f757600080fd5b6005808111156200240d576200240c62004363565b5b600260008363ffffffff1663ffffffff16815260200190815260200160002060009054906101000a900473ffffffffffffffffffffffffffffffffffffffff1673ffffffffffffffffffffffffffffffffffffffff1663e25fe1756040518163ffffffff1660e01b815260040160206040518083038186803b1580156200249357600080fd5b505afa158015620024a8573d6000803e3d6000fd5b505050506040513d601f19601f82011682018060405250810190620024ce9190620043ba565b6005811115620024e357620024e262004363565b5b14620024ee57600080fd5b600160009054906101000a900473ffffffffffffffffffffffffffffffffffffffff1673ffffffffffffffffffffffffffffffffffffffff166323b872dd600260008463ffffffff1663ffffffff16815260200190815260200160002060009054906101000a900473ffffffffffffffffffffffffffffffffffffffff16600260008563ffffffff1663ffffffff16815260200190815260200160002060009054906101000a900473ffffffffffffffffffffffffffffffffffffffff1673ffffffffffffffffffffffffffffffffffffffff1663020c99c66040518163ffffffff1660e01b815260040160206040518083038186803b158015620025f257600080fd5b505afa15801562002607573d6000803e3d6000fd5b505050506040513d601f19601f820116820180604052508101906200262d91906200422a565b600260008663ffffffff1663ffffffff16815260200190815260200160002060009054906101000a900473ffffffffffffffffffffffffffffffffffffffff1673ffffffffffffffffffffffffffffffffffffffff16633fa4f2456040518163ffffffff1660e01b815260040160206040518083038186803b158015620026b357600080fd5b505afa158015620026c8573d6000803e3d6000fd5b505050506040513d601f19601f82011682018060405250810190620026ee919062004273565b6040518463ffffffff1660e01b81526004016200270e93929190620043fd565b602060405180830381600087803b1580156200272957600080fd5b505af11580156200273e573d6000803e3d6000fd5b505050506040513d601f19601f820116820180604052508101906200276491906200446b565b50600160009054906101000a900473ffffffffffffffffffffffffffffffffffffffff1673ffffffffffffffffffffffffffffffffffffffff166323b872dd600260008463ffffffff1663ffffffff16815260200190815260200160002060009054906101000a900473ffffffffffffffffffffffffffffffffffffffff16620027ed62003b8f565b600260008663ffffffff1663ffffffff16815260200190815260200160002060009054906101000a900473ffffffffffffffffffffffffffffffffffffffff1673ffffffffffffffffffffffffffffffffffffffff16639af1d35a6040518163ffffffff1660e01b815260040160206040518083038186803b1580156200287357600080fd5b505afa15801562002888573d6000803e3d6000fd5b505050506040513d601f19601f82011682018060405250810190620028ae919062004273565b6040518463ffffffff1660e01b8152600401620028ce93929190620043fd565b602060405180830381600087803b158015620028e957600080fd5b505af1158015620028fe573d6000803e3d6000fd5b505050506040513d601f19601f820116820180604052508101906200292491906200446b565b50600260008263ffffffff1663ffffffff16815260200190815260200160002060009054906101000a900473ffffffffffffffffffffffffffffffffffffffff1673ffffffffffffffffffffffffffffffffffffffff1663d16a53356040518163ffffffff1660e01b815260040160206040518083038186803b158015620029ab57600080fd5b505afa158015620029c0573d6000803e3d6000fd5b505050506040513d601f19601f82011682018060405250810190620029e691906200422a565b73ffffffffffffffffffffffffffffffffffffffff16600260008363ffffffff1663ffffffff16815260200190815260200160002060009054906101000a900473ffffffffffffffffffffffffffffffffffffffff1673ffffffffffffffffffffffffffffffffffffffff1663020c99c66040518163ffffffff1660e01b815260040160206040518083038186803b15801562002a8257600080fd5b505afa15801562002a97573d6000803e3d6000fd5b505050506040513d601f19601f8201168201806040525081019062002abd91906200422a565b73ffffffffffffffffffffffffffffffffffffffff168263ffffffff167f04ec3b7c041765dfd873888179935f1e20ac529837156c3e370a05636d33da5c60405160405180910390a450565b6002600581111562002b205762002b1f62004363565b5b600260008363ffffffff1663ffffffff16815260200190815260200160002060009054906101000a900473ffffffffffffffffffffffffffffffffffffffff1673ffffffffffffffffffffffffffffffffffffffff1663e25fe1756040518163ffffffff1660e01b815260040160206040518083038186803b15801562002ba657600080fd5b505afa15801562002bbb573d6000803e3d6000fd5b505050506040513d601f19601f8201168201806040525081019062002be19190620043ba565b600581111562002bf65762002bf562004363565b5b1462002c0157600080fd5b600260008263ffffffff1663ffffffff16815260200190815260200160002060009054906101000a900473ffffffffffffffffffffffffffffffffffffffff1673ffffffffffffffffffffffffffffffffffffffff1663d16a53356040518163ffffffff1660e01b815260040160206040518083038186803b15801562002c8757600080fd5b505afa15801562002c9c573d6000803e3d6000fd5b505050506040513d601f19601f8201168201806040525081019062002cc291906200422a565b73ffffffffffffffffffffffffffffffffffffffff1662002ce262003b8f565b73ffffffffffffffffffffffffffffffffffffffff161462002d0357600080fd5b600260008263ffffffff1663ffffffff16815260200190815260200160002060009054906101000a900473ffffffffffffffffffffffffffffffffffffffff1673ffffffffffffffffffffffffffffffffffffffff1663f8b89dfb60036040518263ffffffff1660e01b815260040162002d7e9190620044ee565b600060405180830381600087803b15801562002d9957600080fd5b505af115801562002dae573d6000803e3d6000fd5b50505050600160009054906101000a900473ffffffffffffffffffffffffffffffffffffffff1673ffffffffffffffffffffffffffffffffffffffff166323b872dd600260008463ffffffff1663ffffffff16815260200190815260200160002060009054906101000a900473ffffffffffffffffffffffffffffffffffffffff16600260008563ffffffff1663ffffffff16815260200190815260200160002060009054906101000a900473ffffffffffffffffffffffffffffffffffffffff1673ffffffffffffffffffffffffffffffffffffffff1663020c99c66040518163ffffffff1660e01b815260040160206040518083038186803b15801562002eb657600080fd5b505afa15801562002ecb573d6000803e3d6000fd5b505050506040513d601f19601f8201168201806040525081019062002ef191906200422a565b600160009054906101000a900473ffffffffffffffffffffffffffffffffffffffff1673ffffffffffffffffffffffffffffffffffffffff166370a08231600260008863ffffffff1663ffffffff16815260200190815260200160002060009054906101000a900473ffffffffffffffffffffffffffffffffffffffff166040518263ffffffff1660e01b815260040162002f8d919062004346565b60206040518083038186803b15801562002fa657600080fd5b505afa15801562002fbb573d6000803e3d6000fd5b505050506040513d601f19601f8201168201806040525081019062002fe1919062004273565b6040518463ffffffff1660e01b81526004016200300193929190620043fd565b602060405180830381600087803b1580156200301c57600080fd5b505af115801562003031573d6000803e3d6000fd5b505050506040513d601f19601f820116820180604052508101906200305791906200446b565b508063ffffffff167f0328cc765bc28471b54b0e1c79c0373d75d958a8c64ac111b8e101e592a9acf5600260008463ffffffff1663ffffffff16815260200190815260200160002060009054906101000a900473ffffffffffffffffffffffffffffffffffffffff1673ffffffffffffffffffffffffffffffffffffffff1663e25fe1756040518163ffffffff1660e01b815260040160206040518083038186803b1580156200310657600080fd5b505afa1580156200311b573d6000803e3d6000fd5b505050506040513d601f19601f82011682018060405250810190620031419190620043ba565b600581111562003156576200315562004363565b5b6040516200316591906200451c565b60405180910390a250565b6000600581111562003187576200318662004363565b5b600260008363ffffffff1663ffffffff16815260200190815260200160002060009054906101000a900473ffffffffffffffffffffffffffffffffffffffff1673ffffffffffffffffffffffffffffffffffffffff1663e25fe1756040518163ffffffff1660e01b815260040160206040518083038186803b1580156200320d57600080fd5b505afa15801562003222573d6000803e3d6000fd5b505050506040513d601f19601f82011682018060405250810190620032489190620043ba565b60058111156200325d576200325c62004363565b5b146200326857600080fd5b600260008263ffffffff1663ffffffff16815260200190815260200160002060009054906101000a900473ffffffffffffffffffffffffffffffffffffffff1673ffffffffffffffffffffffffffffffffffffffff1663d16a53356040518163ffffffff1660e01b815260040160206040518083038186803b158015620032ee57600080fd5b505afa15801562003303573d6000803e3d6000fd5b505050506040513d601f19601f820116820180604052508101906200332991906200422a565b73ffffffffffffffffffffffffffffffffffffffff166200334962003b8f565b73ffffffffffffffffffffffffffffffffffffffff16146200336a57600080fd5b600260008263ffffffff1663ffffffff16815260200190815260200160002060009054906101000a900473ffffffffffffffffffffffffffffffffffffffff1673ffffffffffffffffffffffffffffffffffffffff1663f8b89dfb60046040518263ffffffff1660e01b8152600401620033e59190620044ee565b600060405180830381600087803b1580156200340057600080fd5b505af115801562003415573d6000803e3d6000fd5b50505050600160009054906101000a900473ffffffffffffffffffffffffffffffffffffffff1673ffffffffffffffffffffffffffffffffffffffff166323b872dd600260008463ffffffff1663ffffffff16815260200190815260200160002060009054906101000a900473ffffffffffffffffffffffffffffffffffffffff16600260008563ffffffff1663ffffffff16815260200190815260200160002060009054906101000a900473ffffffffffffffffffffffffffffffffffffffff1673ffffffffffffffffffffffffffffffffffffffff1663d16a53356040518163ffffffff1660e01b815260040160206040518083038186803b1580156200351d57600080fd5b505afa15801562003532573d6000803e3d6000fd5b505050506040513d601f19601f820116820180604052508101906200355891906200422a565b600160009054906101000a900473ffffffffffffffffffffffffffffffffffffffff1673ffffffffffffffffffffffffffffffffffffffff166370a08231600260008863ffffffff1663ffffffff16815260200190815260200160002060009054906101000a900473ffffffffffffffffffffffffffffffffffffffff166040518263ffffffff1660e01b8152600401620035f4919062004346565b60206040518083038186803b1580156200360d57600080fd5b505afa15801562003622573d6000803e3d6000fd5b505050506040513d601f19601f8201168201806040525081019062003648919062004273565b6040518463ffffffff1660e01b81526004016200366893929190620043fd565b602060405180830381600087803b1580156200368357600080fd5b505af115801562003698573d6000803e3d6000fd5b505050506040513d601f19601f82011682018060405250810190620036be91906200446b565b508063ffffffff167f0328cc765bc28471b54b0e1c79c0373d75d958a8c64ac111b8e101e592a9acf5600260008463ffffffff1663ffffffff16815260200190815260200160002060009054906101000a900473ffffffffffffffffffffffffffffffffffffffff1673ffffffffffffffffffffffffffffffffffffffff1663e25fe1756040518163ffffffff1660e01b815260040160206040518083038186803b1580156200376d57600080fd5b505afa15801562003782573d6000803e3d6000fd5b505050506040513d601f19601f82011682018060405250810190620037a89190620043ba565b6005811115620037bd57620037bc62004363565b5b604051620037cc91906200451c565b60405180910390a250565b670de0b6b3a764000082620037ed9190620042d4565b600160009054906101000a900473ffffffffffffffffffffffffffffffffffffffff1673ffffffffffffffffffffffffffffffffffffffff166370a082316200383562003b8f565b6040518263ffffffff1660e01b815260040162003853919062004346565b60206040518083038186803b1580156200386c57600080fd5b505afa15801562003881573d6000803e3d6000fd5b505050506040513d601f19601f82011682018060405250810190620038a7919062004273565b11620038b257600080fd5b600086620038bf62003b8f565b670de0b6b3a764000086620038d59190620042d4565b670de0b6b3a764000086620038eb9190620042d4565b858a8a600160009054906101000a900473ffffffffffffffffffffffffffffffffffffffff1630604051620039209062003bd0565b620039349998979695949392919062004754565b604051809103906000f08015801562003951573d6000803e3d6000fd5b5090508060026000600360009054906101000a900463ffffffff1663ffffffff1663ffffffff16815260200190815260200160002060006101000a81548173ffffffffffffffffffffffffffffffffffffffff021916908373ffffffffffffffffffffffffffffffffffffffff160217905550600160009054906101000a900473ffffffffffffffffffffffffffffffffffffffff1673ffffffffffffffffffffffffffffffffffffffff166323b872dd62003a0c62003b8f565b83670de0b6b3a76400008762003a239190620042d4565b6040518463ffffffff1660e01b815260040162003a4393929190620043fd565b602060405180830381600087803b15801562003a5e57600080fd5b505af115801562003a73573d6000803e3d6000fd5b505050506040513d601f19601f8201168201806040525081019062003a9991906200446b565b5062003aa462003b8f565b73ffffffffffffffffffffffffffffffffffffffff16600360009054906101000a900463ffffffff1663ffffffff167f702d790264e7122264c4091aa7ea690cdc09aa5ce82fd65e0a2352c4b0a4668289878787600281111562003b0d5762003b0c62004363565b5b8c8c6000600581111562003b265762003b2562004363565b5b60405162003b3b9796959493929190620047fc565b60405180910390a36003600081819054906101000a900463ffffffff168092919062003b679062004883565b91906101000a81548163ffffffff021916908363ffffffff1602179055505050505050505050565b600062003b9c336200176e565b1562003bb257601436033560601c905062003bc4565b62003bbc62003bc8565b905062003bc5565b5b90565b600033905090565b6113b980620048b683390190565b6000604051905090565b600080fd5b600080fd5b600063ffffffff82169050919050565b62003c0d8162003bf2565b811462003c1957600080fd5b50565b60008135905062003c2d8162003c02565b92915050565b60006020828403121562003c4c5762003c4b62003be8565b5b600062003c5c8482850162003c1c565b91505092915050565b600073ffffffffffffffffffffffffffffffffffffffff82169050919050565b6000819050919050565b600062003cb062003caa62003ca48462003c65565b62003c85565b62003c65565b9050919050565b600062003cc48262003c8f565b9050919050565b600062003cd88262003cb7565b9050919050565b62003cea8162003ccb565b82525050565b600060208201905062003d07600083018462003cdf565b92915050565b600062003d1a8262003c65565b9050919050565b62003d2c8162003d0d565b811462003d3857600080fd5b50565b60008135905062003d4c8162003d21565b92915050565b60006020828403121562003d6b5762003d6a62003be8565b5b600062003d7b8482850162003d3b565b91505092915050565b60008115159050919050565b62003d9b8162003d84565b82525050565b600060208201905062003db8600083018462003d90565b92915050565b600080fd5b600080fd5b6000601f19601f8301169050919050565b7f4e487b7100000000000000000000000000000000000000000000000000000000600052604160045260246000fd5b62003e138262003dc8565b810181811067ffffffffffffffff8211171562003e355762003e3462003dd9565b5b80604052505050565b600062003e4a62003bde565b905062003e58828262003e08565b919050565b600067ffffffffffffffff82111562003e7b5762003e7a62003dd9565b5b62003e868262003dc8565b9050602081019050919050565b82818337600083830152505050565b600062003eb962003eb38462003e5d565b62003e3e565b90508281526020810184848401111562003ed85762003ed762003dc3565b5b62003ee584828562003e93565b509392505050565b600082601f83011262003f055762003f0462003dbe565b5b813562003f1784826020860162003ea2565b91505092915050565b600080fd5b600067ffffffffffffffff82169050919050565b62003f448162003f25565b811462003f5057600080fd5b50565b60008135905062003f648162003f39565b92915050565b600060ff82169050919050565b62003f828162003f6a565b811462003f8e57600080fd5b50565b60008135905062003fa28162003f77565b92915050565b600061ffff82169050919050565b62003fc18162003fa8565b811462003fcd57600080fd5b50565b60008135905062003fe18162003fb6565b92915050565b600060808284031215620040005762003fff62003f20565b5b6200400c608062003e3e565b905060006200401e8482850162003f53565b6000830152506020620040348482850162003f53565b60208301525060406200404a8482850162003f91565b6040830152506060620040608482850162003fd0565b60608301525092915050565b60006080828403121562004085576200408462003f20565b5b62004091608062003e3e565b90506000620040a38482850162003f53565b6000830152506020620040b98482850162003f53565b6020830152506040620040cf8482850162003f91565b6040830152506060620040e58482850162003fd0565b60608301525092915050565b6000819050919050565b6200410681620040f1565b81146200411257600080fd5b50565b6000813590506200412681620040fb565b92915050565b600381106200413a57600080fd5b50565b6000813590506200414e816200412c565b92915050565b600080600080600080610180878903121562004175576200417462003be8565b5b600087013567ffffffffffffffff81111562004196576200419562003bed565b5b620041a489828a0162003eed565b9650506020620041b789828a0162003fe7565b95505060a0620041ca89828a016200406c565b945050610120620041de89828a0162004115565b935050610140620041f289828a0162004115565b9250506101606200420689828a016200413d565b9150509295509295509295565b600081519050620042248162003d21565b92915050565b60006020828403121562004243576200424262003be8565b5b6000620042538482850162004213565b91505092915050565b6000815190506200426d81620040fb565b92915050565b6000602082840312156200428c576200428b62003be8565b5b60006200429c848285016200425c565b91505092915050565b7f4e487b7100000000000000000000000000000000000000000000000000000000600052601160045260246000fd5b6000620042e182620040f1565b9150620042ee83620040f1565b9250817fffffffffffffffffffffffffffffffffffffffffffffffffffffffffffffffff04831182151516156200432a5762004329620042a5565b5b828202905092915050565b620043408162003d0d565b82525050565b60006020820190506200435d600083018462004335565b92915050565b7f4e487b7100000000000000000000000000000000000000000000000000000000600052602160045260246000fd5b60068110620043a057600080fd5b50565b600081519050620043b48162004392565b92915050565b600060208284031215620043d357620043d262003be8565b5b6000620043e384828501620043a3565b91505092915050565b620043f781620040f1565b82525050565b600060608201905062004414600083018662004335565b62004423602083018562004335565b620044326040830184620043ec565b949350505050565b620044458162003d84565b81146200445157600080fd5b50565b60008151905062004465816200443a565b92915050565b60006020828403121562004484576200448362003be8565b5b6000620044948482850162004454565b91505092915050565b60068110620044b157620044b062004363565b5b50565b6000819050620044c4826200449d565b919050565b6000620044d682620044b4565b9050919050565b620044e881620044c9565b82525050565b6000602082019050620045056000830184620044dd565b92915050565b620045168162003f6a565b82525050565b60006020820190506200453360008301846200450b565b92915050565b600081519050919050565b600082825260208201905092915050565b60005b838110156200457557808201518184015260208101905062004558565b8381111562004585576000848401525b50505050565b6000620045988262004539565b620045a4818562004544565b9350620045b681856020860162004555565b620045c18162003dc8565b840191505092915050565b60038110620045e057620045df62004363565b5b50565b6000819050620045f382620045cc565b919050565b60006200460582620045e3565b9050919050565b6200461781620045f8565b82525050565b620046288162003f25565b82525050565b620046398162003f6a565b82525050565b6200464a8162003fa8565b82525050565b6080820160008201516200466860008501826200461d565b5060208201516200467d60208501826200461d565b5060408201516200469260408501826200462e565b506060820151620046a760608501826200463f565b50505050565b608082016000820151620046c560008501826200461d565b506020820151620046da60208501826200461d565b506040820151620046ef60408501826200462e565b5060608201516200470460608501826200463f565b50505050565b6000620047178262003cb7565b9050919050565b62004729816200470a565b82525050565b60006200473c8262003cb7565b9050919050565b6200474e816200472f565b82525050565b60006101e082019050818103600083015262004771818c6200458b565b905062004782602083018b62004335565b62004791604083018a620043ec565b620047a06060830189620043ec565b620047af60808301886200460c565b620047be60a083018762004650565b620047ce610120830186620046ad565b620047de6101a08301856200471e565b620047ee6101c083018462004743565b9a9950505050505050505050565b60006101a082019050818103600083015262004819818a6200458b565b90506200482a6020830189620043ec565b620048396040830188620043ec565b6200484860608301876200450b565b62004857608083018662004650565b62004867610100830185620046ad565b620048776101808301846200450b565b98975050505050505050565b6000620048908262003bf2565b915063ffffffff821415620048aa57620048a9620042a5565b5b60018201905091905056fe60806040523480156200001157600080fd5b50604051620013b9380380620013b983398181016040528101906200003791906200086a565b88600090805190602001906200004f929190620002fa565b5087600160006101000a81548173ffffffffffffffffffffffffffffffffffffffff021916908373ffffffffffffffffffffffffffffffffffffffff160217905550866003819055508560048190555084600560006101000a81548160ff02191690836002811115620000c757620000c66200096a565b5b021790555083600660008201518160000160006101000a81548167ffffffffffffffff021916908367ffffffffffffffff16021790555060208201518160000160086101000a81548167ffffffffffffffff021916908367ffffffffffffffff16021790555060408201518160000160106101000a81548160ff021916908360ff16021790555060608201518160000160116101000a81548161ffff021916908361ffff16021790555090505082600760008201518160000160006101000a81548167ffffffffffffffff021916908367ffffffffffffffff16021790555060208201518160000160086101000a81548167ffffffffffffffff021916908367ffffffffffffffff16021790555060408201518160000160106101000a81548160ff021916908360ff16021790555060608201518160000160116101000a81548161ffff021916908361ffff1602179055509050506000600860006101000a81548160ff021916908360058111156200024557620002446200096a565b5b02179055508173ffffffffffffffffffffffffffffffffffffffff1663095ea7b382888a620002759190620009c8565b6040518363ffffffff1660e01b81526004016200029492919062000a47565b602060405180830381600087803b158015620002af57600080fd5b505af1158015620002c4573d6000803e3d6000fd5b505050506040513d601f19601f82011682018060405250810190620002ea919062000ab1565b5050505050505050505062000b48565b828054620003089062000b12565b90600052602060002090601f0160209004810192826200032c576000855562000378565b82601f106200034757805160ff191683800117855562000378565b8280016001018555821562000378579182015b82811115620003775782518255916020019190600101906200035a565b5b5090506200038791906200038b565b5090565b5b80821115620003a65760008160009055506001016200038c565b5090565b6000604051905090565b600080fd5b600080fd5b600080fd5b600080fd5b6000601f19601f8301169050919050565b7f4e487b7100000000000000000000000000000000000000000000000000000000600052604160045260246000fd5b6200041382620003c8565b810181811067ffffffffffffffff82111715620004355762000434620003d9565b5b80604052505050565b60006200044a620003aa565b905062000458828262000408565b919050565b600067ffffffffffffffff8211156200047b576200047a620003d9565b5b6200048682620003c8565b9050602081019050919050565b60005b83811015620004b357808201518184015260208101905062000496565b83811115620004c3576000848401525b50505050565b6000620004e0620004da846200045d565b6200043e565b905082815260208101848484011115620004ff57620004fe620003c3565b5b6200050c84828562000493565b509392505050565b600082601f8301126200052c576200052b620003be565b5b81516200053e848260208601620004c9565b91505092915050565b600073ffffffffffffffffffffffffffffffffffffffff82169050919050565b6000620005748262000547565b9050919050565b620005868162000567565b81146200059257600080fd5b50565b600081519050620005a6816200057b565b92915050565b6000819050919050565b620005c181620005ac565b8114620005cd57600080fd5b50565b600081519050620005e181620005b6565b92915050565b60038110620005f557600080fd5b50565b6000815190506200060981620005e7565b92915050565b600080fd5b600067ffffffffffffffff82169050919050565b620006338162000614565b81146200063f57600080fd5b50565b600081519050620006538162000628565b92915050565b600060ff82169050919050565b620006718162000659565b81146200067d57600080fd5b50565b600081519050620006918162000666565b92915050565b600061ffff82169050919050565b620006b08162000697565b8114620006bc57600080fd5b50565b600081519050620006d081620006a5565b92915050565b600060808284031215620006ef57620006ee6200060f565b5b620006fb60806200043e565b905060006200070d8482850162000642565b6000830152506020620007238482850162000642565b6020830152506040620007398482850162000680565b60408301525060606200074f84828501620006bf565b60608301525092915050565b6000608082840312156200077457620007736200060f565b5b6200078060806200043e565b90506000620007928482850162000642565b6000830152506020620007a88482850162000642565b6020830152506040620007be8482850162000680565b6040830152506060620007d484828501620006bf565b60608301525092915050565b6000620007ed8262000567565b9050919050565b620007ff81620007e0565b81146200080b57600080fd5b50565b6000815190506200081f81620007f4565b92915050565b6000620008328262000567565b9050919050565b620008448162000825565b81146200085057600080fd5b50565b600081519050620008648162000839565b92915050565b60008060008060008060008060006101e08a8c03121562000890576200088f620003b4565b5b60008a015167ffffffffffffffff811115620008b157620008b0620003b9565b5b620008bf8c828d0162000514565b9950506020620008d28c828d0162000595565b9850506040620008e58c828d01620005d0565b9750506060620008f88c828d01620005d0565b96505060806200090b8c828d01620005f8565b95505060a06200091e8c828d01620006d6565b945050610120620009328c828d016200075b565b9350506101a0620009468c828d016200080e565b9250506101c06200095a8c828d0162000853565b9150509295985092959850929598565b7f4e487b7100000000000000000000000000000000000000000000000000000000600052602160045260246000fd5b7f4e487b7100000000000000000000000000000000000000000000000000000000600052601160045260246000fd5b6000620009d582620005ac565b9150620009e283620005ac565b9250827fffffffffffffffffffffffffffffffffffffffffffffffffffffffffffffffff0382111562000a1a5762000a1962000999565b5b828201905092915050565b62000a308162000567565b82525050565b62000a4181620005ac565b82525050565b600060408201905062000a5e600083018562000a25565b62000a6d602083018462000a36565b9392505050565b60008115159050919050565b62000a8b8162000a74565b811462000a9757600080fd5b50565b60008151905062000aab8162000a80565b92915050565b60006020828403121562000aca5762000ac9620003b4565b5b600062000ada8482850162000a9a565b91505092915050565b7f4e487b7100000000000000000000000000000000000000000000000000000000600052602260045260246000fd5b6000600282049050600182168062000b2b57607f821691505b6020821081141562000b425762000b4162000ae3565b5b50919050565b6108618062000b586000396000f3fe608060405234801561001057600080fd5b50600436106100a95760003560e01c8063a1aab33f11610071578063a1aab33f14610142578063b269681d14610160578063d16a533514610181578063e1e5b1ee1461019f578063e25fe175146101c0578063f8b89dfb146101de576100a9565b8063020c99c6146100ae57806333bfc8b4146100cc5780633fa4f245146100e85780637998a1c4146101065780639af1d35a14610124575b600080fd5b6100b66101fa565b6040516100c3919061047a565b60405180910390f35b6100e660048036038101906100e191906104c6565b610220565b005b6100f0610264565b6040516100fd919061050c565b60405180910390f35b61010e61026a565b60405161011b91906105c0565b60405180910390f35b61012c6102f8565b604051610139919061050c565b60405180910390f35b61014a6102fe565b6040516101579190610659565b60405180910390f35b610168610311565b60405161017894939291906106d0565b60405180910390f35b610189610372565b604051610196919061047a565b60405180910390f35b6101a7610398565b6040516101b794939291906106d0565b60405180910390f35b6101c86103f9565b6040516101d5919061075d565b60405180910390f35b6101f860048036038101906101f3919061079d565b61040c565b005b600260009054906101000a900473ffffffffffffffffffffffffffffffffffffffff1681565b80600260006101000a81548173ffffffffffffffffffffffffffffffffffffffff021916908373ffffffffffffffffffffffffffffffffffffffff16021790555050565b60035481565b60008054610277906107f9565b80601f01602080910402602001604051908101604052809291908181526020018280546102a3906107f9565b80156102f05780601f106102c5576101008083540402835291602001916102f0565b820191906000526020600020905b8154815290600101906020018083116102d357829003601f168201915b505050505081565b60045481565b600560009054906101000a900460ff1681565b60078060000160009054906101000a900467ffffffffffffffff16908060000160089054906101000a900467ffffffffffffffff16908060000160109054906101000a900460ff16908060000160119054906101000a900461ffff16905084565b600160009054906101000a900473ffffffffffffffffffffffffffffffffffffffff1681565b60068060000160009054906101000a900467ffffffffffffffff16908060000160089054906101000a900467ffffffffffffffff16908060000160109054906101000a900460ff16908060000160119054906101000a900461ffff16905084565b600860009054906101000a900460ff1681565b80600860006101000a81548160ff02191690836005811115610431576104306105e2565b5b021790555050565b600073ffffffffffffffffffffffffffffffffffffffff82169050919050565b600061046482610439565b9050919050565b61047481610459565b82525050565b600060208201905061048f600083018461046b565b92915050565b600080fd5b6104a381610459565b81146104ae57600080fd5b50565b6000813590506104c08161049a565b92915050565b6000602082840312156104dc576104db610495565b5b60006104ea848285016104b1565b91505092915050565b6000819050919050565b610506816104f3565b82525050565b600060208201905061052160008301846104fd565b92915050565b600081519050919050565b600082825260208201905092915050565b60005b83811015610561578082015181840152602081019050610546565b83811115610570576000848401525b50505050565b6000601f19601f8301169050919050565b600061059282610527565b61059c8185610532565b93506105ac818560208601610543565b6105b581610576565b840191505092915050565b600060208201905081810360008301526105da8184610587565b905092915050565b7f4e487b7100000000000000000000000000000000000000000000000000000000600052602160045260246000fd5b60038110610622576106216105e2565b5b50565b600081905061063382610611565b919050565b600061064382610625565b9050919050565b61065381610638565b82525050565b600060208201905061066e600083018461064a565b92915050565b600067ffffffffffffffff82169050919050565b61069181610674565b82525050565b600060ff82169050919050565b6106ad81610697565b82525050565b600061ffff82169050919050565b6106ca816106b3565b82525050565b60006080820190506106e56000830187610688565b6106f26020830186610688565b6106ff60408301856106a4565b61070c60608301846106c1565b95945050505050565b60068110610726576107256105e2565b5b50565b600081905061073782610715565b919050565b600061074782610729565b9050919050565b6107578161073c565b82525050565b6000602082019050610772600083018461074e565b92915050565b6006811061078557600080fd5b50565b60008135905061079781610778565b92915050565b6000602082840312156107b3576107b2610495565b5b60006107c184828501610788565b91505092915050565b7f4e487b7100000000000000000000000000000000000000000000000000000000600052602260045260246000fd5b6000600282049050600182168061081157607f821691505b60208210811415610825576108246107ca565b5b5091905056fea2646970667358221220ac66e396adfcae7eac1b956b2bc44e23d20edbe56e8a4c8f3e5f7abef134b22564736f6c63430008090033a2646970667358221220fa121d7051783430466420e42c2cb93a0004df708aede6abfad02d9e7fcdd0f864736f6c63430008090033",
  "immutableReferences": {},
  "source": "// SPDX-License-Identifier: MIT\r\npragma solidity 0.8.9;\r\n\r\nimport \"./Request.sol\";\r\nimport \"./ChiralToken.sol\";\r\nimport \"@openzeppelin/contracts/metatx/ERC2771Context.sol\";\r\n\r\ncontract RequestManager is ERC2771Context {\r\n    ChiralToken tokenContract;\r\n\r\n    constructor(ChiralToken newtoken, address _forwarder)\r\n        ERC2771Context(_forwarder)\r\n    {\r\n        tokenContract = newtoken;\r\n    }\r\n\r\n    mapping(uint32 => Request) public requests;\r\n    uint32 nextIndex;\r\n    enum weights {\r\n        foot,\r\n        bike,\r\n        car\r\n    }\r\n    struct S_pickup {\r\n        uint64 pickup_lat;\r\n        uint64 pickup_lng;\r\n        uint8 pickup_floor;\r\n        uint16 pickup_unit;\r\n    }\r\n\r\n    struct S_destination {\r\n        uint64 destination_lat;\r\n        uint64 destination_lng;\r\n        uint8 destination_floor;\r\n        uint16 destination_unit;\r\n    }\r\n\r\n    enum steps {\r\n        Created,\r\n        Accepted,\r\n        Delivered,\r\n        Received,\r\n        Cancelled,\r\n        Intervention\r\n    }\r\n\r\n    event Created(\r\n        uint32 indexed index,\r\n        string identifier,\r\n        address indexed pickupAddress,\r\n        uint256 value,\r\n        uint256 fees,\r\n        uint8 weight,\r\n        S_pickup pickup,\r\n        S_destination destination,\r\n        uint8 step\r\n    );\r\n\r\n    event Accepted(\r\n        uint32 indexed index,\r\n        address indexed courierAddress,\r\n        uint8 step\r\n    );\r\n\r\n    event Verdict(\r\n        uint32 indexed index,\r\n        address indexed winner,\r\n        address indexed loser\r\n    );\r\n\r\n    event Step(uint32 indexed index, uint8 step);\r\n\r\n    function createRequest(\r\n        string memory identifier,\r\n        S_pickup memory pickup,\r\n        S_destination memory destination,\r\n        uint256 value,\r\n        uint256 fees,\r\n        weights weight\r\n    ) public {\r\n        require(tokenContract.balanceOf(_msgSender()) > fees * 10**18);\r\n        Request request = new Request(\r\n            identifier,\r\n            _msgSender(),\r\n            value * 10**18,\r\n            fees * 10**18,\r\n            weight,\r\n            pickup,\r\n            destination,\r\n            tokenContract,\r\n            this\r\n        );\r\n        requests[nextIndex] = request;\r\n        tokenContract.transferFrom(\r\n            _msgSender(),\r\n            address(request),\r\n            fees * 10**18\r\n        );\r\n        emit Created(\r\n            nextIndex,\r\n            identifier,\r\n            _msgSender(),\r\n            value,\r\n            fees,\r\n            uint8(weight),\r\n            pickup,\r\n            destination,\r\n            uint8(steps.Created)\r\n        );\r\n        nextIndex++;\r\n    }\r\n\r\n    function triggerAccepted(uint32 _index) public {\r\n        require(requests[_index].step() == steps.Created);\r\n        require(\r\n            tokenContract.balanceOf(_msgSender()) > requests[_index].value()\r\n        );\r\n        require(_msgSender() != requests[_index].pickupAddress());\r\n        tokenContract.transferFrom(\r\n            _msgSender(),\r\n            address(requests[_index]),\r\n            requests[_index].value()\r\n        );\r\n        requests[_index].setCourier(_msgSender());\r\n        requests[_index].setStep(steps.Accepted);\r\n        emit Accepted(\r\n            _index,\r\n            requests[_index].courierAddress(),\r\n            uint8(requests[_index].step())\r\n        );\r\n    }\r\n\r\n    function triggerDelivery(uint32 _index) public {\r\n        require(requests[_index].step() == steps.Accepted);\r\n        require(_msgSender() == requests[_index].courierAddress());\r\n        requests[_index].setStep(steps.Delivered);\r\n        emit Step(_index, uint8(requests[_index].step()));\r\n    }\r\n\r\n    function triggerReceive(uint32 _index) public {\r\n        require(requests[_index].step() == steps.Delivered);\r\n        require(_msgSender() == requests[_index].pickupAddress());\r\n        requests[_index].setStep(steps.Received);\r\n        tokenContract.transferFrom(\r\n            address(requests[_index]),\r\n            requests[_index].courierAddress(),\r\n            tokenContract.balanceOf(address(requests[_index]))\r\n        );\r\n        emit Step(_index, uint8(requests[_index].step()));\r\n    }\r\n\r\n    function triggerCancel(uint32 _index) public {\r\n        require(requests[_index].step() == steps.Created);\r\n        require(_msgSender() == requests[_index].pickupAddress());\r\n        requests[_index].setStep(steps.Cancelled);\r\n        tokenContract.transferFrom(\r\n            address(requests[_index]),\r\n            requests[_index].pickupAddress(),\r\n            tokenContract.balanceOf(address(requests[_index]))\r\n        );\r\n        emit Step(_index, uint8(requests[_index].step()));\r\n    }\r\n\r\n    function triggerReport(uint32 _index) public {\r\n        require(\r\n            _msgSender() == requests[_index].pickupAddress() ||\r\n                _msgSender() == requests[_index].courierAddress()\r\n        );\r\n        require(\r\n            requests[_index].step() != steps.Created &&\r\n                requests[_index].step() != steps.Cancelled\r\n        );\r\n        require(requests[_index].step() != steps.Intervention);\r\n        requests[_index].setStep(steps.Intervention);\r\n        emit Step(_index, uint8(requests[_index].step()));\r\n    }\r\n\r\n    function awardToSender(uint32 _index) public {\r\n        require(\r\n            _msgSender() != requests[_index].pickupAddress() &&\r\n                _msgSender() != requests[_index].courierAddress()\r\n        );\r\n        require(\r\n            tokenContract.balanceOf(_msgSender()) >\r\n                requests[_index].value() * 10\r\n        );\r\n        require(requests[_index].step() == steps.Intervention);\r\n        tokenContract.transferFrom(\r\n            address(requests[_index]),\r\n            requests[_index].pickupAddress(),\r\n            requests[_index].value()\r\n        );\r\n        tokenContract.transferFrom(\r\n            address(requests[_index]),\r\n            _msgSender(),\r\n            requests[_index].fees()\r\n        );\r\n        emit Verdict(\r\n            _index,\r\n            requests[_index].pickupAddress(),\r\n            requests[_index].courierAddress()\r\n        );\r\n    }\r\n\r\n    function awardToCourier(uint32 _index) public {\r\n        require(\r\n            _msgSender() != requests[_index].pickupAddress() &&\r\n                _msgSender() != requests[_index].courierAddress()\r\n        );\r\n        require(\r\n            tokenContract.balanceOf(_msgSender()) >=\r\n                requests[_index].value() * 10\r\n        );\r\n        require(requests[_index].step() == steps.Intervention);\r\n        tokenContract.transferFrom(\r\n            address(requests[_index]),\r\n            requests[_index].courierAddress(),\r\n            requests[_index].value()\r\n        );\r\n        tokenContract.transferFrom(\r\n            address(requests[_index]),\r\n            _msgSender(),\r\n            requests[_index].fees()\r\n        );\r\n        emit Verdict(\r\n            _index,\r\n            requests[_index].courierAddress(),\r\n            requests[_index].pickupAddress()\r\n        );\r\n    }\r\n}\r\n",
  "sourcePath": "C:\\Users\\pohsa_oc6mcgn\\Documents\\GitHub\\Chiral\\contracts\\RequestManager.sol",
  "compiler": {
    "name": "solc",
    "version": "0.8.9+commit.e5eed63a.Emscripten.clang"
  },
  "schemaVersion": "3.4.1",
  "updatedAt": "2021-10-24T09:44:59.217Z",
  "networkType": "ethereum",
  "devdoc": {
    "kind": "dev",
    "methods": {},
    "version": 1
  },
  "userdoc": {
    "kind": "user",
    "methods": {},
    "version": 1
  }
}