{
  "contractName": "ChiralToken",
  "abi": [
    {
      "inputs": [
        {
          "internalType": "address",
          "name": "_forwarder",
          "type": "address"
        },
        {
          "internalType": "uint256",
          "name": "amount",
          "type": "uint256"
        }
      ],
      "stateMutability": "nonpayable",
      "type": "constructor"
    },
    {
      "anonymous": false,
      "inputs": [
        {
          "indexed": true,
          "internalType": "address",
          "name": "owner",
          "type": "address"
        },
        {
          "indexed": true,
          "internalType": "address",
          "name": "spender",
          "type": "address"
        },
        {
          "indexed": false,
          "internalType": "uint256",
          "name": "value",
          "type": "uint256"
        }
      ],
      "name": "Approval",
      "type": "event"
    },
    {
      "anonymous": false,
      "inputs": [
        {
          "indexed": true,
          "internalType": "address",
          "name": "from",
          "type": "address"
        },
        {
          "indexed": true,
          "internalType": "address",
          "name": "to",
          "type": "address"
        },
        {
          "indexed": false,
          "internalType": "uint256",
          "name": "value",
          "type": "uint256"
        }
      ],
      "name": "Transfer",
      "type": "event"
    },
    {
      "inputs": [
        {
          "internalType": "address",
          "name": "owner",
          "type": "address"
        },
        {
          "internalType": "address",
          "name": "spender",
          "type": "address"
        }
      ],
      "name": "allowance",
      "outputs": [
        {
          "internalType": "uint256",
          "name": "",
          "type": "uint256"
        }
      ],
      "stateMutability": "view",
      "type": "function",
      "constant": true
    },
    {
      "inputs": [
        {
          "internalType": "address",
          "name": "spender",
          "type": "address"
        },
        {
          "internalType": "uint256",
          "name": "amount",
          "type": "uint256"
        }
      ],
      "name": "approve",
      "outputs": [
        {
          "internalType": "bool",
          "name": "",
          "type": "bool"
        }
      ],
      "stateMutability": "nonpayable",
      "type": "function"
    },
    {
      "inputs": [
        {
          "internalType": "address",
          "name": "account",
          "type": "address"
        }
      ],
      "name": "balanceOf",
      "outputs": [
        {
          "internalType": "uint256",
          "name": "",
          "type": "uint256"
        }
      ],
      "stateMutability": "view",
      "type": "function",
      "constant": true
    },
    {
      "inputs": [],
      "name": "decimals",
      "outputs": [
        {
          "internalType": "uint8",
          "name": "",
          "type": "uint8"
        }
      ],
      "stateMutability": "view",
      "type": "function",
      "constant": true
    },
    {
      "inputs": [
        {
          "internalType": "address",
          "name": "spender",
          "type": "address"
        },
        {
          "internalType": "uint256",
          "name": "subtractedValue",
          "type": "uint256"
        }
      ],
      "name": "decreaseAllowance",
      "outputs": [
        {
          "internalType": "bool",
          "name": "",
          "type": "bool"
        }
      ],
      "stateMutability": "nonpayable",
      "type": "function"
    },
    {
      "inputs": [
        {
          "internalType": "address",
          "name": "spender",
          "type": "address"
        },
        {
          "internalType": "uint256",
          "name": "addedValue",
          "type": "uint256"
        }
      ],
      "name": "increaseAllowance",
      "outputs": [
        {
          "internalType": "bool",
          "name": "",
          "type": "bool"
        }
      ],
      "stateMutability": "nonpayable",
      "type": "function"
    },
    {
      "inputs": [
        {
          "internalType": "address",
          "name": "forwarder",
          "type": "address"
        }
      ],
      "name": "isTrustedForwarder",
      "outputs": [
        {
          "internalType": "bool",
          "name": "",
          "type": "bool"
        }
      ],
      "stateMutability": "view",
      "type": "function",
      "constant": true
    },
    {
      "inputs": [],
      "name": "name",
      "outputs": [
        {
          "internalType": "string",
          "name": "",
          "type": "string"
        }
      ],
      "stateMutability": "view",
      "type": "function",
      "constant": true
    },
    {
      "inputs": [],
      "name": "symbol",
      "outputs": [
        {
          "internalType": "string",
          "name": "",
          "type": "string"
        }
      ],
      "stateMutability": "view",
      "type": "function",
      "constant": true
    },
    {
      "inputs": [],
      "name": "totalSupply",
      "outputs": [
        {
          "internalType": "uint256",
          "name": "",
          "type": "uint256"
        }
      ],
      "stateMutability": "view",
      "type": "function",
      "constant": true
    },
    {
      "inputs": [
        {
          "internalType": "address",
          "name": "recipient",
          "type": "address"
        },
        {
          "internalType": "uint256",
          "name": "amount",
          "type": "uint256"
        }
      ],
      "name": "transfer",
      "outputs": [
        {
          "internalType": "bool",
          "name": "",
          "type": "bool"
        }
      ],
      "stateMutability": "nonpayable",
      "type": "function"
    },
    {
      "inputs": [
        {
          "internalType": "address",
          "name": "sender",
          "type": "address"
        },
        {
          "internalType": "address",
          "name": "recipient",
          "type": "address"
        },
        {
          "internalType": "uint256",
          "name": "amount",
          "type": "uint256"
        }
      ],
      "name": "transferFrom",
      "outputs": [
        {
          "internalType": "bool",
          "name": "",
          "type": "bool"
        }
      ],
      "stateMutability": "nonpayable",
      "type": "function"
    },
    {
      "inputs": [
        {
          "internalType": "uint256",
          "name": "amount",
          "type": "uint256"
        }
      ],
      "name": "mint",
      "outputs": [],
      "stateMutability": "nonpayable",
      "type": "function"
    }
  ],
  "bytecode": "0x60806040523480156200001157600080fd5b5060405162001da338038062001da383398181016040528101906200003791906200046b565b6040518060400160405280600b81526020017f43686972616c546f6b656e0000000000000000000000000000000000000000008152506040518060400160405280600381526020017f434c54000000000000000000000000000000000000000000000000000000000081525083806000806101000a81548173ffffffffffffffffffffffffffffffffffffffff021916908373ffffffffffffffffffffffffffffffffffffffff160217905550508160049080519060200190620000fd9291906200038d565b508060059080519060200190620001169291906200038d565b5050506200013a6200012d6200014260201b60201c565b826200015e60201b60201c565b5050620006cb565b600062000159620002d860201b620008271760201c565b905090565b600073ffffffffffffffffffffffffffffffffffffffff168273ffffffffffffffffffffffffffffffffffffffff161415620001d1576040517f08c379a0000000000000000000000000000000000000000000000000000000008152600401620001c890620004ea565b60405180910390fd5b620001e5600083836200032260201b60201c565b8060036000828254620001f991906200053a565b9250508190555080600160008473ffffffffffffffffffffffffffffffffffffffff1673ffffffffffffffffffffffffffffffffffffffff16815260200190815260200160002060008282546200025191906200053a565b925050819055508173ffffffffffffffffffffffffffffffffffffffff16600073ffffffffffffffffffffffffffffffffffffffff167fddf252ad1be2c89b69c2b068fc378daa952ba7f163c4a11628f55a4df523b3ef83604051620002b891906200050c565b60405180910390a3620002d4600083836200032760201b60201c565b5050565b6000620002eb336200032c60201b60201c565b156200030157601436033560601c90506200031e565b620003166200038560201b620008591760201c565b90506200031f565b5b90565b505050565b505050565b60008060009054906101000a900473ffffffffffffffffffffffffffffffffffffffff1673ffffffffffffffffffffffffffffffffffffffff168273ffffffffffffffffffffffffffffffffffffffff16149050919050565b600033905090565b8280546200039b90620005d5565b90600052602060002090601f016020900481019282620003bf57600085556200040b565b82601f10620003da57805160ff19168380011785556200040b565b828001600101855582156200040b579182015b828111156200040a578251825591602001919060010190620003ed565b5b5090506200041a91906200041e565b5090565b5b80821115620004395760008160009055506001016200041f565b5090565b6000815190506200044e8162000697565b92915050565b6000815190506200046581620006b1565b92915050565b6000806040838503121562000485576200048462000669565b5b600062000495858286016200043d565b9250506020620004a88582860162000454565b9150509250929050565b6000620004c1601f8362000529565b9150620004ce826200066e565b602082019050919050565b620004e481620005cb565b82525050565b600060208201905081810360008301526200050581620004b2565b9050919050565b6000602082019050620005236000830184620004d9565b92915050565b600082825260208201905092915050565b60006200054782620005cb565b91506200055483620005cb565b9250827fffffffffffffffffffffffffffffffffffffffffffffffffffffffffffffffff038211156200058c576200058b6200060b565b5b828201905092915050565b6000620005a482620005ab565b9050919050565b600073ffffffffffffffffffffffffffffffffffffffff82169050919050565b6000819050919050565b60006002820490506001821680620005ee57607f821691505b602082108114156200060557620006046200063a565b5b50919050565b7f4e487b7100000000000000000000000000000000000000000000000000000000600052601160045260246000fd5b7f4e487b7100000000000000000000000000000000000000000000000000000000600052602260045260246000fd5b600080fd5b7f45524332303a206d696e7420746f20746865207a65726f206164647265737300600082015250565b620006a28162000597565b8114620006ae57600080fd5b50565b620006bc81620005cb565b8114620006c857600080fd5b50565b6116c880620006db6000396000f3fe608060405234801561001057600080fd5b50600436106100cf5760003560e01c8063572b6c051161008c578063a0712d6811610066578063a0712d681461023c578063a457c2d714610258578063a9059cbb14610288578063dd62ed3e146102b8576100cf565b8063572b6c05146101be57806370a08231146101ee57806395d89b411461021e576100cf565b806306fdde03146100d4578063095ea7b3146100f257806318160ddd1461012257806323b872dd14610140578063313ce56714610170578063395093511461018e575b600080fd5b6100dc6102e8565b6040516100e9919061111a565b60405180910390f35b61010c60048036038101906101079190610f14565b61037a565b60405161011991906110ff565b60405180910390f35b61012a610398565b604051610137919061123c565b60405180910390f35b61015a60048036038101906101559190610ec1565b6103a2565b60405161016791906110ff565b60405180910390f35b61017861049a565b6040516101859190611257565b60405180910390f35b6101a860048036038101906101a39190610f14565b6104a3565b6040516101b591906110ff565b60405180910390f35b6101d860048036038101906101d39190610e54565b61054f565b6040516101e591906110ff565b60405180910390f35b61020860048036038101906102039190610e54565b6105a8565b604051610215919061123c565b60405180910390f35b6102266105f1565b604051610233919061111a565b60405180910390f35b61025660048036038101906102519190610f54565b610683565b005b610272600480360381019061026d9190610f14565b610697565b60405161027f91906110ff565b60405180910390f35b6102a2600480360381019061029d9190610f14565b610782565b6040516102af91906110ff565b60405180910390f35b6102d260048036038101906102cd9190610e81565b6107a0565b6040516102df919061123c565b60405180910390f35b6060600480546102f79061136c565b80601f01602080910402602001604051908101604052809291908181526020018280546103239061136c565b80156103705780601f1061034557610100808354040283529160200191610370565b820191906000526020600020905b81548152906001019060200180831161035357829003601f168201915b5050505050905090565b600061038e610387610861565b8484610870565b6001905092915050565b6000600354905090565b60006103af848484610a3b565b6000600260008673ffffffffffffffffffffffffffffffffffffffff1673ffffffffffffffffffffffffffffffffffffffff16815260200190815260200160002060006103fa610861565b73ffffffffffffffffffffffffffffffffffffffff1673ffffffffffffffffffffffffffffffffffffffff1681526020019081526020016000205490508281101561047a576040517f08c379a00000000000000000000000000000000000000000000000000000000081526004016104719061119c565b60405180910390fd5b61048e85610486610861565b858403610870565b60019150509392505050565b60006012905090565b60006105456104b0610861565b8484600260006104be610861565b73ffffffffffffffffffffffffffffffffffffffff1673ffffffffffffffffffffffffffffffffffffffff16815260200190815260200160002060008873ffffffffffffffffffffffffffffffffffffffff1673ffffffffffffffffffffffffffffffffffffffff16815260200190815260200160002054610540919061128e565b610870565b6001905092915050565b60008060009054906101000a900473ffffffffffffffffffffffffffffffffffffffff1673ffffffffffffffffffffffffffffffffffffffff168273ffffffffffffffffffffffffffffffffffffffff16149050919050565b6000600160008373ffffffffffffffffffffffffffffffffffffffff1673ffffffffffffffffffffffffffffffffffffffff168152602001908152602001600020549050919050565b6060600580546106009061136c565b80601f016020809104026020016040519081016040528092919081815260200182805461062c9061136c565b80156106795780601f1061064e57610100808354040283529160200191610679565b820191906000526020600020905b81548152906001019060200180831161065c57829003601f168201915b5050505050905090565b61069461068e610861565b82610cbf565b50565b600080600260006106a6610861565b73ffffffffffffffffffffffffffffffffffffffff1673ffffffffffffffffffffffffffffffffffffffff16815260200190815260200160002060008573ffffffffffffffffffffffffffffffffffffffff1673ffffffffffffffffffffffffffffffffffffffff16815260200190815260200160002054905082811015610763576040517f08c379a000000000000000000000000000000000000000000000000000000000815260040161075a906111fc565b60405180910390fd5b61077761076e610861565b85858403610870565b600191505092915050565b600061079661078f610861565b8484610a3b565b6001905092915050565b6000600260008473ffffffffffffffffffffffffffffffffffffffff1673ffffffffffffffffffffffffffffffffffffffff16815260200190815260200160002060008373ffffffffffffffffffffffffffffffffffffffff1673ffffffffffffffffffffffffffffffffffffffff16815260200190815260200160002054905092915050565b60006108323361054f565b1561084657601436033560601c9050610855565b61084e610859565b9050610856565b5b90565b600033905090565b600061086b610827565b905090565b600073ffffffffffffffffffffffffffffffffffffffff168373ffffffffffffffffffffffffffffffffffffffff1614156108e0576040517f08c379a00000000000000000000000000000000000000000000000000000000081526004016108d7906111dc565b60405180910390fd5b600073ffffffffffffffffffffffffffffffffffffffff168273ffffffffffffffffffffffffffffffffffffffff161415610950576040517f08c379a00000000000000000000000000000000000000000000000000000000081526004016109479061115c565b60405180910390fd5b80600260008573ffffffffffffffffffffffffffffffffffffffff1673ffffffffffffffffffffffffffffffffffffffff16815260200190815260200160002060008473ffffffffffffffffffffffffffffffffffffffff1673ffffffffffffffffffffffffffffffffffffffff168152602001908152602001600020819055508173ffffffffffffffffffffffffffffffffffffffff168373ffffffffffffffffffffffffffffffffffffffff167f8c5be1e5ebec7d5bd14f71427d1e84f3dd0314c0f7b2291e5b200ac8c7c3b92583604051610a2e919061123c565b60405180910390a3505050565b600073ffffffffffffffffffffffffffffffffffffffff168373ffffffffffffffffffffffffffffffffffffffff161415610aab576040517f08c379a0000000000000000000000000000000000000000000000000000000008152600401610aa2906111bc565b60405180910390fd5b600073ffffffffffffffffffffffffffffffffffffffff168273ffffffffffffffffffffffffffffffffffffffff161415610b1b576040517f08c379a0000000000000000000000000000000000000000000000000000000008152600401610b129061113c565b60405180910390fd5b610b26838383610e20565b6000600160008573ffffffffffffffffffffffffffffffffffffffff1673ffffffffffffffffffffffffffffffffffffffff16815260200190815260200160002054905081811015610bad576040517f08c379a0000000000000000000000000000000000000000000000000000000008152600401610ba49061117c565b60405180910390fd5b818103600160008673ffffffffffffffffffffffffffffffffffffffff1673ffffffffffffffffffffffffffffffffffffffff1681526020019081526020016000208190555081600160008573ffffffffffffffffffffffffffffffffffffffff1673ffffffffffffffffffffffffffffffffffffffff1681526020019081526020016000206000828254610c42919061128e565b925050819055508273ffffffffffffffffffffffffffffffffffffffff168473ffffffffffffffffffffffffffffffffffffffff167fddf252ad1be2c89b69c2b068fc378daa952ba7f163c4a11628f55a4df523b3ef84604051610ca6919061123c565b60405180910390a3610cb9848484610e25565b50505050565b600073ffffffffffffffffffffffffffffffffffffffff168273ffffffffffffffffffffffffffffffffffffffff161415610d2f576040517f08c379a0000000000000000000000000000000000000000000000000000000008152600401610d269061121c565b60405180910390fd5b610d3b60008383610e20565b8060036000828254610d4d919061128e565b9250508190555080600160008473ffffffffffffffffffffffffffffffffffffffff1673ffffffffffffffffffffffffffffffffffffffff1681526020019081526020016000206000828254610da3919061128e565b925050819055508173ffffffffffffffffffffffffffffffffffffffff16600073ffffffffffffffffffffffffffffffffffffffff167fddf252ad1be2c89b69c2b068fc378daa952ba7f163c4a11628f55a4df523b3ef83604051610e08919061123c565b60405180910390a3610e1c60008383610e25565b5050565b505050565b505050565b600081359050610e3981611664565b92915050565b600081359050610e4e8161167b565b92915050565b600060208284031215610e6a57610e696113fc565b5b6000610e7884828501610e2a565b91505092915050565b60008060408385031215610e9857610e976113fc565b5b6000610ea685828601610e2a565b9250506020610eb785828601610e2a565b9150509250929050565b600080600060608486031215610eda57610ed96113fc565b5b6000610ee886828701610e2a565b9350506020610ef986828701610e2a565b9250506040610f0a86828701610e3f565b9150509250925092565b60008060408385031215610f2b57610f2a6113fc565b5b6000610f3985828601610e2a565b9250506020610f4a85828601610e3f565b9150509250929050565b600060208284031215610f6a57610f696113fc565b5b6000610f7884828501610e3f565b91505092915050565b610f8a816112f6565b82525050565b6000610f9b82611272565b610fa5818561127d565b9350610fb5818560208601611339565b610fbe81611401565b840191505092915050565b6000610fd660238361127d565b9150610fe182611412565b604082019050919050565b6000610ff960228361127d565b915061100482611461565b604082019050919050565b600061101c60268361127d565b9150611027826114b0565b604082019050919050565b600061103f60288361127d565b915061104a826114ff565b604082019050919050565b600061106260258361127d565b915061106d8261154e565b604082019050919050565b600061108560248361127d565b91506110908261159d565b604082019050919050565b60006110a860258361127d565b91506110b3826115ec565b604082019050919050565b60006110cb601f8361127d565b91506110d68261163b565b602082019050919050565b6110ea81611322565b82525050565b6110f98161132c565b82525050565b60006020820190506111146000830184610f81565b92915050565b600060208201905081810360008301526111348184610f90565b905092915050565b6000602082019050818103600083015261115581610fc9565b9050919050565b6000602082019050818103600083015261117581610fec565b9050919050565b600060208201905081810360008301526111958161100f565b9050919050565b600060208201905081810360008301526111b581611032565b9050919050565b600060208201905081810360008301526111d581611055565b9050919050565b600060208201905081810360008301526111f581611078565b9050919050565b600060208201905081810360008301526112158161109b565b9050919050565b60006020820190508181036000830152611235816110be565b9050919050565b600060208201905061125160008301846110e1565b92915050565b600060208201905061126c60008301846110f0565b92915050565b600081519050919050565b600082825260208201905092915050565b600061129982611322565b91506112a483611322565b9250827fffffffffffffffffffffffffffffffffffffffffffffffffffffffffffffffff038211156112d9576112d861139e565b5b828201905092915050565b60006112ef82611302565b9050919050565b60008115159050919050565b600073ffffffffffffffffffffffffffffffffffffffff82169050919050565b6000819050919050565b600060ff82169050919050565b60005b8381101561135757808201518184015260208101905061133c565b83811115611366576000848401525b50505050565b6000600282049050600182168061138457607f821691505b60208210811415611398576113976113cd565b5b50919050565b7f4e487b7100000000000000000000000000000000000000000000000000000000600052601160045260246000fd5b7f4e487b7100000000000000000000000000000000000000000000000000000000600052602260045260246000fd5b600080fd5b6000601f19601f8301169050919050565b7f45524332303a207472616e7366657220746f20746865207a65726f206164647260008201527f6573730000000000000000000000000000000000000000000000000000000000602082015250565b7f45524332303a20617070726f766520746f20746865207a65726f20616464726560008201527f7373000000000000000000000000000000000000000000000000000000000000602082015250565b7f45524332303a207472616e7366657220616d6f756e742065786365656473206260008201527f616c616e63650000000000000000000000000000000000000000000000000000602082015250565b7f45524332303a207472616e7366657220616d6f756e742065786365656473206160008201527f6c6c6f77616e6365000000000000000000000000000000000000000000000000602082015250565b7f45524332303a207472616e736665722066726f6d20746865207a65726f20616460008201527f6472657373000000000000000000000000000000000000000000000000000000602082015250565b7f45524332303a20617070726f76652066726f6d20746865207a65726f2061646460008201527f7265737300000000000000000000000000000000000000000000000000000000602082015250565b7f45524332303a2064656372656173656420616c6c6f77616e63652062656c6f7760008201527f207a65726f000000000000000000000000000000000000000000000000000000602082015250565b7f45524332303a206d696e7420746f20746865207a65726f206164647265737300600082015250565b61166d816112e4565b811461167857600080fd5b50565b61168481611322565b811461168f57600080fd5b5056fea26469706673582212200eaccd4a1be0848e6e9357e2e8a4037c9323e40e88bc744781242ac84c03270d64736f6c63430008070033",
  "immutableReferences": {},
  "source": "// SPDX-License-Identifier: MIT\r\npragma solidity 0.8.7;\r\n\r\nimport \"@openzeppelin/contracts/metatx/ERC2771Context.sol\";\r\nimport \"@openzeppelin/contracts/token/ERC20/ERC20.sol\";\r\n\r\ncontract ChiralToken is ERC2771Context, ERC20 {\r\n    mapping(address => uint256) balances;\r\n\r\n    function _msgSender()\r\n        internal\r\n        view\r\n        override(Context, ERC2771Context)\r\n        returns (address sender)\r\n    {\r\n        sender = ERC2771Context._msgSender();\r\n    }\r\n\r\n    function _msgData()\r\n        internal\r\n        view\r\n        override(Context, ERC2771Context)\r\n        returns (bytes calldata)\r\n    {\r\n        return ERC2771Context._msgData();\r\n    }\r\n\r\n    constructor(address _forwarder, uint256 amount)\r\n        ERC2771Context(_forwarder)\r\n        ERC20(\"ChiralToken\", \"CLT\")\r\n    {\r\n        _mint(_msgSender(), amount);\r\n    }\r\n\r\n    /**\r\n     * mint some coins for this caller.\r\n     * (in a real-life application, minting is protected for admin, or by other mechanism.\r\n     * but for our sample, any user can mint some coins\r\n     */\r\n\r\n    function mint(uint256 amount) public {\r\n        _mint(_msgSender(), amount);\r\n    }\r\n}\r\n",
  "sourcePath": "C:\\Users\\pohsa_oc6mcgn\\Documents\\GitHub\\Chiral\\contracts\\ChiralToken.sol",
  "compiler": {
    "name": "solc",
    "version": "0.8.7+commit.e28d00a7.Emscripten.clang"
  },
  "schemaVersion": "3.4.1",
  "updatedAt": "2021-09-22T09:13:49.378Z",
  "networkType": "ethereum",
  "devdoc": {
    "kind": "dev",
    "methods": {
      "allowance(address,address)": {
        "details": "See {IERC20-allowance}."
      },
      "approve(address,uint256)": {
        "details": "See {IERC20-approve}. Requirements: - `spender` cannot be the zero address."
      },
      "balanceOf(address)": {
        "details": "See {IERC20-balanceOf}."
      },
      "decimals()": {
        "details": "Returns the number of decimals used to get its user representation. For example, if `decimals` equals `2`, a balance of `505` tokens should be displayed to a user as `5.05` (`505 / 10 ** 2`). Tokens usually opt for a value of 18, imitating the relationship between Ether and Wei. This is the value {ERC20} uses, unless this function is overridden; NOTE: This information is only used for _display_ purposes: it in no way affects any of the arithmetic of the contract, including {IERC20-balanceOf} and {IERC20-transfer}."
      },
      "decreaseAllowance(address,uint256)": {
        "details": "Atomically decreases the allowance granted to `spender` by the caller. This is an alternative to {approve} that can be used as a mitigation for problems described in {IERC20-approve}. Emits an {Approval} event indicating the updated allowance. Requirements: - `spender` cannot be the zero address. - `spender` must have allowance for the caller of at least `subtractedValue`."
      },
      "increaseAllowance(address,uint256)": {
        "details": "Atomically increases the allowance granted to `spender` by the caller. This is an alternative to {approve} that can be used as a mitigation for problems described in {IERC20-approve}. Emits an {Approval} event indicating the updated allowance. Requirements: - `spender` cannot be the zero address."
      },
      "name()": {
        "details": "Returns the name of the token."
      },
      "symbol()": {
        "details": "Returns the symbol of the token, usually a shorter version of the name."
      },
      "totalSupply()": {
        "details": "See {IERC20-totalSupply}."
      },
      "transfer(address,uint256)": {
        "details": "See {IERC20-transfer}. Requirements: - `recipient` cannot be the zero address. - the caller must have a balance of at least `amount`."
      },
      "transferFrom(address,address,uint256)": {
        "details": "See {IERC20-transferFrom}. Emits an {Approval} event indicating the updated allowance. This is not required by the EIP. See the note at the beginning of {ERC20}. Requirements: - `sender` and `recipient` cannot be the zero address. - `sender` must have a balance of at least `amount`. - the caller must have allowance for ``sender``'s tokens of at least `amount`."
      }
    },
    "version": 1
  },
  "userdoc": {
    "kind": "user",
    "methods": {
      "mint(uint256)": {
        "notice": "mint some coins for this caller. (in a real-life application, minting is protected for admin, or by other mechanism. but for our sample, any user can mint some coins"
      }
    },
    "version": 1
  }
}