{
  "contractName": "ChiralToken",
  "abi": [
    {
      "inputs": [
        {
          "internalType": "address",
          "name": "_forwarder",
          "type": "address"
        }
      ],
      "stateMutability": "nonpayable",
      "type": "constructor"
    },
    {
      "anonymous": false,
      "inputs": [
        {
          "indexed": true,
          "internalType": "address",
          "name": "_from",
          "type": "address"
        },
        {
          "indexed": true,
          "internalType": "address",
          "name": "_to",
          "type": "address"
        },
        {
          "indexed": false,
          "internalType": "uint256",
          "name": "_value",
          "type": "uint256"
        }
      ],
      "name": "Transfer",
      "type": "event"
    },
    {
      "inputs": [],
      "name": "decimals",
      "outputs": [
        {
          "internalType": "uint256",
          "name": "",
          "type": "uint256"
        }
      ],
      "stateMutability": "view",
      "type": "function",
      "constant": true
    },
    {
      "inputs": [],
      "name": "description",
      "outputs": [
        {
          "internalType": "string",
          "name": "",
          "type": "string"
        }
      ],
      "stateMutability": "view",
      "type": "function",
      "constant": true
    },
    {
      "inputs": [
        {
          "internalType": "address",
          "name": "forwarder",
          "type": "address"
        }
      ],
      "name": "isTrustedForwarder",
      "outputs": [
        {
          "internalType": "bool",
          "name": "",
          "type": "bool"
        }
      ],
      "stateMutability": "view",
      "type": "function",
      "constant": true
    },
    {
      "inputs": [],
      "name": "symbol",
      "outputs": [
        {
          "internalType": "string",
          "name": "",
          "type": "string"
        }
      ],
      "stateMutability": "view",
      "type": "function",
      "constant": true
    },
    {
      "inputs": [
        {
          "internalType": "address",
          "name": "sender",
          "type": "address"
        },
        {
          "internalType": "address",
          "name": "receiver",
          "type": "address"
        },
        {
          "internalType": "uint256",
          "name": "amount",
          "type": "uint256"
        }
      ],
      "name": "transferFrom",
      "outputs": [
        {
          "internalType": "bool",
          "name": "sufficient",
          "type": "bool"
        }
      ],
      "stateMutability": "nonpayable",
      "type": "function"
    },
    {
      "inputs": [
        {
          "internalType": "address",
          "name": "addr",
          "type": "address"
        }
      ],
      "name": "balanceOf",
      "outputs": [
        {
          "internalType": "uint256",
          "name": "",
          "type": "uint256"
        }
      ],
      "stateMutability": "view",
      "type": "function",
      "constant": true
    },
    {
      "inputs": [
        {
          "internalType": "uint256",
          "name": "amount",
          "type": "uint256"
        }
      ],
      "name": "mint",
      "outputs": [],
      "stateMutability": "nonpayable",
      "type": "function"
    }
  ],
  "bytecode": "0x60a06040526040518060400160405280600381526020017f434c4e0000000000000000000000000000000000000000000000000000000000815250600090805190602001906200005192919062000118565b506040518060400160405280600c81526020017f43686972616c20546f6b656e0000000000000000000000000000000000000000815250600190805190602001906200009f92919062000118565b506000600255348015620000b257600080fd5b5060405162000bd138038062000bd18339818101604052810190620000d89190620001df565b808073ffffffffffffffffffffffffffffffffffffffff1660808173ffffffffffffffffffffffffffffffffffffffff1660601b815250505050620002be565b82805462000126906200023f565b90600052602060002090601f0160209004810192826200014a576000855562000196565b82601f106200016557805160ff191683800117855562000196565b8280016001018555821562000196579182015b828111156200019557825182559160200191906001019062000178565b5b509050620001a59190620001a9565b5090565b5b80821115620001c4576000816000905550600101620001aa565b5090565b600081519050620001d981620002a4565b92915050565b600060208284031215620001f257600080fd5b60006200020284828501620001c8565b91505092915050565b600062000218826200021f565b9050919050565b600073ffffffffffffffffffffffffffffffffffffffff82169050919050565b600060028204905060018216806200025857607f821691505b602082108114156200026f576200026e62000275565b5b50919050565b7f4e487b7100000000000000000000000000000000000000000000000000000000600052602260045260246000fd5b620002af816200020b565b8114620002bb57600080fd5b50565b60805160601c6108f4620002dd600039600061030101526108f46000f3fe608060405234801561001057600080fd5b506004361061007d5760003560e01c806370a082311161005b57806370a08231146101005780637284e4161461013057806395d89b411461014e578063a0712d681461016c5761007d565b806323b872dd14610082578063313ce567146100b2578063572b6c05146100d0575b600080fd5b61009c600480360381019061009791906105a7565b610188565b6040516100a99190610676565b60405180910390f35b6100ba6102f7565b6040516100c791906106b3565b60405180910390f35b6100ea60048036038101906100e5919061057e565b6102fd565b6040516100f79190610676565b60405180910390f35b61011a6004803603810190610115919061057e565b610355565b60405161012791906106b3565b60405180910390f35b61013861039e565b6040516101459190610691565b60405180910390f35b61015661042c565b6040516101639190610691565b60405180910390f35b610186600480360381019061018191906105f6565b6104ba565b005b600081600360008673ffffffffffffffffffffffffffffffffffffffff1673ffffffffffffffffffffffffffffffffffffffff1681526020019081526020016000205410156101da57600090506102f0565b81600360008673ffffffffffffffffffffffffffffffffffffffff1673ffffffffffffffffffffffffffffffffffffffff16815260200190815260200160002060008282546102299190610740565b9250508190555081600360008573ffffffffffffffffffffffffffffffffffffffff1673ffffffffffffffffffffffffffffffffffffffff168152602001908152602001600020600082825461027f91906106ea565b925050819055508273ffffffffffffffffffffffffffffffffffffffff168473ffffffffffffffffffffffffffffffffffffffff167fddf252ad1be2c89b69c2b068fc378daa952ba7f163c4a11628f55a4df523b3ef846040516102e391906106b3565b60405180910390a3600190505b9392505050565b60025481565b60007f000000000000000000000000000000000000000000000000000000000000000073ffffffffffffffffffffffffffffffffffffffff168273ffffffffffffffffffffffffffffffffffffffff16149050919050565b6000600360008373ffffffffffffffffffffffffffffffffffffffff1673ffffffffffffffffffffffffffffffffffffffff168152602001908152602001600020549050919050565b600180546103ab906107ef565b80601f01602080910402602001604051908101604052809291908181526020018280546103d7906107ef565b80156104245780601f106103f957610100808354040283529160200191610424565b820191906000526020600020905b81548152906001019060200180831161040757829003601f168201915b505050505081565b60008054610439906107ef565b80601f0160208091040260200160405190810160405280929190818152602001828054610465906107ef565b80156104b25780601f10610487576101008083540402835291602001916104b2565b820191906000526020600020905b81548152906001019060200180831161049557829003601f168201915b505050505081565b80600360006104c761051a565b73ffffffffffffffffffffffffffffffffffffffff1673ffffffffffffffffffffffffffffffffffffffff168152602001908152602001600020600082825461051091906106ea565b9250508190555050565b6000610525336102fd565b1561053957601436033560601c9050610548565b61054161054c565b9050610549565b5b90565b600033905090565b60008135905061056381610890565b92915050565b600081359050610578816108a7565b92915050565b60006020828403121561059057600080fd5b600061059e84828501610554565b91505092915050565b6000806000606084860312156105bc57600080fd5b60006105ca86828701610554565b93505060206105db86828701610554565b92505060406105ec86828701610569565b9150509250925092565b60006020828403121561060857600080fd5b600061061684828501610569565b91505092915050565b61062881610786565b82525050565b6000610639826106ce565b61064381856106d9565b93506106538185602086016107bc565b61065c8161087f565b840191505092915050565b610670816107b2565b82525050565b600060208201905061068b600083018461061f565b92915050565b600060208201905081810360008301526106ab818461062e565b905092915050565b60006020820190506106c86000830184610667565b92915050565b600081519050919050565b600082825260208201905092915050565b60006106f5826107b2565b9150610700836107b2565b9250827fffffffffffffffffffffffffffffffffffffffffffffffffffffffffffffffff0382111561073557610734610821565b5b828201905092915050565b600061074b826107b2565b9150610756836107b2565b92508282101561076957610768610821565b5b828203905092915050565b600061077f82610792565b9050919050565b60008115159050919050565b600073ffffffffffffffffffffffffffffffffffffffff82169050919050565b6000819050919050565b60005b838110156107da5780820151818401526020810190506107bf565b838111156107e9576000848401525b50505050565b6000600282049050600182168061080757607f821691505b6020821081141561081b5761081a610850565b5b50919050565b7f4e487b7100000000000000000000000000000000000000000000000000000000600052601160045260246000fd5b7f4e487b7100000000000000000000000000000000000000000000000000000000600052602260045260246000fd5b6000601f19601f8301169050919050565b61089981610774565b81146108a457600080fd5b50565b6108b0816107b2565b81146108bb57600080fd5b5056fea264697066735822122093ce258e37fc347daf6db649b6731ffb95c82e4f0bf8aceac3b6deddef2c512464736f6c63430008040033",
  "immutableReferences": {
    "810": [
      {
        "length": 32,
        "start": 769
      }
    ]
  },
  "source": "// SPDX-License-Identifier: MIT\r\npragma solidity 0.8.4;\r\n\r\nimport \"@openzeppelin/contracts/metatx/ERC2771Context.sol\";\r\n\r\n// This is just a simple example of a coin-like contract.\r\n// It is not standards compatible and cannot be expected to talk to other\r\n// coin/token contracts. If you want to create a standards-compliant\r\n// token, see: https://github.com/ConsenSys/Tokens. Cheers!\r\n\r\ncontract ChiralToken is ERC2771Context {\r\n    string public symbol = \"CLN\";\r\n    string public description = \"Chiral Token\";\r\n    uint256 public decimals = 0;\r\n\r\n    mapping(address => uint256) balances;\r\n\r\n    event Transfer(address indexed _from, address indexed _to, uint256 _value);\r\n\r\n    constructor(address _forwarder) ERC2771Context(_forwarder) {}\r\n\r\n    function transferFrom(\r\n        address sender,\r\n        address receiver,\r\n        uint256 amount\r\n    ) public returns (bool sufficient) {\r\n        if (balances[sender] < amount) return false;\r\n        balances[sender] -= amount;\r\n        balances[receiver] += amount;\r\n        emit Transfer(sender, receiver, amount);\r\n        return true;\r\n    }\r\n\r\n    function balanceOf(address addr) public view returns (uint256) {\r\n        return balances[addr];\r\n    }\r\n\r\n    /**\r\n     * mint some coins for this caller.\r\n     * (in a real-life application, minting is protected for admin, or by other mechanism.\r\n     * but for our sample, any user can mint some coins - but just once..\r\n     */\r\n    function mint(uint256 amount) public {\r\n        balances[_msgSender()] += amount;\r\n    }\r\n}\r\n",
  "sourcePath": "C:\\Users\\pohsa\\Desktop\\Chiral\\contracts\\ChiralToken.sol",
  "compiler": {
    "name": "solc",
    "version": "0.8.4+commit.c7e474f2.Emscripten.clang"
  },
  "schemaVersion": "3.4.1",
  "updatedAt": "2021-07-07T14:05:45.791Z",
  "networkType": "ethereum",
  "devdoc": {
    "kind": "dev",
    "methods": {},
    "version": 1
  },
  "userdoc": {
    "kind": "user",
    "methods": {
      "mint(uint256)": {
        "notice": "mint some coins for this caller. (in a real-life application, minting is protected for admin, or by other mechanism. but for our sample, any user can mint some coins - but just once.."
      }
    },
    "version": 1
  }
}