{
  "contractName": "Crowdsale",
  "abi": [
    {
      "inputs": [
        {
          "internalType": "uint256",
          "name": "newrate",
          "type": "uint256"
        },
        {
          "internalType": "address payable",
          "name": "newwallet",
          "type": "address"
        },
        {
          "internalType": "contract IERC20",
          "name": "newtoken",
          "type": "address"
        },
        {
          "internalType": "address",
          "name": "_forwarder",
          "type": "address"
        }
      ],
      "stateMutability": "nonpayable",
      "type": "constructor"
    },
    {
      "anonymous": false,
      "inputs": [
        {
          "indexed": true,
          "internalType": "address",
          "name": "purchaser",
          "type": "address"
        },
        {
          "indexed": true,
          "internalType": "address",
          "name": "beneficiary",
          "type": "address"
        },
        {
          "indexed": false,
          "internalType": "uint256",
          "name": "value",
          "type": "uint256"
        },
        {
          "indexed": false,
          "internalType": "uint256",
          "name": "amount",
          "type": "uint256"
        }
      ],
      "name": "TokensPurchased",
      "type": "event"
    },
    {
      "inputs": [
        {
          "internalType": "address",
          "name": "forwarder",
          "type": "address"
        }
      ],
      "name": "isTrustedForwarder",
      "outputs": [
        {
          "internalType": "bool",
          "name": "",
          "type": "bool"
        }
      ],
      "stateMutability": "view",
      "type": "function",
      "constant": true
    },
    {
      "stateMutability": "payable",
      "type": "receive",
      "payable": true
    },
    {
      "inputs": [],
      "name": "token",
      "outputs": [
        {
          "internalType": "contract IERC20",
          "name": "",
          "type": "address"
        }
      ],
      "stateMutability": "view",
      "type": "function",
      "constant": true
    },
    {
      "inputs": [],
      "name": "wallet",
      "outputs": [
        {
          "internalType": "address payable",
          "name": "",
          "type": "address"
        }
      ],
      "stateMutability": "view",
      "type": "function",
      "constant": true
    },
    {
      "inputs": [],
      "name": "rate",
      "outputs": [
        {
          "internalType": "uint256",
          "name": "",
          "type": "uint256"
        }
      ],
      "stateMutability": "view",
      "type": "function",
      "constant": true
    },
    {
      "inputs": [],
      "name": "weiRaised",
      "outputs": [
        {
          "internalType": "uint256",
          "name": "",
          "type": "uint256"
        }
      ],
      "stateMutability": "view",
      "type": "function",
      "constant": true
    },
    {
      "inputs": [
        {
          "internalType": "address",
          "name": "beneficiary",
          "type": "address"
        },
        {
          "internalType": "uint256",
          "name": "amount",
          "type": "uint256"
        }
      ],
      "name": "buyTokens",
      "outputs": [],
      "stateMutability": "payable",
      "type": "function",
      "payable": true
    }
  ],
  "bytecode": "0x60a06040523480156200001157600080fd5b50604051620015ac380380620015ac833981810160405281019062000037919062000293565b808073ffffffffffffffffffffffffffffffffffffffff1660808173ffffffffffffffffffffffffffffffffffffffff1660601b8152505050600160008190555060008411620000be576040517f08c379a0000000000000000000000000000000000000000000000000000000008152600401620000b59062000396565b60405180910390fd5b600073ffffffffffffffffffffffffffffffffffffffff168373ffffffffffffffffffffffffffffffffffffffff16141562000131576040517f08c379a00000000000000000000000000000000000000000000000000000000081526004016200012890620003b8565b60405180910390fd5b600073ffffffffffffffffffffffffffffffffffffffff168273ffffffffffffffffffffffffffffffffffffffff161415620001a4576040517f08c379a00000000000000000000000000000000000000000000000000000000081526004016200019b9062000374565b60405180910390fd5b8360038190555082600260006101000a81548173ffffffffffffffffffffffffffffffffffffffff021916908373ffffffffffffffffffffffffffffffffffffffff16021790555081600160006101000a81548173ffffffffffffffffffffffffffffffffffffffff021916908373ffffffffffffffffffffffffffffffffffffffff1602179055505050505062000580565b600081519050620002488162000518565b92915050565b6000815190506200025f8162000532565b92915050565b60008151905062000276816200054c565b92915050565b6000815190506200028d8162000566565b92915050565b60008060008060808587031215620002aa57600080fd5b6000620002ba878288016200027c565b9450506020620002cd878288016200024e565b9350506040620002e08782880162000265565b9250506060620002f38782880162000237565b91505092959194509250565b60006200030e602483620003da565b91506200031b8262000451565b604082019050919050565b600062000335601483620003da565b91506200034282620004a0565b602082019050919050565b60006200035c602583620003da565b91506200036982620004c9565b604082019050919050565b600060208201905081810360008301526200038f81620002ff565b9050919050565b60006020820190508181036000830152620003b18162000326565b9050919050565b60006020820190508181036000830152620003d3816200034d565b9050919050565b600082825260208201905092915050565b6000620003f88262000427565b9050919050565b60006200040c8262000427565b9050919050565b60006200042082620003eb565b9050919050565b600073ffffffffffffffffffffffffffffffffffffffff82169050919050565b6000819050919050565b7f43726f776473616c653a20746f6b656e20697320746865207a65726f2061646460008201527f7265737300000000000000000000000000000000000000000000000000000000602082015250565b7f43726f776473616c653a20726174652069732030000000000000000000000000600082015250565b7f43726f776473616c653a2077616c6c657420697320746865207a65726f20616460008201527f6472657373000000000000000000000000000000000000000000000000000000602082015250565b6200052381620003eb565b81146200052f57600080fd5b50565b6200053d81620003ff565b81146200054957600080fd5b50565b620005578162000413565b81146200056357600080fd5b50565b620005718162000447565b81146200057d57600080fd5b50565b60805160601c61100d6200059f60003960006102cd015261100d6000f3fe6080604052600436106100595760003560e01c80630752881a146100655780632c4e722e146100815780634042b66f146100ac578063521eb273146100d7578063572b6c0514610102578063fc0c546a1461013f57610060565b3661006057005b600080fd5b61007f600480360381019061007a91906108b4565b61016a565b005b34801561008d57600080fd5b5061009661028b565b6040516100a39190610c13565b60405180910390f35b3480156100b857600080fd5b506100c1610295565b6040516100ce9190610c13565b60405180910390f35b3480156100e357600080fd5b506100ec61029f565b6040516100f99190610ab7565b60405180910390f35b34801561010e57600080fd5b506101296004803603810190610124919061088b565b6102c9565b6040516101369190610afb565b60405180910390f35b34801561014b57600080fd5b50610154610321565b6040516101619190610b16565b60405180910390f35b600260005414156101b0576040517f08c379a00000000000000000000000000000000000000000000000000000000081526004016101a790610bd3565b60405180910390fd5b60026000819055506101c2828261034b565b60006101cd82610403565b90506101e48260045461042190919063ffffffff16565b6004819055506101f48382610437565b8273ffffffffffffffffffffffffffffffffffffffff16610213610445565b73ffffffffffffffffffffffffffffffffffffffff167f6faf93231a456e552dbc9961f58d9713ee4f2e69d15f1975b050ef0911053a7b848460405161025a929190610c2e565b60405180910390a361026c8383610477565b61027461047b565b61027e83836104e6565b5060016000819055505050565b6000600354905090565b6000600454905090565b6000600260009054906101000a900473ffffffffffffffffffffffffffffffffffffffff16905090565b60007f000000000000000000000000000000000000000000000000000000000000000073ffffffffffffffffffffffffffffffffffffffff168273ffffffffffffffffffffffffffffffffffffffff16149050919050565b6000600160009054906101000a900473ffffffffffffffffffffffffffffffffffffffff16905090565b600073ffffffffffffffffffffffffffffffffffffffff168273ffffffffffffffffffffffffffffffffffffffff1614156103bb576040517f08c379a00000000000000000000000000000000000000000000000000000000081526004016103b290610b73565b60405180910390fd5b60008114156103ff576040517f08c379a00000000000000000000000000000000000000000000000000000000081526004016103f690610bf3565b60405180910390fd5b5050565b600061041a600354836104ea90919063ffffffff16565b9050919050565b6000818361042f9190610c89565b905092915050565b6104418282610500565b5050565b6000610450336102c9565b1561046457601436033560601c9050610473565b61046c610551565b9050610474565b5b90565b5050565b600260009054906101000a900473ffffffffffffffffffffffffffffffffffffffff1673ffffffffffffffffffffffffffffffffffffffff166108fc349081150290604051600060405180830381858888f193505050501580156104e3573d6000803e3d6000fd5b50565b5050565b600081836104f89190610cdf565b905092915050565b61054d8282600160009054906101000a900473ffffffffffffffffffffffffffffffffffffffff1673ffffffffffffffffffffffffffffffffffffffff166105599092919063ffffffff16565b5050565b600033905090565b6105da8363a9059cbb60e01b8484604051602401610578929190610ad2565b604051602081830303815290604052907bffffffffffffffffffffffffffffffffffffffffffffffffffffffff19166020820180517bffffffffffffffffffffffffffffffffffffffffffffffffffffffff83818316178352505050506105df565b505050565b6000610641826040518060400160405280602081526020017f5361666545524332303a206c6f772d6c6576656c2063616c6c206661696c65648152508573ffffffffffffffffffffffffffffffffffffffff166106a69092919063ffffffff16565b90506000815111156106a1578080602001905181019061066191906108f0565b6106a0576040517f08c379a000000000000000000000000000000000000000000000000000000000815260040161069790610bb3565b60405180910390fd5b5b505050565b60606106b584846000856106be565b90509392505050565b606082471015610703576040517f08c379a00000000000000000000000000000000000000000000000000000000081526004016106fa90610b53565b60405180910390fd5b61070c856107d2565b61074b576040517f08c379a000000000000000000000000000000000000000000000000000000000815260040161074290610b93565b60405180910390fd5b6000808673ffffffffffffffffffffffffffffffffffffffff1685876040516107749190610aa0565b60006040518083038185875af1925050503d80600081146107b1576040519150601f19603f3d011682016040523d82523d6000602084013e6107b6565b606091505b50915091506107c68282866107e5565b92505050949350505050565b600080823b905060008111915050919050565b606083156107f557829050610845565b6000835111156108085782518084602001fd5b816040517f08c379a000000000000000000000000000000000000000000000000000000000815260040161083c9190610b31565b60405180910390fd5b9392505050565b60008135905061085b81610f92565b92915050565b60008151905061087081610fa9565b92915050565b60008135905061088581610fc0565b92915050565b60006020828403121561089d57600080fd5b60006108ab8482850161084c565b91505092915050565b600080604083850312156108c757600080fd5b60006108d58582860161084c565b92505060206108e685828601610876565b9150509250929050565b60006020828403121561090257600080fd5b600061091084828501610861565b91505092915050565b61092281610d4b565b82525050565b61093181610d39565b82525050565b61094081610d5d565b82525050565b600061095182610c57565b61095b8185610c6d565b935061096b818560208601610db7565b80840191505092915050565b61098081610d93565b82525050565b600061099182610c62565b61099b8185610c78565b93506109ab818560208601610db7565b6109b481610e19565b840191505092915050565b60006109cc602683610c78565b91506109d782610e2a565b604082019050919050565b60006109ef602a83610c78565b91506109fa82610e79565b604082019050919050565b6000610a12601d83610c78565b9150610a1d82610ec8565b602082019050919050565b6000610a35602a83610c78565b9150610a4082610ef1565b604082019050919050565b6000610a58601f83610c78565b9150610a6382610f40565b602082019050919050565b6000610a7b601983610c78565b9150610a8682610f69565b602082019050919050565b610a9a81610d89565b82525050565b6000610aac8284610946565b915081905092915050565b6000602082019050610acc6000830184610919565b92915050565b6000604082019050610ae76000830185610928565b610af46020830184610a91565b9392505050565b6000602082019050610b106000830184610937565b92915050565b6000602082019050610b2b6000830184610977565b92915050565b60006020820190508181036000830152610b4b8184610986565b905092915050565b60006020820190508181036000830152610b6c816109bf565b9050919050565b60006020820190508181036000830152610b8c816109e2565b9050919050565b60006020820190508181036000830152610bac81610a05565b9050919050565b60006020820190508181036000830152610bcc81610a28565b9050919050565b60006020820190508181036000830152610bec81610a4b565b9050919050565b60006020820190508181036000830152610c0c81610a6e565b9050919050565b6000602082019050610c286000830184610a91565b92915050565b6000604082019050610c436000830185610a91565b610c506020830184610a91565b9392505050565b600081519050919050565b600081519050919050565b600081905092915050565b600082825260208201905092915050565b6000610c9482610d89565b9150610c9f83610d89565b9250827fffffffffffffffffffffffffffffffffffffffffffffffffffffffffffffffff03821115610cd457610cd3610dea565b5b828201905092915050565b6000610cea82610d89565b9150610cf583610d89565b9250817fffffffffffffffffffffffffffffffffffffffffffffffffffffffffffffffff0483118215151615610d2e57610d2d610dea565b5b828202905092915050565b6000610d4482610d69565b9050919050565b6000610d5682610d69565b9050919050565b60008115159050919050565b600073ffffffffffffffffffffffffffffffffffffffff82169050919050565b6000819050919050565b6000610d9e82610da5565b9050919050565b6000610db082610d69565b9050919050565b60005b83811015610dd5578082015181840152602081019050610dba565b83811115610de4576000848401525b50505050565b7f4e487b7100000000000000000000000000000000000000000000000000000000600052601160045260246000fd5b6000601f19601f8301169050919050565b7f416464726573733a20696e73756666696369656e742062616c616e636520666f60008201527f722063616c6c0000000000000000000000000000000000000000000000000000602082015250565b7f43726f776473616c653a2062656e656669636961727920697320746865207a6560008201527f726f206164647265737300000000000000000000000000000000000000000000602082015250565b7f416464726573733a2063616c6c20746f206e6f6e2d636f6e7472616374000000600082015250565b7f5361666545524332303a204552433230206f7065726174696f6e20646964206e60008201527f6f74207375636365656400000000000000000000000000000000000000000000602082015250565b7f5265656e7472616e637947756172643a207265656e7472616e742063616c6c00600082015250565b7f43726f776473616c653a20776569416d6f756e74206973203000000000000000600082015250565b610f9b81610d39565b8114610fa657600080fd5b50565b610fb281610d5d565b8114610fbd57600080fd5b50565b610fc981610d89565b8114610fd457600080fd5b5056fea2646970667358221220afff606a0332c7ff09ff268ac21d11125c5f06d456f7ff84807f6225891e2ab064736f6c63430008040033",
  "immutableReferences": {
    "933": [
      {
        "length": 32,
        "start": 717
      }
    ]
  },
  "source": "// SPDX-License-Identifier: MIT\r\npragma solidity 0.8.4;\r\n\r\nimport \"@openzeppelin/contracts/token/ERC20/IERC20.sol\";\r\nimport \"@openzeppelin/contracts/utils/math/SafeMath.sol\";\r\nimport \"@openzeppelin/contracts/token/ERC20/utils/SafeERC20.sol\";\r\nimport \"@openzeppelin/contracts/security/ReentrancyGuard.sol\";\r\nimport \"@openzeppelin/contracts/metatx/ERC2771Context.sol\";\r\n\r\n/**\r\n * @title Crowdsale\r\n * @dev Crowdsale is a base contract for managing a token crowdsale,\r\n * allowing investors to purchase tokens with ether. This contract implements\r\n * such functionality in its most fundamental form and can be extended to provide additional\r\n * functionality and/or custom behavior.\r\n * The external interface represents the basic interface for purchasing tokens, and conforms\r\n * the base architecture for crowdsales. It is *not* intended to be modified / overridden.\r\n * The internal interface conforms the extensible and modifiable surface of crowdsales. Override\r\n * the methods to add functionality. Consider using 'super' where appropriate to concatenate\r\n * behavior.\r\n */\r\ncontract Crowdsale is ERC2771Context, ReentrancyGuard {\r\n    using SafeMath for uint256;\r\n    using SafeERC20 for IERC20;\r\n\r\n    // The token being sold\r\n    IERC20 private _token;\r\n\r\n    // Address where funds are collected\r\n    address payable private _wallet;\r\n\r\n    // How many token units a buyer gets per wei.\r\n    // The rate is the conversion between wei and the smallest and indivisible token unit.\r\n    // So, if you are using a rate of 1 with a ERC20Detailed token with 3 decimals called TOK\r\n    // 1 wei will give you 1 unit, or 0.001 TOK.\r\n    uint256 private _rate;\r\n\r\n    // Amount of wei raised\r\n    uint256 private _weiRaised;\r\n\r\n    /**\r\n     * Event for token purchase logging\r\n     * @param purchaser who paid for the tokens\r\n     * @param beneficiary who got the tokens\r\n     * @param value weis paid for purchase\r\n     * @param amount amount of tokens purchased\r\n     */\r\n    event TokensPurchased(\r\n        address indexed purchaser,\r\n        address indexed beneficiary,\r\n        uint256 value,\r\n        uint256 amount\r\n    );\r\n\r\n    constructor(\r\n        uint256 newrate,\r\n        address payable newwallet,\r\n        IERC20 newtoken,\r\n        address _forwarder\r\n    ) ERC2771Context(_forwarder) {\r\n        require(newrate > 0, \"Crowdsale: rate is 0\");\r\n        require(\r\n            newwallet != address(0),\r\n            \"Crowdsale: wallet is the zero address\"\r\n        );\r\n        require(\r\n            address(newtoken) != address(0),\r\n            \"Crowdsale: token is the zero address\"\r\n        );\r\n\r\n        _rate = newrate;\r\n        _wallet = newwallet;\r\n        _token = newtoken;\r\n    }\r\n\r\n    /**\r\n     * @dev fallback function ***DO NOT OVERRIDE***\r\n     * Note that other contracts will transfer funds with a base gas stipend\r\n     * of 2300, which is not enough to call buyTokens. Consider calling\r\n     * buyTokens directly when purchasing tokens from a contract.\r\n     */\r\n    receive() external payable {}\r\n\r\n    /**\r\n     * @return the token being sold.\r\n     */\r\n    function token() public view returns (IERC20) {\r\n        return _token;\r\n    }\r\n\r\n    /**\r\n     * @return the address where funds are collected.\r\n     */\r\n    function wallet() public view returns (address payable) {\r\n        return _wallet;\r\n    }\r\n\r\n    /**\r\n     * @return the number of token units a buyer gets per wei.\r\n     */\r\n    function rate() public view returns (uint256) {\r\n        return _rate;\r\n    }\r\n\r\n    /**\r\n     * @return the amount of wei raised.\r\n     */\r\n    function weiRaised() public view returns (uint256) {\r\n        return _weiRaised;\r\n    }\r\n\r\n    /**\r\n     * @dev low level token purchase ***DO NOT OVERRIDE***\r\n     * This function has a non-reentrancy guard, so it shouldn't be called by\r\n     * another `nonReentrant` function.\r\n     * @param beneficiary Recipient of the token purchase\r\n     */\r\n    function buyTokens(address beneficiary, uint256 amount)\r\n        public\r\n        payable\r\n        nonReentrant\r\n    {\r\n        _preValidatePurchase(beneficiary, amount);\r\n\r\n        // calculate token amount to be created\r\n        uint256 tokens = _getTokenAmount(amount);\r\n\r\n        // update state\r\n        _weiRaised = _weiRaised.add(amount);\r\n\r\n        _processPurchase(beneficiary, tokens);\r\n        emit TokensPurchased(_msgSender(), beneficiary, amount, tokens);\r\n\r\n        _updatePurchasingState(beneficiary, amount);\r\n\r\n        _forwardFunds();\r\n        _postValidatePurchase(beneficiary, amount);\r\n    }\r\n\r\n    /**\r\n     * @dev Validation of an incoming purchase. Use require statements to revert state when conditions are not met.\r\n     * Use `super` in contracts that inherit from Crowdsale to extend their validations.\r\n     * Example from CappedCrowdsale.sol's _preValidatePurchase method:\r\n     *     super._preValidatePurchase(beneficiary, weiAmount);\r\n     *     require(weiRaised().add(weiAmount) <= cap);\r\n     * @param beneficiary Address performing the token purchase\r\n     * @param weiAmount Value in wei involved in the purchase\r\n     */\r\n    function _preValidatePurchase(address beneficiary, uint256 weiAmount)\r\n        internal\r\n        view\r\n    {\r\n        require(\r\n            beneficiary != address(0),\r\n            \"Crowdsale: beneficiary is the zero address\"\r\n        );\r\n        require(weiAmount != 0, \"Crowdsale: weiAmount is 0\");\r\n        this; // silence state mutability warning without generating bytecode - see https://github.com/ethereum/solidity/issues/2691\r\n    }\r\n\r\n    /**\r\n     * @dev Validation of an executed purchase. Observe state and use revert statements to undo rollback when valid\r\n     * conditions are not met.\r\n     * @param beneficiary Address performing the token purchase\r\n     * @param weiAmount Value in wei involved in the purchase\r\n     */\r\n    function _postValidatePurchase(address beneficiary, uint256 weiAmount)\r\n        internal\r\n        view\r\n    {\r\n        // solhint-disable-previous-line no-empty-blocks\r\n    }\r\n\r\n    /**\r\n     * @dev Source of tokens. Override this method to modify the way in which the crowdsale ultimately gets and sends\r\n     * its tokens.\r\n     * @param beneficiary Address performing the token purchase\r\n     * @param tokenAmount Number of tokens to be emitted\r\n     */\r\n    function _deliverTokens(address beneficiary, uint256 tokenAmount) internal {\r\n        _token.safeTransfer(beneficiary, tokenAmount);\r\n    }\r\n\r\n    /**\r\n     * @dev Executed when a purchase has been validated and is ready to be executed. Doesn't necessarily emit/send\r\n     * tokens.\r\n     * @param beneficiary Address receiving the tokens\r\n     * @param tokenAmount Number of tokens to be purchased\r\n     */\r\n    function _processPurchase(address beneficiary, uint256 tokenAmount)\r\n        internal\r\n    {\r\n        _deliverTokens(beneficiary, tokenAmount);\r\n    }\r\n\r\n    /**\r\n     * @dev Override for extensions that require an internal state to check for validity (current user contributions,\r\n     * etc.)\r\n     * @param beneficiary Address receiving the tokens\r\n     * @param weiAmount Value in wei involved in the purchase\r\n     */\r\n    function _updatePurchasingState(address beneficiary, uint256 weiAmount)\r\n        internal\r\n    {\r\n        // solhint-disable-previous-line no-empty-blocks\r\n    }\r\n\r\n    /**\r\n     * @dev Override to extend the way in which ether is converted to tokens.\r\n     * @param weiAmount Value in wei to be converted into tokens\r\n     * @return Number of tokens that can be purchased with the specified _weiAmount\r\n     */\r\n    function _getTokenAmount(uint256 weiAmount)\r\n        internal\r\n        view\r\n        returns (uint256)\r\n    {\r\n        return weiAmount.mul(_rate);\r\n    }\r\n\r\n    /**\r\n     * @dev Determines how ETH is stored/forwarded on purchases.\r\n     */\r\n    function _forwardFunds() internal {\r\n        _wallet.transfer(msg.value);\r\n    }\r\n}\r\n",
  "sourcePath": "C:/Users/pohsa/Desktop/Chiral/contracts/Crowdsale.sol",
  "compiler": {
    "name": "solc",
    "version": "0.8.4+commit.c7e474f2.Emscripten.clang"
  },
  "schemaVersion": "3.4.1",
  "updatedAt": "2021-06-16T06:49:02.991Z",
  "networkType": "ethereum",
  "devdoc": {
    "details": "Crowdsale is a base contract for managing a token crowdsale, allowing investors to purchase tokens with ether. This contract implements such functionality in its most fundamental form and can be extended to provide additional functionality and/or custom behavior. The external interface represents the basic interface for purchasing tokens, and conforms the base architecture for crowdsales. It is *not* intended to be modified / overridden. The internal interface conforms the extensible and modifiable surface of crowdsales. Override the methods to add functionality. Consider using 'super' where appropriate to concatenate behavior.",
    "events": {
      "TokensPurchased(address,address,uint256,uint256)": {
        "params": {
          "amount": "amount of tokens purchased",
          "beneficiary": "who got the tokens",
          "purchaser": "who paid for the tokens",
          "value": "weis paid for purchase"
        }
      }
    },
    "kind": "dev",
    "methods": {
      "buyTokens(address,uint256)": {
        "details": "low level token purchase ***DO NOT OVERRIDE*** This function has a non-reentrancy guard, so it shouldn't be called by another `nonReentrant` function.",
        "params": {
          "beneficiary": "Recipient of the token purchase"
        }
      },
      "rate()": {
        "returns": {
          "_0": "the number of token units a buyer gets per wei."
        }
      },
      "token()": {
        "returns": {
          "_0": "the token being sold."
        }
      },
      "wallet()": {
        "returns": {
          "_0": "the address where funds are collected."
        }
      },
      "weiRaised()": {
        "returns": {
          "_0": "the amount of wei raised."
        }
      }
    },
    "title": "Crowdsale",
    "version": 1
  },
  "userdoc": {
    "events": {
      "TokensPurchased(address,address,uint256,uint256)": {
        "notice": "Event for token purchase logging"
      }
    },
    "kind": "user",
    "methods": {},
    "version": 1
  }
}