{
  "contractName": "RequestManager",
  "abi": [
    {
      "inputs": [
        {
          "internalType": "contract ChiralToken",
          "name": "newtoken",
          "type": "address"
        },
        {
          "internalType": "address",
          "name": "_forwarder",
          "type": "address"
        }
      ],
      "stateMutability": "nonpayable",
      "type": "constructor"
    },
    {
      "anonymous": false,
      "inputs": [
        {
          "indexed": true,
          "internalType": "address",
          "name": "pickupAddress",
          "type": "address"
        },
        {
          "indexed": true,
          "internalType": "address",
          "name": "deliveryAddress",
          "type": "address"
        },
        {
          "indexed": false,
          "internalType": "string",
          "name": "identifier",
          "type": "string"
        },
        {
          "indexed": false,
          "internalType": "uint256",
          "name": "index",
          "type": "uint256"
        },
        {
          "indexed": false,
          "internalType": "uint256",
          "name": "pickup_lat",
          "type": "uint256"
        },
        {
          "indexed": false,
          "internalType": "uint256",
          "name": "pickup_lng",
          "type": "uint256"
        },
        {
          "indexed": false,
          "internalType": "uint256",
          "name": "destination_lat",
          "type": "uint256"
        },
        {
          "indexed": false,
          "internalType": "uint256",
          "name": "destination_lng",
          "type": "uint256"
        },
        {
          "indexed": false,
          "internalType": "uint256",
          "name": "value",
          "type": "uint256"
        },
        {
          "indexed": false,
          "internalType": "uint256",
          "name": "fees",
          "type": "uint256"
        },
        {
          "indexed": true,
          "internalType": "uint256",
          "name": "_step",
          "type": "uint256"
        }
      ],
      "name": "DisplayStep",
      "type": "event"
    },
    {
      "inputs": [
        {
          "internalType": "address",
          "name": "forwarder",
          "type": "address"
        }
      ],
      "name": "isTrustedForwarder",
      "outputs": [
        {
          "internalType": "bool",
          "name": "",
          "type": "bool"
        }
      ],
      "stateMutability": "view",
      "type": "function",
      "constant": true
    },
    {
      "inputs": [
        {
          "internalType": "uint256",
          "name": "",
          "type": "uint256"
        }
      ],
      "name": "requests",
      "outputs": [
        {
          "internalType": "contract Request",
          "name": "request",
          "type": "address"
        },
        {
          "internalType": "enum RequestManager.SupplyChainSteps",
          "name": "step",
          "type": "uint8"
        },
        {
          "internalType": "string",
          "name": "identifier",
          "type": "string"
        },
        {
          "internalType": "address",
          "name": "pickupAddress",
          "type": "address"
        },
        {
          "internalType": "address",
          "name": "deliveryAddress",
          "type": "address"
        }
      ],
      "stateMutability": "view",
      "type": "function",
      "constant": true
    },
    {
      "inputs": [
        {
          "internalType": "string",
          "name": "identifier",
          "type": "string"
        },
        {
          "internalType": "uint256",
          "name": "pickup_lat",
          "type": "uint256"
        },
        {
          "internalType": "uint256",
          "name": "pickup_lng",
          "type": "uint256"
        },
        {
          "internalType": "uint256",
          "name": "destination_lat",
          "type": "uint256"
        },
        {
          "internalType": "uint256",
          "name": "destination_lng",
          "type": "uint256"
        },
        {
          "internalType": "uint256",
          "name": "value",
          "type": "uint256"
        },
        {
          "internalType": "uint256",
          "name": "fees",
          "type": "uint256"
        }
      ],
      "name": "createRequest",
      "outputs": [],
      "stateMutability": "nonpayable",
      "type": "function"
    },
    {
      "inputs": [
        {
          "internalType": "uint256",
          "name": "_index",
          "type": "uint256"
        }
      ],
      "name": "triggerAccepted",
      "outputs": [],
      "stateMutability": "nonpayable",
      "type": "function"
    },
    {
      "inputs": [
        {
          "internalType": "uint256",
          "name": "_index",
          "type": "uint256"
        }
      ],
      "name": "triggerDelivery",
      "outputs": [],
      "stateMutability": "nonpayable",
      "type": "function"
    },
    {
      "inputs": [
        {
          "internalType": "uint256",
          "name": "_index",
          "type": "uint256"
        }
      ],
      "name": "triggerReceive",
      "outputs": [],
      "stateMutability": "nonpayable",
      "type": "function"
    }
  ],
  "bytecode": "0x60a06040523480156200001157600080fd5b506040516200367a3803806200367a8339818101604052810190620000379190620000e6565b808073ffffffffffffffffffffffffffffffffffffffff1660808173ffffffffffffffffffffffffffffffffffffffff1660601b8152505050816000806101000a81548173ffffffffffffffffffffffffffffffffffffffff021916908373ffffffffffffffffffffffffffffffffffffffff1602179055505050620001a3565b600081519050620000c9816200016f565b92915050565b600081519050620000e08162000189565b92915050565b60008060408385031215620000fa57600080fd5b60006200010a85828601620000cf565b92505060206200011d85828601620000b8565b9150509250929050565b600062000134826200014f565b9050919050565b6000620001488262000127565b9050919050565b600073ffffffffffffffffffffffffffffffffffffffff82169050919050565b6200017a8162000127565b81146200018657600080fd5b50565b62000194816200013b565b8114620001a057600080fd5b50565b60805160601c6134b8620001c2600039600061064501526134b86000f3fe60806040523480156200001157600080fd5b50600436106200006a5760003560e01c806313bb7bb8146200006f578063572b6c05146200008f57806367c0cef914620000c557806381d12c5814620000e5578063baaaecfe146200011f578063cd31831e146200013f575b600080fd5b6200008d600480360381019062000087919062002241565b6200015f565b005b620000ad6004803603810190620000a79190620021e9565b62000641565b604051620000bc919062002635565b60405180910390f35b620000e36004803603810190620000dd919062002307565b62000699565b005b620001036004803603810190620000fd919062002307565b6200103d565b60405162000116959493929190620026f1565b60405180910390f35b6200013d600480360381019062000137919062002307565b62001170565b005b6200015d600480360381019062000157919062002307565b62001993565b005b8060008054906101000a900473ffffffffffffffffffffffffffffffffffffffff1673ffffffffffffffffffffffffffffffffffffffff166370a08231620001a66200201c565b6040518263ffffffff1660e01b8152600401620001c49190620025db565b60206040518083038186803b158015620001dd57600080fd5b505afa158015620001f2573d6000803e3d6000fd5b505050506040513d601f19601f8201168201806040525081019062000218919062002333565b116200025b576040517f08c379a00000000000000000000000000000000000000000000000000000000081526004016200025290620028a1565b60405180910390fd5b60003060008054906101000a900473ffffffffffffffffffffffffffffffffffffffff1688888888888860025460405162000296906200205d565b620002aa9998979695949392919062002652565b604051809103906000f080158015620002c7573d6000803e3d6000fd5b5090508060016000600254815260200190815260200160002060000160006101000a81548173ffffffffffffffffffffffffffffffffffffffff021916908373ffffffffffffffffffffffffffffffffffffffff160217905550600060016000600254815260200190815260200160002060000160146101000a81548160ff0219169083600381111562000384577f4e487b7100000000000000000000000000000000000000000000000000000000600052602160045260246000fd5b0217905550876001600060025481526020019081526020016000206001019080519060200190620003b79291906200206b565b5060008054906101000a900473ffffffffffffffffffffffffffffffffffffffff1673ffffffffffffffffffffffffffffffffffffffff166323b872dd620003fe6200201c565b83856040518463ffffffff1660e01b81526004016200042093929190620025f8565b602060405180830381600087803b1580156200043b57600080fd5b505af115801562000450573d6000803e3d6000fd5b505050506040513d601f19601f8201168201806040525081019062000476919062002215565b50620004816200201c565b60016000600254815260200190815260200160002060020160006101000a81548173ffffffffffffffffffffffffffffffffffffffff021916908373ffffffffffffffffffffffffffffffffffffffff16021790555060016000600254815260200190815260200160002060000160149054906101000a900460ff16600381111562000536577f4e487b7100000000000000000000000000000000000000000000000000000000600052602160045260246000fd5b60016000600254815260200190815260200160002060030160009054906101000a900473ffffffffffffffffffffffffffffffffffffffff1673ffffffffffffffffffffffffffffffffffffffff1660016000600254815260200190815260200160002060020160009054906101000a900473ffffffffffffffffffffffffffffffffffffffff1673ffffffffffffffffffffffffffffffffffffffff167f45d0aa64feeab6eca8bef30c040bea86add68665a07ca845f9fb2771f4b71c878b6002548c8c8c8c8c8c6040516200061598979695949392919062002755565b60405180910390a460026000815480929190620006329062002bbb565b91905055505050505050505050565b60007f000000000000000000000000000000000000000000000000000000000000000073ffffffffffffffffffffffffffffffffffffffff168273ffffffffffffffffffffffffffffffffffffffff16149050919050565b60006001600083815260200190815260200160002060000160009054906101000a900473ffffffffffffffffffffffffffffffffffffffff169050600060038111156200070f577f4e487b7100000000000000000000000000000000000000000000000000000000600052602160045260246000fd5b6001600084815260200190815260200160002060000160149054906101000a900460ff1660038111156200076c577f4e487b7100000000000000000000000000000000000000000000000000000000600052602160045260246000fd5b14620007af576040517f08c379a0000000000000000000000000000000000000000000000000000000008152600401620007a69062002929565b60405180910390fd5b8073ffffffffffffffffffffffffffffffffffffffff16633fa4f2456040518163ffffffff1660e01b815260040160206040518083038186803b158015620007f657600080fd5b505afa1580156200080b573d6000803e3d6000fd5b505050506040513d601f19601f8201168201806040525081019062000831919062002333565b60008054906101000a900473ffffffffffffffffffffffffffffffffffffffff1673ffffffffffffffffffffffffffffffffffffffff166370a08231620008776200201c565b6040518263ffffffff1660e01b8152600401620008959190620025db565b60206040518083038186803b158015620008ae57600080fd5b505afa158015620008c3573d6000803e3d6000fd5b505050506040513d601f19601f82011682018060405250810190620008e9919062002333565b116200092c576040517f08c379a000000000000000000000000000000000000000000000000000000000815260040162000923906200296d565b60405180910390fd5b6001600083815260200190815260200160002060020160009054906101000a900473ffffffffffffffffffffffffffffffffffffffff1673ffffffffffffffffffffffffffffffffffffffff16620009836200201c565b73ffffffffffffffffffffffffffffffffffffffff161415620009dd576040517f08c379a0000000000000000000000000000000000000000000000000000000008152600401620009d49062002907565b60405180910390fd5b60008054906101000a900473ffffffffffffffffffffffffffffffffffffffff1673ffffffffffffffffffffffffffffffffffffffff166323b872dd62000a236200201c565b838473ffffffffffffffffffffffffffffffffffffffff16633fa4f2456040518163ffffffff1660e01b815260040160206040518083038186803b15801562000a6b57600080fd5b505afa15801562000a80573d6000803e3d6000fd5b505050506040513d601f19601f8201168201806040525081019062000aa6919062002333565b6040518463ffffffff1660e01b815260040162000ac693929190620025f8565b602060405180830381600087803b15801562000ae157600080fd5b505af115801562000af6573d6000803e3d6000fd5b505050506040513d601f19601f8201168201806040525081019062000b1c919062002215565b5062000b276200201c565b6001600084815260200190815260200160002060030160006101000a81548173ffffffffffffffffffffffffffffffffffffffff021916908373ffffffffffffffffffffffffffffffffffffffff160217905550600180600084815260200190815260200160002060000160146101000a81548160ff0219169083600381111562000bdb577f4e487b7100000000000000000000000000000000000000000000000000000000600052602160045260246000fd5b02179055506001600083815260200190815260200160002060000160149054906101000a900460ff16600381111562000c3d577f4e487b7100000000000000000000000000000000000000000000000000000000600052602160045260246000fd5b6001600084815260200190815260200160002060030160009054906101000a900473ffffffffffffffffffffffffffffffffffffffff1673ffffffffffffffffffffffffffffffffffffffff166001600085815260200190815260200160002060020160009054906101000a900473ffffffffffffffffffffffffffffffffffffffff1673ffffffffffffffffffffffffffffffffffffffff167f45d0aa64feeab6eca8bef30c040bea86add68665a07ca845f9fb2771f4b71c8760016000878152602001908152602001600020600101868673ffffffffffffffffffffffffffffffffffffffff16632d84b5c06040518163ffffffff1660e01b815260040160206040518083038186803b15801562000d5657600080fd5b505afa15801562000d6b573d6000803e3d6000fd5b505050506040513d601f19601f8201168201806040525081019062000d91919062002333565b8773ffffffffffffffffffffffffffffffffffffffff166399c47ae66040518163ffffffff1660e01b815260040160206040518083038186803b15801562000dd857600080fd5b505afa15801562000ded573d6000803e3d6000fd5b505050506040513d601f19601f8201168201806040525081019062000e13919062002333565b8873ffffffffffffffffffffffffffffffffffffffff166379100d6b6040518163ffffffff1660e01b815260040160206040518083038186803b15801562000e5a57600080fd5b505afa15801562000e6f573d6000803e3d6000fd5b505050506040513d601f19601f8201168201806040525081019062000e95919062002333565b8973ffffffffffffffffffffffffffffffffffffffff166352359b976040518163ffffffff1660e01b815260040160206040518083038186803b15801562000edc57600080fd5b505afa15801562000ef1573d6000803e3d6000fd5b505050506040513d601f19601f8201168201806040525081019062000f17919062002333565b8a73ffffffffffffffffffffffffffffffffffffffff16633fa4f2456040518163ffffffff1660e01b815260040160206040518083038186803b15801562000f5e57600080fd5b505afa15801562000f73573d6000803e3d6000fd5b505050506040513d601f19601f8201168201806040525081019062000f99919062002333565b8b73ffffffffffffffffffffffffffffffffffffffff16639af1d35a6040518163ffffffff1660e01b815260040160206040518083038186803b15801562000fe057600080fd5b505afa15801562000ff5573d6000803e3d6000fd5b505050506040513d601f19601f820116820180604052508101906200101b919062002333565b60405162001031989796959493929190620027ea565b60405180910390a45050565b60016020528060005260406000206000915090508060000160009054906101000a900473ffffffffffffffffffffffffffffffffffffffff16908060000160149054906101000a900460ff16908060010180546200109b9062002b4f565b80601f0160208091040260200160405190810160405280929190818152602001828054620010c99062002b4f565b80156200111a5780601f10620010ee576101008083540402835291602001916200111a565b820191906000526020600020905b815481529060010190602001808311620010fc57829003601f168201915b5050505050908060020160009054906101000a900473ffffffffffffffffffffffffffffffffffffffff16908060030160009054906101000a900473ffffffffffffffffffffffffffffffffffffffff16905085565b60006001600083815260200190815260200160002060000160009054906101000a900473ffffffffffffffffffffffffffffffffffffffff16905060026003811115620011e6577f4e487b7100000000000000000000000000000000000000000000000000000000600052602160045260246000fd5b6001600084815260200190815260200160002060000160149054906101000a900460ff16600381111562001243577f4e487b7100000000000000000000000000000000000000000000000000000000600052602160045260246000fd5b1462001286576040517f08c379a00000000000000000000000000000000000000000000000000000000081526004016200127d906200294b565b60405180910390fd5b6001600083815260200190815260200160002060020160009054906101000a900473ffffffffffffffffffffffffffffffffffffffff1673ffffffffffffffffffffffffffffffffffffffff16620012dd6200201c565b73ffffffffffffffffffffffffffffffffffffffff161462001336576040517f08c379a00000000000000000000000000000000000000000000000000000000081526004016200132d90620028c3565b60405180910390fd5b60036001600084815260200190815260200160002060000160146101000a81548160ff0219169083600381111562001397577f4e487b7100000000000000000000000000000000000000000000000000000000600052602160045260246000fd5b021790555060008054906101000a900473ffffffffffffffffffffffffffffffffffffffff1673ffffffffffffffffffffffffffffffffffffffff166323b872dd826001600086815260200190815260200160002060030160009054906101000a900473ffffffffffffffffffffffffffffffffffffffff1660008054906101000a900473ffffffffffffffffffffffffffffffffffffffff1673ffffffffffffffffffffffffffffffffffffffff166370a08231866040518263ffffffff1660e01b81526004016200146b9190620025db565b60206040518083038186803b1580156200148457600080fd5b505afa15801562001499573d6000803e3d6000fd5b505050506040513d601f19601f82011682018060405250810190620014bf919062002333565b6040518463ffffffff1660e01b8152600401620014df93929190620025f8565b602060405180830381600087803b158015620014fa57600080fd5b505af11580156200150f573d6000803e3d6000fd5b505050506040513d601f19601f8201168201806040525081019062001535919062002215565b506001600083815260200190815260200160002060000160149054906101000a900460ff16600381111562001593577f4e487b7100000000000000000000000000000000000000000000000000000000600052602160045260246000fd5b6001600084815260200190815260200160002060030160009054906101000a900473ffffffffffffffffffffffffffffffffffffffff1673ffffffffffffffffffffffffffffffffffffffff166001600085815260200190815260200160002060020160009054906101000a900473ffffffffffffffffffffffffffffffffffffffff1673ffffffffffffffffffffffffffffffffffffffff167f45d0aa64feeab6eca8bef30c040bea86add68665a07ca845f9fb2771f4b71c8760016000878152602001908152602001600020600101868673ffffffffffffffffffffffffffffffffffffffff16632d84b5c06040518163ffffffff1660e01b815260040160206040518083038186803b158015620016ac57600080fd5b505afa158015620016c1573d6000803e3d6000fd5b505050506040513d601f19601f82011682018060405250810190620016e7919062002333565b8773ffffffffffffffffffffffffffffffffffffffff166399c47ae66040518163ffffffff1660e01b815260040160206040518083038186803b1580156200172e57600080fd5b505afa15801562001743573d6000803e3d6000fd5b505050506040513d601f19601f8201168201806040525081019062001769919062002333565b8873ffffffffffffffffffffffffffffffffffffffff166379100d6b6040518163ffffffff1660e01b815260040160206040518083038186803b158015620017b057600080fd5b505afa158015620017c5573d6000803e3d6000fd5b505050506040513d601f19601f82011682018060405250810190620017eb919062002333565b8973ffffffffffffffffffffffffffffffffffffffff166352359b976040518163ffffffff1660e01b815260040160206040518083038186803b1580156200183257600080fd5b505afa15801562001847573d6000803e3d6000fd5b505050506040513d601f19601f820116820180604052508101906200186d919062002333565b8a73ffffffffffffffffffffffffffffffffffffffff16633fa4f2456040518163ffffffff1660e01b815260040160206040518083038186803b158015620018b457600080fd5b505afa158015620018c9573d6000803e3d6000fd5b505050506040513d601f19601f82011682018060405250810190620018ef919062002333565b8b73ffffffffffffffffffffffffffffffffffffffff16639af1d35a6040518163ffffffff1660e01b815260040160206040518083038186803b1580156200193657600080fd5b505afa1580156200194b573d6000803e3d6000fd5b505050506040513d601f19601f8201168201806040525081019062001971919062002333565b60405162001987989796959493929190620027ea565b60405180910390a45050565b60006001600083815260200190815260200160002060000160009054906101000a900473ffffffffffffffffffffffffffffffffffffffff1690506001600381111562001a09577f4e487b7100000000000000000000000000000000000000000000000000000000600052602160045260246000fd5b6001600084815260200190815260200160002060000160149054906101000a900460ff16600381111562001a66577f4e487b7100000000000000000000000000000000000000000000000000000000600052602160045260246000fd5b1462001aa9576040517f08c379a000000000000000000000000000000000000000000000000000000000815260040162001aa0906200287f565b60405180910390fd5b6001600083815260200190815260200160002060030160009054906101000a900473ffffffffffffffffffffffffffffffffffffffff1673ffffffffffffffffffffffffffffffffffffffff1662001b006200201c565b73ffffffffffffffffffffffffffffffffffffffff161462001b59576040517f08c379a000000000000000000000000000000000000000000000000000000000815260040162001b5090620028e5565b60405180910390fd5b60026001600084815260200190815260200160002060000160146101000a81548160ff0219169083600381111562001bba577f4e487b7100000000000000000000000000000000000000000000000000000000600052602160045260246000fd5b02179055506001600083815260200190815260200160002060000160149054906101000a900460ff16600381111562001c1c577f4e487b7100000000000000000000000000000000000000000000000000000000600052602160045260246000fd5b6001600084815260200190815260200160002060030160009054906101000a900473ffffffffffffffffffffffffffffffffffffffff1673ffffffffffffffffffffffffffffffffffffffff166001600085815260200190815260200160002060020160009054906101000a900473ffffffffffffffffffffffffffffffffffffffff1673ffffffffffffffffffffffffffffffffffffffff167f45d0aa64feeab6eca8bef30c040bea86add68665a07ca845f9fb2771f4b71c8760016000878152602001908152602001600020600101868673ffffffffffffffffffffffffffffffffffffffff16632d84b5c06040518163ffffffff1660e01b815260040160206040518083038186803b15801562001d3557600080fd5b505afa15801562001d4a573d6000803e3d6000fd5b505050506040513d601f19601f8201168201806040525081019062001d70919062002333565b8773ffffffffffffffffffffffffffffffffffffffff166399c47ae66040518163ffffffff1660e01b815260040160206040518083038186803b15801562001db757600080fd5b505afa15801562001dcc573d6000803e3d6000fd5b505050506040513d601f19601f8201168201806040525081019062001df2919062002333565b8873ffffffffffffffffffffffffffffffffffffffff166379100d6b6040518163ffffffff1660e01b815260040160206040518083038186803b15801562001e3957600080fd5b505afa15801562001e4e573d6000803e3d6000fd5b505050506040513d601f19601f8201168201806040525081019062001e74919062002333565b8973ffffffffffffffffffffffffffffffffffffffff166352359b976040518163ffffffff1660e01b815260040160206040518083038186803b15801562001ebb57600080fd5b505afa15801562001ed0573d6000803e3d6000fd5b505050506040513d601f19601f8201168201806040525081019062001ef6919062002333565b8a73ffffffffffffffffffffffffffffffffffffffff16633fa4f2456040518163ffffffff1660e01b815260040160206040518083038186803b15801562001f3d57600080fd5b505afa15801562001f52573d6000803e3d6000fd5b505050506040513d601f19601f8201168201806040525081019062001f78919062002333565b8b73ffffffffffffffffffffffffffffffffffffffff16639af1d35a6040518163ffffffff1660e01b815260040160206040518083038186803b15801562001fbf57600080fd5b505afa15801562001fd4573d6000803e3d6000fd5b505050506040513d601f19601f8201168201806040525081019062001ffa919062002333565b60405162002010989796959493929190620027ea565b60405180910390a45050565b6000620020293362000641565b156200203f57601436033560601c905062002051565b6200204962002055565b905062002052565b5b90565b600033905090565b6105ff8062002e8483390190565b828054620020799062002b4f565b90600052602060002090601f0160209004810192826200209d5760008555620020e9565b82601f10620020b857805160ff1916838001178555620020e9565b82800160010185558215620020e9579182015b82811115620020e8578251825591602001919060010190620020cb565b5b509050620020f89190620020fc565b5090565b5b8082111562002117576000816000905550600101620020fd565b5090565b6000620021326200212c84620029b8565b6200298f565b9050828152602081018484840111156200214b57600080fd5b6200215884828562002b0a565b509392505050565b600081359050620021718162002e35565b92915050565b600081519050620021888162002e4f565b92915050565b600082601f830112620021a057600080fd5b8135620021b28482602086016200211b565b91505092915050565b600081359050620021cc8162002e69565b92915050565b600081519050620021e38162002e69565b92915050565b600060208284031215620021fc57600080fd5b60006200220c8482850162002160565b91505092915050565b6000602082840312156200222857600080fd5b6000620022388482850162002177565b91505092915050565b600080600080600080600060e0888a0312156200225d57600080fd5b600088013567ffffffffffffffff8111156200227857600080fd5b620022868a828b016200218e565b9750506020620022998a828b01620021bb565b9650506040620022ac8a828b01620021bb565b9550506060620022bf8a828b01620021bb565b9450506080620022d28a828b01620021bb565b93505060a0620022e58a828b01620021bb565b92505060c0620022f88a828b01620021bb565b91505092959891949750929550565b6000602082840312156200231a57600080fd5b60006200232a84828501620021bb565b91505092915050565b6000602082840312156200234657600080fd5b60006200235684828501620021d2565b91505092915050565b6200236a8162002a1f565b82525050565b6200237b8162002a33565b82525050565b6200238c8162002a7e565b82525050565b6200239d8162002aa6565b82525050565b620023ae8162002ace565b82525050565b620023bf8162002af6565b82525050565b6000620023d28262002a03565b620023de818562002a0e565b9350620023f081856020860162002b19565b620023fb8162002cc5565b840191505092915050565b60008154620024158162002b4f565b62002421818662002a0e565b945060018216600081146200243f5760018114620024525762002489565b60ff198316865260208601935062002489565b6200245d85620029ee565b60005b83811015620024815781548189015260018201915060208101905062002460565b808801955050505b50505092915050565b6000620024a160178362002a0e565b9150620024ae8262002cd6565b602082019050919050565b6000620024c8601b8362002a0e565b9150620024d58262002cff565b602082019050919050565b6000620024ef60158362002a0e565b9150620024fc8262002d28565b602082019050919050565b60006200251660198362002a0e565b9150620025238262002d51565b602082019050919050565b60006200253d60188362002a0e565b91506200254a8262002d7a565b602082019050919050565b60006200256460188362002a0e565b9150620025718262002da3565b602082019050919050565b60006200258b60158362002a0e565b9150620025988262002dcc565b602082019050919050565b6000620025b260198362002a0e565b9150620025bf8262002df5565b602082019050919050565b620025d58162002a74565b82525050565b6000602082019050620025f260008301846200235f565b92915050565b60006060820190506200260f60008301866200235f565b6200261e60208301856200235f565b6200262d6040830184620025ca565b949350505050565b60006020820190506200264c600083018462002370565b92915050565b6000610120820190506200266a600083018c62002392565b62002679602083018b62002381565b62002688604083018a620025ca565b620026976060830189620025ca565b620026a66080830188620025ca565b620026b560a0830187620025ca565b620026c460c0830186620025ca565b620026d360e0830185620025ca565b620026e3610100830184620025ca565b9a9950505050505050505050565b600060a082019050620027086000830188620023a3565b620027176020830187620023b4565b81810360408301526200272b8186620023c5565b90506200273c60608301856200235f565b6200274b60808301846200235f565b9695505050505050565b600061010082019050818103600083015262002772818b620023c5565b905062002783602083018a620025ca565b620027926040830189620025ca565b620027a16060830188620025ca565b620027b06080830187620025ca565b620027bf60a0830186620025ca565b620027ce60c0830185620025ca565b620027dd60e0830184620025ca565b9998505050505050505050565b600061010082019050818103600083015262002807818b62002406565b905062002818602083018a620025ca565b620028276040830189620025ca565b620028366060830188620025ca565b620028456080830187620025ca565b6200285460a0830186620025ca565b6200286360c0830185620025ca565b6200287260e0830184620025ca565b9998505050505050505050565b600060208201905081810360008301526200289a8162002492565b9050919050565b60006020820190508181036000830152620028bc81620024b9565b9050919050565b60006020820190508181036000830152620028de81620024e0565b9050919050565b60006020820190508181036000830152620029008162002507565b9050919050565b6000602082019050818103600083015262002922816200252e565b9050919050565b60006020820190508181036000830152620029448162002555565b9050919050565b6000602082019050818103600083015262002966816200257c565b9050919050565b600060208201905081810360008301526200298881620025a3565b9050919050565b60006200299b620029ae565b9050620029a9828262002b85565b919050565b6000604051905090565b600067ffffffffffffffff821115620029d657620029d562002c96565b5b620029e18262002cc5565b9050602081019050919050565b60008190508160005260206000209050919050565b600081519050919050565b600082825260208201905092915050565b600062002a2c8262002a54565b9050919050565b60008115159050919050565b600081905062002a4f8262002e1e565b919050565b600073ffffffffffffffffffffffffffffffffffffffff82169050919050565b6000819050919050565b600062002a8b8262002a92565b9050919050565b600062002a9f8262002a54565b9050919050565b600062002ab38262002aba565b9050919050565b600062002ac78262002a54565b9050919050565b600062002adb8262002ae2565b9050919050565b600062002aef8262002a54565b9050919050565b600062002b038262002a3f565b9050919050565b82818337600083830152505050565b60005b8381101562002b3957808201518184015260208101905062002b1c565b8381111562002b49576000848401525b50505050565b6000600282049050600182168062002b6857607f821691505b6020821081141562002b7f5762002b7e62002c67565b5b50919050565b62002b908262002cc5565b810181811067ffffffffffffffff8211171562002bb25762002bb162002c96565b5b80604052505050565b600062002bc88262002a74565b91507fffffffffffffffffffffffffffffffffffffffffffffffffffffffffffffffff82141562002bfe5762002bfd62002c09565b5b600182019050919050565b7f4e487b7100000000000000000000000000000000000000000000000000000000600052601160045260246000fd5b7f4e487b7100000000000000000000000000000000000000000000000000000000600052602160045260246000fd5b7f4e487b7100000000000000000000000000000000000000000000000000000000600052602260045260246000fd5b7f4e487b7100000000000000000000000000000000000000000000000000000000600052604160045260246000fd5b6000601f19601f8301169050919050565b7f52657175657374206e6f74206f6e2064656c6976657279000000000000000000600082015250565b7f4e6f7420656e6f75676820746f6b656e7320696e2077616c6c65740000000000600082015250565b7f54686973206973206e6f7420796f7572206974656d0000000000000000000000600082015250565b7f54686973206973206e6f7420796f75722064656c697665727900000000000000600082015250565b7f5468697320697320796f7572206f776e20726571756573740000000000000000600082015250565b7f52657175657374206973206e6f7420617661696c61626c650000000000000000600082015250565b7f52657175657374206e6f742064656c6976657265640000000000000000000000600082015250565b7f506c65617365206465706f7369742066756c6c207374616b6500000000000000600082015250565b6004811062002e325762002e3162002c38565b5b50565b62002e408162002a1f565b811462002e4c57600080fd5b50565b62002e5a8162002a33565b811462002e6657600080fd5b50565b62002e748162002a74565b811462002e8057600080fd5b5056fe608060405234801561001057600080fd5b506040516105ff3803806105ff83398181016040528101906100329190610132565b88600960006101000a81548173ffffffffffffffffffffffffffffffffffffffff021916908373ffffffffffffffffffffffffffffffffffffffff16021790555087600a60006101000a81548173ffffffffffffffffffffffffffffffffffffffff021916908373ffffffffffffffffffffffffffffffffffffffff1602179055508660018190555085600281905550846003819055508360048190555082600581905550816006819055508060078190555050505050505050505061029d565b60008151905061010281610258565b92915050565b6000815190506101178161026f565b92915050565b60008151905061012c81610286565b92915050565b60008060008060008060008060006101208a8c03121561015157600080fd5b600061015f8c828d01610108565b99505060206101708c828d016100f3565b98505060406101818c828d0161011d565b97505060606101928c828d0161011d565b96505060806101a38c828d0161011d565b95505060a06101b48c828d0161011d565b94505060c06101c58c828d0161011d565b93505060e06101d68c828d0161011d565b9250506101006101e88c828d0161011d565b9150509295985092959850929598565b60006102038261022e565b9050919050565b6000610215826101f8565b9050919050565b6000610227826101f8565b9050919050565b600073ffffffffffffffffffffffffffffffffffffffff82169050919050565b6000819050919050565b6102618161020a565b811461026c57600080fd5b50565b6102788161021c565b811461028357600080fd5b50565b61028f8161024e565b811461029a57600080fd5b50565b610353806102ac6000396000f3fe60806040526004361061008a5760003560e01c806379100d6b1161005957806379100d6b1461014257806399c47ae61461016d5780639af1d35a14610198578063c2bd8119146101c3578063d16a5335146101ee57610091565b80632986c0e5146100965780632d84b5c0146100c15780633fa4f245146100ec57806352359b971461011757610091565b3661009157005b600080fd5b3480156100a257600080fd5b506100ab610219565b6040516100b891906102c6565b60405180910390f35b3480156100cd57600080fd5b506100d661021f565b6040516100e391906102c6565b60405180910390f35b3480156100f857600080fd5b50610101610225565b60405161010e91906102c6565b60405180910390f35b34801561012357600080fd5b5061012c61022b565b60405161013991906102c6565b60405180910390f35b34801561014e57600080fd5b50610157610231565b60405161016491906102c6565b60405180910390f35b34801561017957600080fd5b50610182610237565b60405161018f91906102c6565b60405180910390f35b3480156101a457600080fd5b506101ad61023d565b6040516101ba91906102c6565b60405180910390f35b3480156101cf57600080fd5b506101d8610243565b6040516101e591906102ab565b60405180910390f35b3480156101fa57600080fd5b50610203610269565b60405161021091906102ab565b60405180910390f35b60075481565b60015481565b60055481565b60045481565b60035481565b60025481565b60065481565b600860009054906101000a900473ffffffffffffffffffffffffffffffffffffffff1681565b60008054906101000a900473ffffffffffffffffffffffffffffffffffffffff1681565b610296816102e1565b82525050565b6102a581610313565b82525050565b60006020820190506102c0600083018461028d565b92915050565b60006020820190506102db600083018461029c565b92915050565b60006102ec826102f3565b9050919050565b600073ffffffffffffffffffffffffffffffffffffffff82169050919050565b600081905091905056fea2646970667358221220115a927663193f32f3dc3d14dc3d9623e38fd42bacffadf70bdeabb81d59153964736f6c63430008040033a264697066735822122033413fea1d671e580a252167c8619fd79a480530ebd7b7ace6877afa5a9f080364736f6c63430008040033",
  "immutableReferences": {
    "704": [
      {
        "length": 32,
        "start": 1605
      }
    ]
  },
  "source": "// SPDX-License-Identifier: MIT\r\npragma solidity ^0.8.4;\r\n\r\nimport \"./Request.sol\";\r\nimport \"./ChiralToken.sol\";\r\nimport \"@openzeppelin/contracts/metatx/ERC2771Context.sol\";\r\n\r\ncontract RequestManager is ERC2771Context {\r\n    ChiralToken tokenContract;\r\n\r\n    constructor(ChiralToken newtoken, address _forwarder)\r\n        ERC2771Context(_forwarder)\r\n    {\r\n        tokenContract = newtoken;\r\n    }\r\n\r\n    struct S_Request {\r\n        Request request;\r\n        RequestManager.SupplyChainSteps step;\r\n        string identifier;\r\n        address pickupAddress;\r\n        address deliveryAddress;\r\n    }\r\n    mapping(uint256 => S_Request) public requests;\r\n    uint256 index;\r\n\r\n    enum SupplyChainSteps {Created, Accepted, Delivered, Received}\r\n\r\n    event DisplayStep(\r\n        address indexed pickupAddress,\r\n        address indexed deliveryAddress,\r\n        string identifier,\r\n        uint256 index,\r\n        uint256 pickup_lat,\r\n        uint256 pickup_lng,\r\n        uint256 destination_lat,\r\n        uint256 destination_lng,\r\n        uint256 value,\r\n        uint256 fees,\r\n        uint256 indexed _step\r\n    );\r\n\r\n    function createRequest(\r\n        string memory identifier,\r\n        uint256 pickup_lat,\r\n        uint256 pickup_lng,\r\n        uint256 destination_lat,\r\n        uint256 destination_lng,\r\n        uint256 value,\r\n        uint256 fees\r\n    ) public {\r\n        require(\r\n            tokenContract.balanceOf(_msgSender()) > fees,\r\n            \"Not enough tokens in wallet\"\r\n        );\r\n        Request request =\r\n            new Request(\r\n                this,\r\n                tokenContract,\r\n                pickup_lat,\r\n                pickup_lng,\r\n                destination_lat,\r\n                destination_lng,\r\n                value,\r\n                fees,\r\n                index\r\n            );\r\n        requests[index].request = request;\r\n        requests[index].step = SupplyChainSteps.Created;\r\n        requests[index].identifier = identifier;\r\n        tokenContract.transferFrom(_msgSender(), address(request), fees);\r\n        requests[index].pickupAddress = _msgSender();\r\n        emit DisplayStep(\r\n            requests[index].pickupAddress,\r\n            requests[index].deliveryAddress,\r\n            identifier,\r\n            index,\r\n            pickup_lat,\r\n            pickup_lng,\r\n            destination_lat,\r\n            destination_lng,\r\n            value,\r\n            fees,\r\n            uint256(requests[index].step)\r\n        );\r\n        index++;\r\n    }\r\n\r\n    function triggerAccepted(uint256 _index) public {\r\n        Request request = requests[_index].request;\r\n        require(\r\n            requests[_index].step == SupplyChainSteps.Created,\r\n            \"Request is not available\"\r\n        );\r\n        require(\r\n            tokenContract.balanceOf(_msgSender()) > request.value(),\r\n            \"Please deposit full stake\"\r\n        );\r\n        require(\r\n            _msgSender() != requests[_index].pickupAddress,\r\n            \"This is your own request\"\r\n        );\r\n        tokenContract.transferFrom(\r\n            _msgSender(),\r\n            address(request),\r\n            request.value()\r\n        );\r\n        requests[_index].deliveryAddress = _msgSender();\r\n        requests[_index].step = SupplyChainSteps.Accepted;\r\n        emit DisplayStep(\r\n            requests[_index].pickupAddress,\r\n            requests[_index].deliveryAddress,\r\n            requests[_index].identifier,\r\n            _index,\r\n            request.pickup_lat(),\r\n            request.pickup_lng(),\r\n            request.destination_lat(),\r\n            request.destination_lng(),\r\n            request.value(),\r\n            request.fees(),\r\n            uint256(requests[_index].step)\r\n        );\r\n    }\r\n\r\n    function triggerDelivery(uint256 _index) public {\r\n        Request request = requests[_index].request;\r\n        require(\r\n            requests[_index].step == SupplyChainSteps.Accepted,\r\n            \"Request not on delivery\"\r\n        );\r\n        require(\r\n            _msgSender() == requests[_index].deliveryAddress,\r\n            \"This is not your delivery\"\r\n        );\r\n        requests[_index].step = SupplyChainSteps.Delivered;\r\n        emit DisplayStep(\r\n            requests[_index].pickupAddress,\r\n            requests[_index].deliveryAddress,\r\n            requests[_index].identifier,\r\n            _index,\r\n            request.pickup_lat(),\r\n            request.pickup_lng(),\r\n            request.destination_lat(),\r\n            request.destination_lng(),\r\n            request.value(),\r\n            request.fees(),\r\n            uint256(requests[_index].step)\r\n        );\r\n    }\r\n\r\n    function triggerReceive(uint256 _index) public {\r\n        Request request = requests[_index].request;\r\n        require(\r\n            requests[_index].step == SupplyChainSteps.Delivered,\r\n            \"Request not delivered\"\r\n        );\r\n        require(\r\n            _msgSender() == requests[_index].pickupAddress,\r\n            \"This is not your item\"\r\n        );\r\n        requests[_index].step = SupplyChainSteps.Received;\r\n        tokenContract.transferFrom(\r\n            address(request),\r\n            requests[_index].deliveryAddress,\r\n            tokenContract.balanceOf(address(request))\r\n        );\r\n        emit DisplayStep(\r\n            requests[_index].pickupAddress,\r\n            requests[_index].deliveryAddress,\r\n            requests[_index].identifier,\r\n            _index,\r\n            request.pickup_lat(),\r\n            request.pickup_lng(),\r\n            request.destination_lat(),\r\n            request.destination_lng(),\r\n            request.value(),\r\n            request.fees(),\r\n            uint256(requests[_index].step)\r\n        );\r\n    }\r\n}\r\n",
  "sourcePath": "C:\\Users\\pohsa\\Desktop\\Chiral\\contracts\\RequestManager.sol",
  "compiler": {
    "name": "solc",
    "version": "0.8.4+commit.c7e474f2.Emscripten.clang"
  },
  "schemaVersion": "3.4.1",
  "updatedAt": "2021-06-16T06:49:03.065Z",
  "networkType": "ethereum",
  "devdoc": {
    "kind": "dev",
    "methods": {},
    "version": 1
  },
  "userdoc": {
    "kind": "user",
    "methods": {},
    "version": 1
  }
}