{
  "contractName": "RequestManager",
  "abi": [
    {
      "inputs": [
        {
          "internalType": "contract ChiralToken",
          "name": "newtoken",
          "type": "address"
        }
      ],
      "stateMutability": "nonpayable",
      "type": "constructor"
    },
    {
      "anonymous": false,
      "inputs": [
        {
          "indexed": true,
          "internalType": "address",
          "name": "pickupAddress",
          "type": "address"
        },
        {
          "indexed": true,
          "internalType": "address",
          "name": "deliveryAddress",
          "type": "address"
        },
        {
          "indexed": false,
          "internalType": "string",
          "name": "identifier",
          "type": "string"
        },
        {
          "indexed": false,
          "internalType": "uint256",
          "name": "index",
          "type": "uint256"
        },
        {
          "indexed": false,
          "internalType": "uint256",
          "name": "pickup_lat",
          "type": "uint256"
        },
        {
          "indexed": false,
          "internalType": "uint256",
          "name": "pickup_lng",
          "type": "uint256"
        },
        {
          "indexed": false,
          "internalType": "uint256",
          "name": "destination_lat",
          "type": "uint256"
        },
        {
          "indexed": false,
          "internalType": "uint256",
          "name": "destination_lng",
          "type": "uint256"
        },
        {
          "indexed": false,
          "internalType": "uint256",
          "name": "value",
          "type": "uint256"
        },
        {
          "indexed": false,
          "internalType": "uint256",
          "name": "fees",
          "type": "uint256"
        },
        {
          "indexed": true,
          "internalType": "uint256",
          "name": "_step",
          "type": "uint256"
        }
      ],
      "name": "DisplayStep",
      "type": "event"
    },
    {
      "inputs": [
        {
          "internalType": "uint256",
          "name": "",
          "type": "uint256"
        }
      ],
      "name": "requests",
      "outputs": [
        {
          "internalType": "contract Request",
          "name": "request",
          "type": "address"
        },
        {
          "internalType": "enum RequestManager.SupplyChainSteps",
          "name": "step",
          "type": "uint8"
        },
        {
          "internalType": "string",
          "name": "identifier",
          "type": "string"
        },
        {
          "internalType": "address",
          "name": "pickupAddress",
          "type": "address"
        },
        {
          "internalType": "address",
          "name": "deliveryAddress",
          "type": "address"
        }
      ],
      "stateMutability": "view",
      "type": "function",
      "constant": true
    },
    {
      "inputs": [
        {
          "internalType": "string",
          "name": "identifier",
          "type": "string"
        },
        {
          "internalType": "uint256",
          "name": "pickup_lat",
          "type": "uint256"
        },
        {
          "internalType": "uint256",
          "name": "pickup_lng",
          "type": "uint256"
        },
        {
          "internalType": "uint256",
          "name": "destination_lat",
          "type": "uint256"
        },
        {
          "internalType": "uint256",
          "name": "destination_lng",
          "type": "uint256"
        },
        {
          "internalType": "uint256",
          "name": "value",
          "type": "uint256"
        },
        {
          "internalType": "uint256",
          "name": "fees",
          "type": "uint256"
        }
      ],
      "name": "createRequest",
      "outputs": [],
      "stateMutability": "nonpayable",
      "type": "function"
    },
    {
      "inputs": [
        {
          "internalType": "uint256",
          "name": "_index",
          "type": "uint256"
        }
      ],
      "name": "triggerAccepted",
      "outputs": [],
      "stateMutability": "nonpayable",
      "type": "function"
    },
    {
      "inputs": [
        {
          "internalType": "uint256",
          "name": "_index",
          "type": "uint256"
        }
      ],
      "name": "triggerDelivery",
      "outputs": [],
      "stateMutability": "nonpayable",
      "type": "function"
    },
    {
      "inputs": [
        {
          "internalType": "uint256",
          "name": "_index",
          "type": "uint256"
        }
      ],
      "name": "triggerReceive",
      "outputs": [],
      "stateMutability": "nonpayable",
      "type": "function"
    }
  ],
  "bytecode": "0x60806040523480156200001157600080fd5b506040516200352838038062003528833981810160405281019062000037919062000095565b806000806101000a81548173ffffffffffffffffffffffffffffffffffffffff021916908373ffffffffffffffffffffffffffffffffffffffff1602179055505062000123565b6000815190506200008f8162000109565b92915050565b600060208284031215620000a857600080fd5b6000620000b8848285016200007e565b91505092915050565b6000620000ce82620000e9565b9050919050565b6000620000e282620000c1565b9050919050565b600073ffffffffffffffffffffffffffffffffffffffff82169050919050565b6200011481620000d5565b81146200012057600080fd5b50565b6133f580620001336000396000f3fe60806040523480156200001157600080fd5b50600436106200005e5760003560e01c806313bb7bb8146200006357806367c0cef9146200008357806381d12c5814620000a3578063baaaecfe14620000dd578063cd31831e14620000fd575b600080fd5b6200008160048036038101906200007b91906200202a565b6200011d565b005b620000a160048036038101906200009b9190620020f0565b620005e4565b005b620000c16004803603810190620000bb9190620020f0565b62000ebc565b604051620000d495949392919062002485565b60405180910390f35b620000fb6004803603810190620000f59190620020f0565b62000fef565b005b6200011b6004803603810190620001159190620020f0565b62001809565b005b8060008054906101000a900473ffffffffffffffffffffffffffffffffffffffff1673ffffffffffffffffffffffffffffffffffffffff166370a08231336040518263ffffffff1660e01b81526004016200017991906200238c565b60206040518083038186803b1580156200019257600080fd5b505afa158015620001a7573d6000803e3d6000fd5b505050506040513d601f19601f82011682018060405250810190620001cd91906200211c565b1162000210576040517f08c379a0000000000000000000000000000000000000000000000000000000008152600401620002079062002635565b60405180910390fd5b60003060008054906101000a900473ffffffffffffffffffffffffffffffffffffffff168888888888886002546040516200024b9062001e89565b6200025f99989796959493929190620023e6565b604051809103906000f0801580156200027c573d6000803e3d6000fd5b5090508060016000600254815260200190815260200160002060000160006101000a81548173ffffffffffffffffffffffffffffffffffffffff021916908373ffffffffffffffffffffffffffffffffffffffff160217905550600060016000600254815260200190815260200160002060000160146101000a81548160ff0219169083600381111562000339577f4e487b7100000000000000000000000000000000000000000000000000000000600052602160045260246000fd5b02179055508760016000600254815260200190815260200160002060010190805190602001906200036c92919062001e97565b5060008054906101000a900473ffffffffffffffffffffffffffffffffffffffff1673ffffffffffffffffffffffffffffffffffffffff166323b872dd3383856040518463ffffffff1660e01b8152600401620003cc93929190620023a9565b602060405180830381600087803b158015620003e757600080fd5b505af1158015620003fc573d6000803e3d6000fd5b505050506040513d601f19601f8201168201806040525081019062000422919062001ffe565b503360016000600254815260200190815260200160002060020160006101000a81548173ffffffffffffffffffffffffffffffffffffffff021916908373ffffffffffffffffffffffffffffffffffffffff16021790555060016000600254815260200190815260200160002060000160149054906101000a900460ff166003811115620004d9577f4e487b7100000000000000000000000000000000000000000000000000000000600052602160045260246000fd5b60016000600254815260200190815260200160002060030160009054906101000a900473ffffffffffffffffffffffffffffffffffffffff1673ffffffffffffffffffffffffffffffffffffffff1660016000600254815260200190815260200160002060020160009054906101000a900473ffffffffffffffffffffffffffffffffffffffff1673ffffffffffffffffffffffffffffffffffffffff167f45d0aa64feeab6eca8bef30c040bea86add68665a07ca845f9fb2771f4b71c878b6002548c8c8c8c8c8c604051620005b8989796959493929190620024e9565b60405180910390a460026000815480929190620005d5906200292d565b91905055505050505050505050565b60006001600083815260200190815260200160002060000160009054906101000a900473ffffffffffffffffffffffffffffffffffffffff169050600060038111156200065a577f4e487b7100000000000000000000000000000000000000000000000000000000600052602160045260246000fd5b6001600084815260200190815260200160002060000160149054906101000a900460ff166003811115620006b7577f4e487b7100000000000000000000000000000000000000000000000000000000600052602160045260246000fd5b14620006fa576040517f08c379a0000000000000000000000000000000000000000000000000000000008152600401620006f1906200269b565b60405180910390fd5b8073ffffffffffffffffffffffffffffffffffffffff16633fa4f2456040518163ffffffff1660e01b815260040160206040518083038186803b1580156200074157600080fd5b505afa15801562000756573d6000803e3d6000fd5b505050506040513d601f19601f820116820180604052508101906200077c91906200211c565b60008054906101000a900473ffffffffffffffffffffffffffffffffffffffff1673ffffffffffffffffffffffffffffffffffffffff166370a08231336040518263ffffffff1660e01b8152600401620007d791906200238c565b60206040518083038186803b158015620007f057600080fd5b505afa15801562000805573d6000803e3d6000fd5b505050506040513d601f19601f820116820180604052508101906200082b91906200211c565b116200086e576040517f08c379a00000000000000000000000000000000000000000000000000000000081526004016200086590620026df565b60405180910390fd5b60008054906101000a900473ffffffffffffffffffffffffffffffffffffffff1673ffffffffffffffffffffffffffffffffffffffff166323b872dd33838473ffffffffffffffffffffffffffffffffffffffff16633fa4f2456040518163ffffffff1660e01b815260040160206040518083038186803b158015620008f357600080fd5b505afa15801562000908573d6000803e3d6000fd5b505050506040513d601f19601f820116820180604052508101906200092e91906200211c565b6040518463ffffffff1660e01b81526004016200094e93929190620023a9565b602060405180830381600087803b1580156200096957600080fd5b505af11580156200097e573d6000803e3d6000fd5b505050506040513d601f19601f82011682018060405250810190620009a4919062001ffe565b50336001600084815260200190815260200160002060030160006101000a81548173ffffffffffffffffffffffffffffffffffffffff021916908373ffffffffffffffffffffffffffffffffffffffff160217905550600180600084815260200190815260200160002060000160146101000a81548160ff0219169083600381111562000a5a577f4e487b7100000000000000000000000000000000000000000000000000000000600052602160045260246000fd5b02179055506001600083815260200190815260200160002060000160149054906101000a900460ff16600381111562000abc577f4e487b7100000000000000000000000000000000000000000000000000000000600052602160045260246000fd5b6001600084815260200190815260200160002060030160009054906101000a900473ffffffffffffffffffffffffffffffffffffffff1673ffffffffffffffffffffffffffffffffffffffff166001600085815260200190815260200160002060020160009054906101000a900473ffffffffffffffffffffffffffffffffffffffff1673ffffffffffffffffffffffffffffffffffffffff167f45d0aa64feeab6eca8bef30c040bea86add68665a07ca845f9fb2771f4b71c8760016000878152602001908152602001600020600101868673ffffffffffffffffffffffffffffffffffffffff16632d84b5c06040518163ffffffff1660e01b815260040160206040518083038186803b15801562000bd557600080fd5b505afa15801562000bea573d6000803e3d6000fd5b505050506040513d601f19601f8201168201806040525081019062000c1091906200211c565b8773ffffffffffffffffffffffffffffffffffffffff166399c47ae66040518163ffffffff1660e01b815260040160206040518083038186803b15801562000c5757600080fd5b505afa15801562000c6c573d6000803e3d6000fd5b505050506040513d601f19601f8201168201806040525081019062000c9291906200211c565b8873ffffffffffffffffffffffffffffffffffffffff166379100d6b6040518163ffffffff1660e01b815260040160206040518083038186803b15801562000cd957600080fd5b505afa15801562000cee573d6000803e3d6000fd5b505050506040513d601f19601f8201168201806040525081019062000d1491906200211c565b8973ffffffffffffffffffffffffffffffffffffffff166352359b976040518163ffffffff1660e01b815260040160206040518083038186803b15801562000d5b57600080fd5b505afa15801562000d70573d6000803e3d6000fd5b505050506040513d601f19601f8201168201806040525081019062000d9691906200211c565b8a73ffffffffffffffffffffffffffffffffffffffff16633fa4f2456040518163ffffffff1660e01b815260040160206040518083038186803b15801562000ddd57600080fd5b505afa15801562000df2573d6000803e3d6000fd5b505050506040513d601f19601f8201168201806040525081019062000e1891906200211c565b8b73ffffffffffffffffffffffffffffffffffffffff16639af1d35a6040518163ffffffff1660e01b815260040160206040518083038186803b15801562000e5f57600080fd5b505afa15801562000e74573d6000803e3d6000fd5b505050506040513d601f19601f8201168201806040525081019062000e9a91906200211c565b60405162000eb09897969594939291906200257e565b60405180910390a45050565b60016020528060005260406000206000915090508060000160009054906101000a900473ffffffffffffffffffffffffffffffffffffffff16908060000160149054906101000a900460ff169080600101805462000f1a90620028c1565b80601f016020809104026020016040519081016040528092919081815260200182805462000f4890620028c1565b801562000f995780601f1062000f6d5761010080835404028352916020019162000f99565b820191906000526020600020905b81548152906001019060200180831162000f7b57829003601f168201915b5050505050908060020160009054906101000a900473ffffffffffffffffffffffffffffffffffffffff16908060030160009054906101000a900473ffffffffffffffffffffffffffffffffffffffff16905085565b60006001600083815260200190815260200160002060000160009054906101000a900473ffffffffffffffffffffffffffffffffffffffff1690506002600381111562001065577f4e487b7100000000000000000000000000000000000000000000000000000000600052602160045260246000fd5b6001600084815260200190815260200160002060000160149054906101000a900460ff166003811115620010c2577f4e487b7100000000000000000000000000000000000000000000000000000000600052602160045260246000fd5b1462001105576040517f08c379a0000000000000000000000000000000000000000000000000000000008152600401620010fc90620026bd565b60405180910390fd5b6001600083815260200190815260200160002060020160009054906101000a900473ffffffffffffffffffffffffffffffffffffffff1673ffffffffffffffffffffffffffffffffffffffff163373ffffffffffffffffffffffffffffffffffffffff1614620011ac576040517f08c379a0000000000000000000000000000000000000000000000000000000008152600401620011a39062002657565b60405180910390fd5b60036001600084815260200190815260200160002060000160146101000a81548160ff021916908360038111156200120d577f4e487b7100000000000000000000000000000000000000000000000000000000600052602160045260246000fd5b021790555060008054906101000a900473ffffffffffffffffffffffffffffffffffffffff1673ffffffffffffffffffffffffffffffffffffffff166323b872dd826001600086815260200190815260200160002060030160009054906101000a900473ffffffffffffffffffffffffffffffffffffffff1660008054906101000a900473ffffffffffffffffffffffffffffffffffffffff1673ffffffffffffffffffffffffffffffffffffffff166370a08231866040518263ffffffff1660e01b8152600401620012e191906200238c565b60206040518083038186803b158015620012fa57600080fd5b505afa1580156200130f573d6000803e3d6000fd5b505050506040513d601f19601f820116820180604052508101906200133591906200211c565b6040518463ffffffff1660e01b81526004016200135593929190620023a9565b602060405180830381600087803b1580156200137057600080fd5b505af115801562001385573d6000803e3d6000fd5b505050506040513d601f19601f82011682018060405250810190620013ab919062001ffe565b506001600083815260200190815260200160002060000160149054906101000a900460ff16600381111562001409577f4e487b7100000000000000000000000000000000000000000000000000000000600052602160045260246000fd5b6001600084815260200190815260200160002060030160009054906101000a900473ffffffffffffffffffffffffffffffffffffffff1673ffffffffffffffffffffffffffffffffffffffff166001600085815260200190815260200160002060020160009054906101000a900473ffffffffffffffffffffffffffffffffffffffff1673ffffffffffffffffffffffffffffffffffffffff167f45d0aa64feeab6eca8bef30c040bea86add68665a07ca845f9fb2771f4b71c8760016000878152602001908152602001600020600101868673ffffffffffffffffffffffffffffffffffffffff16632d84b5c06040518163ffffffff1660e01b815260040160206040518083038186803b1580156200152257600080fd5b505afa15801562001537573d6000803e3d6000fd5b505050506040513d601f19601f820116820180604052508101906200155d91906200211c565b8773ffffffffffffffffffffffffffffffffffffffff166399c47ae66040518163ffffffff1660e01b815260040160206040518083038186803b158015620015a457600080fd5b505afa158015620015b9573d6000803e3d6000fd5b505050506040513d601f19601f82011682018060405250810190620015df91906200211c565b8873ffffffffffffffffffffffffffffffffffffffff166379100d6b6040518163ffffffff1660e01b815260040160206040518083038186803b1580156200162657600080fd5b505afa1580156200163b573d6000803e3d6000fd5b505050506040513d601f19601f820116820180604052508101906200166191906200211c565b8973ffffffffffffffffffffffffffffffffffffffff166352359b976040518163ffffffff1660e01b815260040160206040518083038186803b158015620016a857600080fd5b505afa158015620016bd573d6000803e3d6000fd5b505050506040513d601f19601f82011682018060405250810190620016e391906200211c565b8a73ffffffffffffffffffffffffffffffffffffffff16633fa4f2456040518163ffffffff1660e01b815260040160206040518083038186803b1580156200172a57600080fd5b505afa1580156200173f573d6000803e3d6000fd5b505050506040513d601f19601f820116820180604052508101906200176591906200211c565b8b73ffffffffffffffffffffffffffffffffffffffff16639af1d35a6040518163ffffffff1660e01b815260040160206040518083038186803b158015620017ac57600080fd5b505afa158015620017c1573d6000803e3d6000fd5b505050506040513d601f19601f82011682018060405250810190620017e791906200211c565b604051620017fd9897969594939291906200257e565b60405180910390a45050565b60006001600083815260200190815260200160002060000160009054906101000a900473ffffffffffffffffffffffffffffffffffffffff169050600160038111156200187f577f4e487b7100000000000000000000000000000000000000000000000000000000600052602160045260246000fd5b6001600084815260200190815260200160002060000160149054906101000a900460ff166003811115620018dc577f4e487b7100000000000000000000000000000000000000000000000000000000600052602160045260246000fd5b146200191f576040517f08c379a0000000000000000000000000000000000000000000000000000000008152600401620019169062002613565b60405180910390fd5b6001600083815260200190815260200160002060030160009054906101000a900473ffffffffffffffffffffffffffffffffffffffff1673ffffffffffffffffffffffffffffffffffffffff163373ffffffffffffffffffffffffffffffffffffffff1614620019c6576040517f08c379a0000000000000000000000000000000000000000000000000000000008152600401620019bd9062002679565b60405180910390fd5b60026001600084815260200190815260200160002060000160146101000a81548160ff0219169083600381111562001a27577f4e487b7100000000000000000000000000000000000000000000000000000000600052602160045260246000fd5b02179055506001600083815260200190815260200160002060000160149054906101000a900460ff16600381111562001a89577f4e487b7100000000000000000000000000000000000000000000000000000000600052602160045260246000fd5b6001600084815260200190815260200160002060030160009054906101000a900473ffffffffffffffffffffffffffffffffffffffff1673ffffffffffffffffffffffffffffffffffffffff166001600085815260200190815260200160002060020160009054906101000a900473ffffffffffffffffffffffffffffffffffffffff1673ffffffffffffffffffffffffffffffffffffffff167f45d0aa64feeab6eca8bef30c040bea86add68665a07ca845f9fb2771f4b71c8760016000878152602001908152602001600020600101868673ffffffffffffffffffffffffffffffffffffffff16632d84b5c06040518163ffffffff1660e01b815260040160206040518083038186803b15801562001ba257600080fd5b505afa15801562001bb7573d6000803e3d6000fd5b505050506040513d601f19601f8201168201806040525081019062001bdd91906200211c565b8773ffffffffffffffffffffffffffffffffffffffff166399c47ae66040518163ffffffff1660e01b815260040160206040518083038186803b15801562001c2457600080fd5b505afa15801562001c39573d6000803e3d6000fd5b505050506040513d601f19601f8201168201806040525081019062001c5f91906200211c565b8873ffffffffffffffffffffffffffffffffffffffff166379100d6b6040518163ffffffff1660e01b815260040160206040518083038186803b15801562001ca657600080fd5b505afa15801562001cbb573d6000803e3d6000fd5b505050506040513d601f19601f8201168201806040525081019062001ce191906200211c565b8973ffffffffffffffffffffffffffffffffffffffff166352359b976040518163ffffffff1660e01b815260040160206040518083038186803b15801562001d2857600080fd5b505afa15801562001d3d573d6000803e3d6000fd5b505050506040513d601f19601f8201168201806040525081019062001d6391906200211c565b8a73ffffffffffffffffffffffffffffffffffffffff16633fa4f2456040518163ffffffff1660e01b815260040160206040518083038186803b15801562001daa57600080fd5b505afa15801562001dbf573d6000803e3d6000fd5b505050506040513d601f19601f8201168201806040525081019062001de591906200211c565b8b73ffffffffffffffffffffffffffffffffffffffff16639af1d35a6040518163ffffffff1660e01b815260040160206040518083038186803b15801562001e2c57600080fd5b505afa15801562001e41573d6000803e3d6000fd5b505050506040513d601f19601f8201168201806040525081019062001e6791906200211c565b60405162001e7d9897969594939291906200257e565b60405180910390a45050565b61080d8062002bb383390190565b82805462001ea590620028c1565b90600052602060002090601f01602090048101928262001ec9576000855562001f15565b82601f1062001ee457805160ff191683800117855562001f15565b8280016001018555821562001f15579182015b8281111562001f1457825182559160200191906001019062001ef7565b5b50905062001f24919062001f28565b5090565b5b8082111562001f4357600081600090555060010162001f29565b5090565b600062001f5e62001f58846200272a565b62002701565b90508281526020810184848401111562001f7757600080fd5b62001f848482856200287c565b509392505050565b60008151905062001f9d8162002b7e565b92915050565b600082601f83011262001fb557600080fd5b813562001fc784826020860162001f47565b91505092915050565b60008135905062001fe18162002b98565b92915050565b60008151905062001ff88162002b98565b92915050565b6000602082840312156200201157600080fd5b6000620020218482850162001f8c565b91505092915050565b600080600080600080600060e0888a0312156200204657600080fd5b600088013567ffffffffffffffff8111156200206157600080fd5b6200206f8a828b0162001fa3565b9750506020620020828a828b0162001fd0565b9650506040620020958a828b0162001fd0565b9550506060620020a88a828b0162001fd0565b9450506080620020bb8a828b0162001fd0565b93505060a0620020ce8a828b0162001fd0565b92505060c0620020e18a828b0162001fd0565b91505092959891949750929550565b6000602082840312156200210357600080fd5b6000620021138482850162001fd0565b91505092915050565b6000602082840312156200212f57600080fd5b60006200213f8482850162001fe7565b91505092915050565b620021538162002791565b82525050565b6200216481620027f0565b82525050565b620021758162002818565b82525050565b620021868162002840565b82525050565b620021978162002868565b82525050565b6000620021aa8262002775565b620021b6818562002780565b9350620021c88185602086016200288b565b620021d38162002a37565b840191505092915050565b60008154620021ed81620028c1565b620021f9818662002780565b945060018216600081146200221757600181146200222a5762002261565b60ff198316865260208601935062002261565b620022358562002760565b60005b83811015620022595781548189015260018201915060208101905062002238565b808801955050505b50505092915050565b60006200227960178362002780565b9150620022868262002a48565b602082019050919050565b6000620022a0601b8362002780565b9150620022ad8262002a71565b602082019050919050565b6000620022c760158362002780565b9150620022d48262002a9a565b602082019050919050565b6000620022ee60198362002780565b9150620022fb8262002ac3565b602082019050919050565b60006200231560188362002780565b9150620023228262002aec565b602082019050919050565b60006200233c60158362002780565b9150620023498262002b15565b602082019050919050565b60006200236360198362002780565b9150620023708262002b3e565b602082019050919050565b6200238681620027e6565b82525050565b6000602082019050620023a3600083018462002148565b92915050565b6000606082019050620023c0600083018662002148565b620023cf602083018562002148565b620023de60408301846200237b565b949350505050565b600061012082019050620023fe600083018c6200216a565b6200240d602083018b62002159565b6200241c604083018a6200237b565b6200242b60608301896200237b565b6200243a60808301886200237b565b6200244960a08301876200237b565b6200245860c08301866200237b565b6200246760e08301856200237b565b620024776101008301846200237b565b9a9950505050505050505050565b600060a0820190506200249c60008301886200217b565b620024ab60208301876200218c565b8181036040830152620024bf81866200219d565b9050620024d0606083018562002148565b620024df608083018462002148565b9695505050505050565b600061010082019050818103600083015262002506818b6200219d565b905062002517602083018a6200237b565b6200252660408301896200237b565b6200253560608301886200237b565b6200254460808301876200237b565b6200255360a08301866200237b565b6200256260c08301856200237b565b6200257160e08301846200237b565b9998505050505050505050565b60006101008201905081810360008301526200259b818b620021de565b9050620025ac602083018a6200237b565b620025bb60408301896200237b565b620025ca60608301886200237b565b620025d960808301876200237b565b620025e860a08301866200237b565b620025f760c08301856200237b565b6200260660e08301846200237b565b9998505050505050505050565b600060208201905081810360008301526200262e816200226a565b9050919050565b60006020820190508181036000830152620026508162002291565b9050919050565b600060208201905081810360008301526200267281620022b8565b9050919050565b600060208201905081810360008301526200269481620022df565b9050919050565b60006020820190508181036000830152620026b68162002306565b9050919050565b60006020820190508181036000830152620026d8816200232d565b9050919050565b60006020820190508181036000830152620026fa8162002354565b9050919050565b60006200270d62002720565b90506200271b8282620028f7565b919050565b6000604051905090565b600067ffffffffffffffff82111562002748576200274762002a08565b5b620027538262002a37565b9050602081019050919050565b60008190508160005260206000209050919050565b600081519050919050565b600082825260208201905092915050565b60006200279e82620027c6565b9050919050565b60008115159050919050565b6000819050620027c18262002b67565b919050565b600073ffffffffffffffffffffffffffffffffffffffff82169050919050565b6000819050919050565b6000620027fd8262002804565b9050919050565b60006200281182620027c6565b9050919050565b600062002825826200282c565b9050919050565b60006200283982620027c6565b9050919050565b60006200284d8262002854565b9050919050565b60006200286182620027c6565b9050919050565b60006200287582620027b1565b9050919050565b82818337600083830152505050565b60005b83811015620028ab5780820151818401526020810190506200288e565b83811115620028bb576000848401525b50505050565b60006002820490506001821680620028da57607f821691505b60208210811415620028f157620028f0620029d9565b5b50919050565b620029028262002a37565b810181811067ffffffffffffffff8211171562002924576200292362002a08565b5b80604052505050565b60006200293a82620027e6565b91507fffffffffffffffffffffffffffffffffffffffffffffffffffffffffffffffff82141562002970576200296f6200297b565b5b600182019050919050565b7f4e487b7100000000000000000000000000000000000000000000000000000000600052601160045260246000fd5b7f4e487b7100000000000000000000000000000000000000000000000000000000600052602160045260246000fd5b7f4e487b7100000000000000000000000000000000000000000000000000000000600052602260045260246000fd5b7f4e487b7100000000000000000000000000000000000000000000000000000000600052604160045260246000fd5b6000601f19601f8301169050919050565b7f52657175657374206e6f74206f6e2064656c6976657279000000000000000000600082015250565b7f4e6f7420656e6f75676820746f6b656e7320696e2077616c6c65740000000000600082015250565b7f54686973206973206e6f7420796f7572206974656d0000000000000000000000600082015250565b7f54686973206973206e6f7420796f75722064656c697665727900000000000000600082015250565b7f52657175657374206973206e6f7420617661696c61626c650000000000000000600082015250565b7f52657175657374206e6f742064656c6976657265640000000000000000000000600082015250565b7f506c65617365206465706f7369742066756c6c207374616b6500000000000000600082015250565b6004811062002b7b5762002b7a620029aa565b5b50565b62002b8981620027a5565b811462002b9557600080fd5b50565b62002ba381620027e6565b811462002baf57600080fd5b5056fe608060405234801561001057600080fd5b5060405161080d38038061080d83398181016040528101906100329190610251565b88600960006101000a81548173ffffffffffffffffffffffffffffffffffffffff021916908373ffffffffffffffffffffffffffffffffffffffff16021790555087600a60006101000a81548173ffffffffffffffffffffffffffffffffffffffff021916908373ffffffffffffffffffffffffffffffffffffffff16021790555086600181905550856002819055508460038190555083600481905550826005819055508160068190555080600781905550600a60009054906101000a900473ffffffffffffffffffffffffffffffffffffffff1673ffffffffffffffffffffffffffffffffffffffff166339509351600960009054906101000a900473ffffffffffffffffffffffffffffffffffffffff16600654600554610156919061035e565b6040518363ffffffff1660e01b8152600401610173929190610335565b602060405180830381600087803b15801561018d57600080fd5b505af11580156101a1573d6000803e3d6000fd5b505050506040513d601f19601f820116820180604052508101906101c59190610228565b505050505050505050506104ab565b6000815190506101e38161044f565b92915050565b6000815190506101f881610466565b92915050565b60008151905061020d8161047d565b92915050565b60008151905061022281610494565b92915050565b60006020828403121561023a57600080fd5b6000610248848285016101d4565b91505092915050565b60008060008060008060008060006101208a8c03121561027057600080fd5b600061027e8c828d016101fe565b995050602061028f8c828d016101e9565b98505060406102a08c828d01610213565b97505060606102b18c828d01610213565b96505060806102c28c828d01610213565b95505060a06102d38c828d01610213565b94505060c06102e48c828d01610213565b93505060e06102f58c828d01610213565b9250506101006103078c828d01610213565b9150509295985092959850929598565b610320816103b4565b82525050565b61032f81610416565b82525050565b600060408201905061034a6000830185610317565b6103576020830184610326565b9392505050565b600061036982610416565b915061037483610416565b9250827fffffffffffffffffffffffffffffffffffffffffffffffffffffffffffffffff038211156103a9576103a8610420565b5b828201905092915050565b60006103bf826103f6565b9050919050565b60008115159050919050565b60006103dd826103b4565b9050919050565b60006103ef826103b4565b9050919050565b600073ffffffffffffffffffffffffffffffffffffffff82169050919050565b6000819050919050565b7f4e487b7100000000000000000000000000000000000000000000000000000000600052601160045260246000fd5b610458816103c6565b811461046357600080fd5b50565b61046f816103d2565b811461047a57600080fd5b50565b610486816103e4565b811461049157600080fd5b50565b61049d81610416565b81146104a857600080fd5b50565b610353806104ba6000396000f3fe60806040526004361061008a5760003560e01c806379100d6b1161005957806379100d6b1461014257806399c47ae61461016d5780639af1d35a14610198578063c2bd8119146101c3578063d16a5335146101ee57610091565b80632986c0e5146100965780632d84b5c0146100c15780633fa4f245146100ec57806352359b971461011757610091565b3661009157005b600080fd5b3480156100a257600080fd5b506100ab610219565b6040516100b891906102c6565b60405180910390f35b3480156100cd57600080fd5b506100d661021f565b6040516100e391906102c6565b60405180910390f35b3480156100f857600080fd5b50610101610225565b60405161010e91906102c6565b60405180910390f35b34801561012357600080fd5b5061012c61022b565b60405161013991906102c6565b60405180910390f35b34801561014e57600080fd5b50610157610231565b60405161016491906102c6565b60405180910390f35b34801561017957600080fd5b50610182610237565b60405161018f91906102c6565b60405180910390f35b3480156101a457600080fd5b506101ad61023d565b6040516101ba91906102c6565b60405180910390f35b3480156101cf57600080fd5b506101d8610243565b6040516101e591906102ab565b60405180910390f35b3480156101fa57600080fd5b50610203610269565b60405161021091906102ab565b60405180910390f35b60075481565b60015481565b60055481565b60045481565b60035481565b60025481565b60065481565b600860009054906101000a900473ffffffffffffffffffffffffffffffffffffffff1681565b60008054906101000a900473ffffffffffffffffffffffffffffffffffffffff1681565b610296816102e1565b82525050565b6102a581610313565b82525050565b60006020820190506102c0600083018461028d565b92915050565b60006020820190506102db600083018461029c565b92915050565b60006102ec826102f3565b9050919050565b600073ffffffffffffffffffffffffffffffffffffffff82169050919050565b600081905091905056fea2646970667358221220bb0a0aba6ffcdcdda916d48a0ce0b794d19b53662efac90ad309be02081b57aa64736f6c63430008040033a2646970667358221220590e162214313c09c10e71ee9b8c9f835f5142f50bd363575d87a7b51624696564736f6c63430008040033",
  "immutableReferences": {},
  "source": "// SPDX-License-Identifier: MIT\r\npragma solidity ^0.8.4;\r\n\r\nimport \"./Request.sol\";\r\nimport \"./ChiralToken.sol\";\r\n\r\ncontract RequestManager {\r\n    ChiralToken tokenContract;\r\n\r\n    constructor(ChiralToken newtoken) {\r\n        tokenContract = newtoken;\r\n    }\r\n\r\n    struct S_Request {\r\n        Request request;\r\n        RequestManager.SupplyChainSteps step;\r\n        string identifier;\r\n        address pickupAddress;\r\n        address deliveryAddress;\r\n    }\r\n    mapping(uint256 => S_Request) public requests;\r\n    uint256 index;\r\n\r\n    enum SupplyChainSteps {Created, Accepted, Delivered, Received}\r\n\r\n    event DisplayStep(\r\n        address indexed pickupAddress,\r\n        address indexed deliveryAddress,\r\n        string identifier,\r\n        uint256 index,\r\n        uint256 pickup_lat,\r\n        uint256 pickup_lng,\r\n        uint256 destination_lat,\r\n        uint256 destination_lng,\r\n        uint256 value,\r\n        uint256 fees,\r\n        uint256 indexed _step\r\n    );\r\n\r\n    function createRequest(\r\n        string memory identifier,\r\n        uint256 pickup_lat,\r\n        uint256 pickup_lng,\r\n        uint256 destination_lat,\r\n        uint256 destination_lng,\r\n        uint256 value,\r\n        uint256 fees\r\n    ) public {\r\n        require(\r\n            tokenContract.balanceOf(msg.sender) > fees,\r\n            \"Not enough tokens in wallet\"\r\n        );\r\n        Request request =\r\n            new Request(\r\n                this,\r\n                tokenContract,\r\n                pickup_lat,\r\n                pickup_lng,\r\n                destination_lat,\r\n                destination_lng,\r\n                value,\r\n                fees,\r\n                index\r\n            );\r\n        requests[index].request = request;\r\n        requests[index].step = SupplyChainSteps.Created;\r\n        requests[index].identifier = identifier;\r\n        tokenContract.transferFrom(msg.sender, address(request), fees);\r\n        requests[index].pickupAddress = msg.sender;\r\n        emit DisplayStep(\r\n            requests[index].pickupAddress,\r\n            requests[index].deliveryAddress,\r\n            identifier,\r\n            index,\r\n            pickup_lat,\r\n            pickup_lng,\r\n            destination_lat,\r\n            destination_lng,\r\n            value,\r\n            fees,\r\n            uint256(requests[index].step)\r\n        );\r\n        index++;\r\n    }\r\n\r\n    function triggerAccepted(uint256 _index) public {\r\n        Request request = requests[_index].request;\r\n        require(\r\n            requests[_index].step == SupplyChainSteps.Created,\r\n            \"Request is not available\"\r\n        );\r\n        require(\r\n            tokenContract.balanceOf(msg.sender) > request.value(),\r\n            \"Please deposit full stake\"\r\n        );\r\n        tokenContract.transferFrom(\r\n            msg.sender,\r\n            address(request),\r\n            request.value()\r\n        );\r\n        requests[_index].deliveryAddress = msg.sender;\r\n        requests[_index].step = SupplyChainSteps.Accepted;\r\n        emit DisplayStep(\r\n            requests[_index].pickupAddress,\r\n            requests[_index].deliveryAddress,\r\n            requests[_index].identifier,\r\n            _index,\r\n            request.pickup_lat(),\r\n            request.pickup_lng(),\r\n            request.destination_lat(),\r\n            request.destination_lng(),\r\n            request.value(),\r\n            request.fees(),\r\n            uint256(requests[_index].step)\r\n        );\r\n    }\r\n\r\n    function triggerDelivery(uint256 _index) public {\r\n        Request request = requests[_index].request;\r\n        require(\r\n            requests[_index].step == SupplyChainSteps.Accepted,\r\n            \"Request not on delivery\"\r\n        );\r\n        require(\r\n            msg.sender == requests[_index].deliveryAddress,\r\n            \"This is not your delivery\"\r\n        );\r\n        requests[_index].step = SupplyChainSteps.Delivered;\r\n        emit DisplayStep(\r\n            requests[_index].pickupAddress,\r\n            requests[_index].deliveryAddress,\r\n            requests[_index].identifier,\r\n            _index,\r\n            request.pickup_lat(),\r\n            request.pickup_lng(),\r\n            request.destination_lat(),\r\n            request.destination_lng(),\r\n            request.value(),\r\n            request.fees(),\r\n            uint256(requests[_index].step)\r\n        );\r\n    }\r\n\r\n    function triggerReceive(uint256 _index) public {\r\n        Request request = requests[_index].request;\r\n        require(\r\n            requests[_index].step == SupplyChainSteps.Delivered,\r\n            \"Request not delivered\"\r\n        );\r\n        require(\r\n            msg.sender == requests[_index].pickupAddress,\r\n            \"This is not your item\"\r\n        );\r\n        requests[_index].step = SupplyChainSteps.Received;\r\n        tokenContract.transferFrom(\r\n            address(request),\r\n            requests[_index].deliveryAddress,\r\n            tokenContract.balanceOf(address(request))\r\n        );\r\n        emit DisplayStep(\r\n            requests[_index].pickupAddress,\r\n            requests[_index].deliveryAddress,\r\n            requests[_index].identifier,\r\n            _index,\r\n            request.pickup_lat(),\r\n            request.pickup_lng(),\r\n            request.destination_lat(),\r\n            request.destination_lng(),\r\n            request.value(),\r\n            request.fees(),\r\n            uint256(requests[_index].step)\r\n        );\r\n    }\r\n}\r\n",
  "sourcePath": "C:\\Users\\pohsa\\Desktop\\Chiral\\contracts\\RequestManager.sol",
  "compiler": {
    "name": "solc",
    "version": "0.8.4+commit.c7e474f2.Emscripten.clang"
  },
  "schemaVersion": "3.4.1",
  "updatedAt": "2021-06-10T06:57:30.308Z",
  "networkType": "ethereum",
  "devdoc": {
    "kind": "dev",
    "methods": {},
    "version": 1
  },
  "userdoc": {
    "kind": "user",
    "methods": {},
    "version": 1
  }
}