{
  "contractName": "Request",
  "abi": [
    {
      "inputs": [
        {
          "internalType": "string",
          "name": "_identifier",
          "type": "string"
        },
        {
          "internalType": "address",
          "name": "_pickupAddress",
          "type": "address"
        },
        {
          "internalType": "uint256",
          "name": "_value",
          "type": "uint256"
        },
        {
          "internalType": "uint256",
          "name": "_fees",
          "type": "uint256"
        },
        {
          "internalType": "enum RequestManager.weights",
          "name": "_weight",
          "type": "uint8"
        },
        {
          "components": [
            {
              "internalType": "uint64",
              "name": "pickup_lat",
              "type": "uint64"
            },
            {
              "internalType": "uint64",
              "name": "pickup_lng",
              "type": "uint64"
            },
            {
              "internalType": "uint8",
              "name": "pickup_floor",
              "type": "uint8"
            },
            {
              "internalType": "uint16",
              "name": "pickup_unit",
              "type": "uint16"
            }
          ],
          "internalType": "struct RequestManager.S_pickup",
          "name": "_pickup",
          "type": "tuple"
        },
        {
          "components": [
            {
              "internalType": "uint64",
              "name": "destination_lat",
              "type": "uint64"
            },
            {
              "internalType": "uint64",
              "name": "destination_lng",
              "type": "uint64"
            },
            {
              "internalType": "uint8",
              "name": "destination_floor",
              "type": "uint8"
            },
            {
              "internalType": "uint16",
              "name": "destination_unit",
              "type": "uint16"
            }
          ],
          "internalType": "struct RequestManager.S_destination",
          "name": "_destination",
          "type": "tuple"
        },
        {
          "internalType": "contract ChiralToken",
          "name": "_tokenContract",
          "type": "address"
        },
        {
          "internalType": "contract RequestManager",
          "name": "_parentContract",
          "type": "address"
        }
      ],
      "stateMutability": "nonpayable",
      "type": "constructor"
    },
    {
      "inputs": [],
      "name": "courierAddress",
      "outputs": [
        {
          "internalType": "address",
          "name": "",
          "type": "address"
        }
      ],
      "stateMutability": "view",
      "type": "function"
    },
    {
      "inputs": [],
      "name": "destination",
      "outputs": [
        {
          "internalType": "uint64",
          "name": "destination_lat",
          "type": "uint64"
        },
        {
          "internalType": "uint64",
          "name": "destination_lng",
          "type": "uint64"
        },
        {
          "internalType": "uint8",
          "name": "destination_floor",
          "type": "uint8"
        },
        {
          "internalType": "uint16",
          "name": "destination_unit",
          "type": "uint16"
        }
      ],
      "stateMutability": "view",
      "type": "function"
    },
    {
      "inputs": [],
      "name": "fees",
      "outputs": [
        {
          "internalType": "uint256",
          "name": "",
          "type": "uint256"
        }
      ],
      "stateMutability": "view",
      "type": "function"
    },
    {
      "inputs": [],
      "name": "identifier",
      "outputs": [
        {
          "internalType": "string",
          "name": "",
          "type": "string"
        }
      ],
      "stateMutability": "view",
      "type": "function"
    },
    {
      "inputs": [],
      "name": "pickup",
      "outputs": [
        {
          "internalType": "uint64",
          "name": "pickup_lat",
          "type": "uint64"
        },
        {
          "internalType": "uint64",
          "name": "pickup_lng",
          "type": "uint64"
        },
        {
          "internalType": "uint8",
          "name": "pickup_floor",
          "type": "uint8"
        },
        {
          "internalType": "uint16",
          "name": "pickup_unit",
          "type": "uint16"
        }
      ],
      "stateMutability": "view",
      "type": "function"
    },
    {
      "inputs": [],
      "name": "pickupAddress",
      "outputs": [
        {
          "internalType": "address",
          "name": "",
          "type": "address"
        }
      ],
      "stateMutability": "view",
      "type": "function"
    },
    {
      "inputs": [],
      "name": "step",
      "outputs": [
        {
          "internalType": "enum RequestManager.steps",
          "name": "",
          "type": "uint8"
        }
      ],
      "stateMutability": "view",
      "type": "function"
    },
    {
      "inputs": [],
      "name": "value",
      "outputs": [
        {
          "internalType": "uint256",
          "name": "",
          "type": "uint256"
        }
      ],
      "stateMutability": "view",
      "type": "function"
    },
    {
      "inputs": [],
      "name": "weight",
      "outputs": [
        {
          "internalType": "enum RequestManager.weights",
          "name": "",
          "type": "uint8"
        }
      ],
      "stateMutability": "view",
      "type": "function"
    },
    {
      "inputs": [
        {
          "internalType": "address",
          "name": "_courierAddress",
          "type": "address"
        }
      ],
      "name": "setCourier",
      "outputs": [],
      "stateMutability": "nonpayable",
      "type": "function"
    },
    {
      "inputs": [
        {
          "internalType": "enum RequestManager.steps",
          "name": "_step",
          "type": "uint8"
        }
      ],
      "name": "setStep",
      "outputs": [],
      "stateMutability": "nonpayable",
      "type": "function"
    }
  ],
  "bytecode": "0x60806040523480156200001157600080fd5b50604051620013b9380380620013b983398181016040528101906200003791906200086a565b88600090805190602001906200004f929190620002fa565b5087600160006101000a81548173ffffffffffffffffffffffffffffffffffffffff021916908373ffffffffffffffffffffffffffffffffffffffff160217905550866003819055508560048190555084600560006101000a81548160ff02191690836002811115620000c757620000c66200096a565b5b021790555083600660008201518160000160006101000a81548167ffffffffffffffff021916908367ffffffffffffffff16021790555060208201518160000160086101000a81548167ffffffffffffffff021916908367ffffffffffffffff16021790555060408201518160000160106101000a81548160ff021916908360ff16021790555060608201518160000160116101000a81548161ffff021916908361ffff16021790555090505082600760008201518160000160006101000a81548167ffffffffffffffff021916908367ffffffffffffffff16021790555060208201518160000160086101000a81548167ffffffffffffffff021916908367ffffffffffffffff16021790555060408201518160000160106101000a81548160ff021916908360ff16021790555060608201518160000160116101000a81548161ffff021916908361ffff1602179055509050506000600860006101000a81548160ff021916908360058111156200024557620002446200096a565b5b02179055508173ffffffffffffffffffffffffffffffffffffffff1663095ea7b382888a620002759190620009c8565b6040518363ffffffff1660e01b81526004016200029492919062000a47565b602060405180830381600087803b158015620002af57600080fd5b505af1158015620002c4573d6000803e3d6000fd5b505050506040513d601f19601f82011682018060405250810190620002ea919062000ab1565b5050505050505050505062000b48565b828054620003089062000b12565b90600052602060002090601f0160209004810192826200032c576000855562000378565b82601f106200034757805160ff191683800117855562000378565b8280016001018555821562000378579182015b82811115620003775782518255916020019190600101906200035a565b5b5090506200038791906200038b565b5090565b5b80821115620003a65760008160009055506001016200038c565b5090565b6000604051905090565b600080fd5b600080fd5b600080fd5b600080fd5b6000601f19601f8301169050919050565b7f4e487b7100000000000000000000000000000000000000000000000000000000600052604160045260246000fd5b6200041382620003c8565b810181811067ffffffffffffffff82111715620004355762000434620003d9565b5b80604052505050565b60006200044a620003aa565b905062000458828262000408565b919050565b600067ffffffffffffffff8211156200047b576200047a620003d9565b5b6200048682620003c8565b9050602081019050919050565b60005b83811015620004b357808201518184015260208101905062000496565b83811115620004c3576000848401525b50505050565b6000620004e0620004da846200045d565b6200043e565b905082815260208101848484011115620004ff57620004fe620003c3565b5b6200050c84828562000493565b509392505050565b600082601f8301126200052c576200052b620003be565b5b81516200053e848260208601620004c9565b91505092915050565b600073ffffffffffffffffffffffffffffffffffffffff82169050919050565b6000620005748262000547565b9050919050565b620005868162000567565b81146200059257600080fd5b50565b600081519050620005a6816200057b565b92915050565b6000819050919050565b620005c181620005ac565b8114620005cd57600080fd5b50565b600081519050620005e181620005b6565b92915050565b60038110620005f557600080fd5b50565b6000815190506200060981620005e7565b92915050565b600080fd5b600067ffffffffffffffff82169050919050565b620006338162000614565b81146200063f57600080fd5b50565b600081519050620006538162000628565b92915050565b600060ff82169050919050565b620006718162000659565b81146200067d57600080fd5b50565b600081519050620006918162000666565b92915050565b600061ffff82169050919050565b620006b08162000697565b8114620006bc57600080fd5b50565b600081519050620006d081620006a5565b92915050565b600060808284031215620006ef57620006ee6200060f565b5b620006fb60806200043e565b905060006200070d8482850162000642565b6000830152506020620007238482850162000642565b6020830152506040620007398482850162000680565b60408301525060606200074f84828501620006bf565b60608301525092915050565b6000608082840312156200077457620007736200060f565b5b6200078060806200043e565b90506000620007928482850162000642565b6000830152506020620007a88482850162000642565b6020830152506040620007be8482850162000680565b6040830152506060620007d484828501620006bf565b60608301525092915050565b6000620007ed8262000567565b9050919050565b620007ff81620007e0565b81146200080b57600080fd5b50565b6000815190506200081f81620007f4565b92915050565b6000620008328262000567565b9050919050565b620008448162000825565b81146200085057600080fd5b50565b600081519050620008648162000839565b92915050565b60008060008060008060008060006101e08a8c03121562000890576200088f620003b4565b5b60008a015167ffffffffffffffff811115620008b157620008b0620003b9565b5b620008bf8c828d0162000514565b9950506020620008d28c828d0162000595565b9850506040620008e58c828d01620005d0565b9750506060620008f88c828d01620005d0565b96505060806200090b8c828d01620005f8565b95505060a06200091e8c828d01620006d6565b945050610120620009328c828d016200075b565b9350506101a0620009468c828d016200080e565b9250506101c06200095a8c828d0162000853565b9150509295985092959850929598565b7f4e487b7100000000000000000000000000000000000000000000000000000000600052602160045260246000fd5b7f4e487b7100000000000000000000000000000000000000000000000000000000600052601160045260246000fd5b6000620009d582620005ac565b9150620009e283620005ac565b9250827fffffffffffffffffffffffffffffffffffffffffffffffffffffffffffffffff0382111562000a1a5762000a1962000999565b5b828201905092915050565b62000a308162000567565b82525050565b62000a4181620005ac565b82525050565b600060408201905062000a5e600083018562000a25565b62000a6d602083018462000a36565b9392505050565b60008115159050919050565b62000a8b8162000a74565b811462000a9757600080fd5b50565b60008151905062000aab8162000a80565b92915050565b60006020828403121562000aca5762000ac9620003b4565b5b600062000ada8482850162000a9a565b91505092915050565b7f4e487b7100000000000000000000000000000000000000000000000000000000600052602260045260246000fd5b6000600282049050600182168062000b2b57607f821691505b6020821081141562000b425762000b4162000ae3565b5b50919050565b6108618062000b586000396000f3fe608060405234801561001057600080fd5b50600436106100a95760003560e01c8063a1aab33f11610071578063a1aab33f14610142578063b269681d14610160578063d16a533514610181578063e1e5b1ee1461019f578063e25fe175146101c0578063f8b89dfb146101de576100a9565b8063020c99c6146100ae57806333bfc8b4146100cc5780633fa4f245146100e85780637998a1c4146101065780639af1d35a14610124575b600080fd5b6100b66101fa565b6040516100c3919061047a565b60405180910390f35b6100e660048036038101906100e191906104c6565b610220565b005b6100f0610264565b6040516100fd919061050c565b60405180910390f35b61010e61026a565b60405161011b91906105c0565b60405180910390f35b61012c6102f8565b604051610139919061050c565b60405180910390f35b61014a6102fe565b6040516101579190610659565b60405180910390f35b610168610311565b60405161017894939291906106d0565b60405180910390f35b610189610372565b604051610196919061047a565b60405180910390f35b6101a7610398565b6040516101b794939291906106d0565b60405180910390f35b6101c86103f9565b6040516101d5919061075d565b60405180910390f35b6101f860048036038101906101f3919061079d565b61040c565b005b600260009054906101000a900473ffffffffffffffffffffffffffffffffffffffff1681565b80600260006101000a81548173ffffffffffffffffffffffffffffffffffffffff021916908373ffffffffffffffffffffffffffffffffffffffff16021790555050565b60035481565b60008054610277906107f9565b80601f01602080910402602001604051908101604052809291908181526020018280546102a3906107f9565b80156102f05780601f106102c5576101008083540402835291602001916102f0565b820191906000526020600020905b8154815290600101906020018083116102d357829003601f168201915b505050505081565b60045481565b600560009054906101000a900460ff1681565b60078060000160009054906101000a900467ffffffffffffffff16908060000160089054906101000a900467ffffffffffffffff16908060000160109054906101000a900460ff16908060000160119054906101000a900461ffff16905084565b600160009054906101000a900473ffffffffffffffffffffffffffffffffffffffff1681565b60068060000160009054906101000a900467ffffffffffffffff16908060000160089054906101000a900467ffffffffffffffff16908060000160109054906101000a900460ff16908060000160119054906101000a900461ffff16905084565b600860009054906101000a900460ff1681565b80600860006101000a81548160ff02191690836005811115610431576104306105e2565b5b021790555050565b600073ffffffffffffffffffffffffffffffffffffffff82169050919050565b600061046482610439565b9050919050565b61047481610459565b82525050565b600060208201905061048f600083018461046b565b92915050565b600080fd5b6104a381610459565b81146104ae57600080fd5b50565b6000813590506104c08161049a565b92915050565b6000602082840312156104dc576104db610495565b5b60006104ea848285016104b1565b91505092915050565b6000819050919050565b610506816104f3565b82525050565b600060208201905061052160008301846104fd565b92915050565b600081519050919050565b600082825260208201905092915050565b60005b83811015610561578082015181840152602081019050610546565b83811115610570576000848401525b50505050565b6000601f19601f8301169050919050565b600061059282610527565b61059c8185610532565b93506105ac818560208601610543565b6105b581610576565b840191505092915050565b600060208201905081810360008301526105da8184610587565b905092915050565b7f4e487b7100000000000000000000000000000000000000000000000000000000600052602160045260246000fd5b60038110610622576106216105e2565b5b50565b600081905061063382610611565b919050565b600061064382610625565b9050919050565b61065381610638565b82525050565b600060208201905061066e600083018461064a565b92915050565b600067ffffffffffffffff82169050919050565b61069181610674565b82525050565b600060ff82169050919050565b6106ad81610697565b82525050565b600061ffff82169050919050565b6106ca816106b3565b82525050565b60006080820190506106e56000830187610688565b6106f26020830186610688565b6106ff60408301856106a4565b61070c60608301846106c1565b95945050505050565b60068110610726576107256105e2565b5b50565b600081905061073782610715565b919050565b600061074782610729565b9050919050565b6107578161073c565b82525050565b6000602082019050610772600083018461074e565b92915050565b6006811061078557600080fd5b50565b60008135905061079781610778565b92915050565b6000602082840312156107b3576107b2610495565b5b60006107c184828501610788565b91505092915050565b7f4e487b7100000000000000000000000000000000000000000000000000000000600052602260045260246000fd5b6000600282049050600182168061081157607f821691505b60208210811415610825576108246107ca565b5b5091905056fea2646970667358221220ac66e396adfcae7eac1b956b2bc44e23d20edbe56e8a4c8f3e5f7abef134b22564736f6c63430008090033",
  "immutableReferences": {},
  "source": "// SPDX-License-Identifier: MIT\r\npragma solidity 0.8.9;\r\n\r\nimport \"./RequestManager.sol\";\r\nimport \"./ChiralToken.sol\";\r\n\r\ncontract Request {\r\n    string public identifier;\r\n    address public pickupAddress;\r\n    address public courierAddress;\r\n    uint256 public value;\r\n    uint256 public fees;\r\n    RequestManager.weights public weight;\r\n    RequestManager.S_pickup public pickup;\r\n    RequestManager.S_destination public destination;\r\n    RequestManager.steps public step;\r\n\r\n    constructor(\r\n        string memory _identifier,\r\n        address _pickupAddress,\r\n        uint256 _value,\r\n        uint256 _fees,\r\n        RequestManager.weights _weight,\r\n        RequestManager.S_pickup memory _pickup,\r\n        RequestManager.S_destination memory _destination,\r\n        ChiralToken _tokenContract,\r\n        RequestManager _parentContract\r\n    ) {\r\n        identifier = _identifier;\r\n        pickupAddress = _pickupAddress;\r\n        value = _value;\r\n        fees = _fees;\r\n        weight = _weight;\r\n        pickup = _pickup;\r\n        destination = _destination;\r\n        step = RequestManager.steps.Created;\r\n        _tokenContract.approve(address(_parentContract), _value + _fees);\r\n    }\r\n\r\n    function setCourier(address _courierAddress) public {\r\n        courierAddress = _courierAddress;\r\n    }\r\n\r\n    function setStep(RequestManager.steps _step) public {\r\n        step = _step;\r\n    }\r\n}\r\n",
  "sourcePath": "C:\\Users\\pohsa_oc6mcgn\\Documents\\GitHub\\Chiral\\contracts\\Request.sol",
  "compiler": {
    "name": "solc",
    "version": "0.8.9+commit.e5eed63a.Emscripten.clang"
  },
  "schemaVersion": "3.4.1",
  "updatedAt": "2021-10-24T09:44:02.684Z",
  "devdoc": {
    "kind": "dev",
    "methods": {},
    "version": 1
  },
  "userdoc": {
    "kind": "user",
    "methods": {},
    "version": 1
  }
}