{
  "contractName": "RequestManager",
  "abi": [
    {
      "inputs": [
        {
          "internalType": "contract ChiralToken",
          "name": "newtoken",
          "type": "address"
        },
        {
          "internalType": "address",
          "name": "_forwarder",
          "type": "address"
        }
      ],
      "stateMutability": "nonpayable",
      "type": "constructor"
    },
    {
      "anonymous": false,
      "inputs": [
        {
          "indexed": true,
          "internalType": "address",
          "name": "pickupAddress",
          "type": "address"
        },
        {
          "indexed": true,
          "internalType": "address",
          "name": "deliveryAddress",
          "type": "address"
        },
        {
          "indexed": false,
          "internalType": "string",
          "name": "identifier",
          "type": "string"
        },
        {
          "indexed": false,
          "internalType": "uint64",
          "name": "index",
          "type": "uint64"
        },
        {
          "components": [
            {
              "internalType": "uint64",
              "name": "pickup_lat",
              "type": "uint64"
            },
            {
              "internalType": "uint64",
              "name": "pickup_lng",
              "type": "uint64"
            },
            {
              "internalType": "uint8",
              "name": "pickup_floor",
              "type": "uint8"
            },
            {
              "internalType": "uint16",
              "name": "pickup_unit",
              "type": "uint16"
            }
          ],
          "indexed": false,
          "internalType": "struct RequestManager.S_pickup",
          "name": "pickup",
          "type": "tuple"
        },
        {
          "components": [
            {
              "internalType": "uint64",
              "name": "destination_lat",
              "type": "uint64"
            },
            {
              "internalType": "uint64",
              "name": "destination_lng",
              "type": "uint64"
            },
            {
              "internalType": "uint8",
              "name": "destination_floor",
              "type": "uint8"
            },
            {
              "internalType": "uint16",
              "name": "destination_unit",
              "type": "uint16"
            }
          ],
          "indexed": false,
          "internalType": "struct RequestManager.S_destination",
          "name": "destination",
          "type": "tuple"
        },
        {
          "indexed": false,
          "internalType": "uint64",
          "name": "value",
          "type": "uint64"
        },
        {
          "indexed": false,
          "internalType": "uint64",
          "name": "fees",
          "type": "uint64"
        },
        {
          "indexed": true,
          "internalType": "uint8",
          "name": "_step",
          "type": "uint8"
        },
        {
          "indexed": false,
          "internalType": "uint8",
          "name": "_weight",
          "type": "uint8"
        }
      ],
      "name": "DisplayStep",
      "type": "event"
    },
    {
      "inputs": [],
      "name": "destination",
      "outputs": [
        {
          "internalType": "uint64",
          "name": "destination_lat",
          "type": "uint64"
        },
        {
          "internalType": "uint64",
          "name": "destination_lng",
          "type": "uint64"
        },
        {
          "internalType": "uint8",
          "name": "destination_floor",
          "type": "uint8"
        },
        {
          "internalType": "uint16",
          "name": "destination_unit",
          "type": "uint16"
        }
      ],
      "stateMutability": "view",
      "type": "function",
      "constant": true
    },
    {
      "inputs": [
        {
          "internalType": "address",
          "name": "forwarder",
          "type": "address"
        }
      ],
      "name": "isTrustedForwarder",
      "outputs": [
        {
          "internalType": "bool",
          "name": "",
          "type": "bool"
        }
      ],
      "stateMutability": "view",
      "type": "function",
      "constant": true
    },
    {
      "inputs": [],
      "name": "pickup",
      "outputs": [
        {
          "internalType": "uint64",
          "name": "pickup_lat",
          "type": "uint64"
        },
        {
          "internalType": "uint64",
          "name": "pickup_lng",
          "type": "uint64"
        },
        {
          "internalType": "uint8",
          "name": "pickup_floor",
          "type": "uint8"
        },
        {
          "internalType": "uint16",
          "name": "pickup_unit",
          "type": "uint16"
        }
      ],
      "stateMutability": "view",
      "type": "function",
      "constant": true
    },
    {
      "inputs": [
        {
          "internalType": "uint64",
          "name": "",
          "type": "uint64"
        }
      ],
      "name": "requests",
      "outputs": [
        {
          "internalType": "contract Request",
          "name": "request",
          "type": "address"
        },
        {
          "internalType": "enum RequestManager.SupplyChainSteps",
          "name": "step",
          "type": "uint8"
        },
        {
          "internalType": "string",
          "name": "identifier",
          "type": "string"
        },
        {
          "internalType": "address",
          "name": "pickupAddress",
          "type": "address"
        },
        {
          "internalType": "address",
          "name": "deliveryAddress",
          "type": "address"
        }
      ],
      "stateMutability": "view",
      "type": "function",
      "constant": true
    },
    {
      "inputs": [
        {
          "internalType": "string",
          "name": "identifier",
          "type": "string"
        },
        {
          "components": [
            {
              "internalType": "uint64",
              "name": "pickup_lat",
              "type": "uint64"
            },
            {
              "internalType": "uint64",
              "name": "pickup_lng",
              "type": "uint64"
            },
            {
              "internalType": "uint8",
              "name": "pickup_floor",
              "type": "uint8"
            },
            {
              "internalType": "uint16",
              "name": "pickup_unit",
              "type": "uint16"
            }
          ],
          "internalType": "struct RequestManager.S_pickup",
          "name": "_pickup",
          "type": "tuple"
        },
        {
          "components": [
            {
              "internalType": "uint64",
              "name": "destination_lat",
              "type": "uint64"
            },
            {
              "internalType": "uint64",
              "name": "destination_lng",
              "type": "uint64"
            },
            {
              "internalType": "uint8",
              "name": "destination_floor",
              "type": "uint8"
            },
            {
              "internalType": "uint16",
              "name": "destination_unit",
              "type": "uint16"
            }
          ],
          "internalType": "struct RequestManager.S_destination",
          "name": "_destination",
          "type": "tuple"
        },
        {
          "internalType": "uint64",
          "name": "value",
          "type": "uint64"
        },
        {
          "internalType": "uint64",
          "name": "fees",
          "type": "uint64"
        },
        {
          "internalType": "enum Request.weights",
          "name": "weight",
          "type": "uint8"
        }
      ],
      "name": "createRequest",
      "outputs": [],
      "stateMutability": "nonpayable",
      "type": "function"
    },
    {
      "inputs": [
        {
          "internalType": "uint64",
          "name": "_index",
          "type": "uint64"
        }
      ],
      "name": "triggerAccepted",
      "outputs": [],
      "stateMutability": "nonpayable",
      "type": "function"
    },
    {
      "inputs": [
        {
          "internalType": "uint64",
          "name": "_index",
          "type": "uint64"
        }
      ],
      "name": "triggerDelivery",
      "outputs": [],
      "stateMutability": "nonpayable",
      "type": "function"
    },
    {
      "inputs": [
        {
          "internalType": "uint64",
          "name": "_index",
          "type": "uint64"
        }
      ],
      "name": "triggerReceive",
      "outputs": [],
      "stateMutability": "nonpayable",
      "type": "function"
    },
    {
      "inputs": [
        {
          "internalType": "uint64",
          "name": "_index",
          "type": "uint64"
        }
      ],
      "name": "triggerCancel",
      "outputs": [],
      "stateMutability": "nonpayable",
      "type": "function"
    }
  ],
  "bytecode": "0x60a06040523480156200001157600080fd5b5060405162004767380380620047678339818101604052810190620000379190620000e6565b808073ffffffffffffffffffffffffffffffffffffffff1660808173ffffffffffffffffffffffffffffffffffffffff1660601b8152505050816000806101000a81548173ffffffffffffffffffffffffffffffffffffffff021916908373ffffffffffffffffffffffffffffffffffffffff1602179055505050620001a3565b600081519050620000c9816200016f565b92915050565b600081519050620000e08162000189565b92915050565b60008060408385031215620000fa57600080fd5b60006200010a85828601620000cf565b92505060206200011d85828601620000b8565b9150509250929050565b600062000134826200014f565b9050919050565b6000620001488262000127565b9050919050565b600073ffffffffffffffffffffffffffffffffffffffff82169050919050565b6200017a8162000127565b81146200018657600080fd5b50565b62000194816200013b565b8114620001a057600080fd5b50565b60805160601c6145a5620001c2600039600061125601526145a56000f3fe60806040523480156200001157600080fd5b5060043610620000a05760003560e01c80637243d02d116200006f5780637243d02d1462000155578063b222311e1462000175578063b269681d1462000195578063c455ad8c14620001ba578063e1e5b1ee14620001da57620000a0565b8063411010ec14620000a5578063513c000e14620000df57806354b1348514620000ff578063572b6c05146200011f575b600080fd5b620000c36004803603810190620000bd919062002f71565b620001ff565b604051620000d695949392919062003511565b60405180910390f35b620000fd6004803603810190620000f7919062002f71565b62000332565b005b6200011d600480360381019062000117919062002f71565b62000ac2565b005b6200013d600480360381019062000137919062002e0e565b62001252565b6040516200014c919062003487565b60405180910390f35b6200017360048036038101906200016d919062002e92565b620012aa565b005b6200019360048036038101906200018d919062002f71565b62001b11565b005b6200019f620020f3565b604051620001b19493929190620037b7565b60405180910390f35b620001d86004803603810190620001d2919062002f71565b62002154565b005b620001e462002a6f565b604051620001f69493929190620037b7565b60405180910390f35b60016020528060005260406000206000915090508060000160009054906101000a900473ffffffffffffffffffffffffffffffffffffffff16908060000160149054906101000a900460ff16908060010180546200025d9062003a5f565b80601f01602080910402602001604051908101604052809291908181526020018280546200028b9062003a5f565b8015620002dc5780601f10620002b057610100808354040283529160200191620002dc565b820191906000526020600020905b815481529060010190602001808311620002be57829003601f168201915b5050505050908060020160009054906101000a900473ffffffffffffffffffffffffffffffffffffffff16908060030160009054906101000a900473ffffffffffffffffffffffffffffffffffffffff16905085565b6000600160008367ffffffffffffffff1667ffffffffffffffff16815260200190815260200160002060000160009054906101000a900473ffffffffffffffffffffffffffffffffffffffff16905060006003811115620003bc577f4e487b7100000000000000000000000000000000000000000000000000000000600052602160045260246000fd5b600160008467ffffffffffffffff1667ffffffffffffffff16815260200190815260200160002060000160149054906101000a900460ff1660038111156200042d577f4e487b7100000000000000000000000000000000000000000000000000000000600052602160045260246000fd5b1462000470576040517f08c379a00000000000000000000000000000000000000000000000000000000081526004016200046790620036a7565b60405180910390fd5b600160008367ffffffffffffffff1667ffffffffffffffff16815260200190815260200160002060020160009054906101000a900473ffffffffffffffffffffffffffffffffffffffff1673ffffffffffffffffffffffffffffffffffffffff16620004db62002ad0565b73ffffffffffffffffffffffffffffffffffffffff161462000534576040517f08c379a00000000000000000000000000000000000000000000000000000000081526004016200052b90620036eb565b60405180910390fd5b6003600160008467ffffffffffffffff1667ffffffffffffffff16815260200190815260200160002060000160146101000a81548160ff02191690836003811115620005a9577f4e487b7100000000000000000000000000000000000000000000000000000000600052602160045260246000fd5b021790555060008054906101000a900473ffffffffffffffffffffffffffffffffffffffff1673ffffffffffffffffffffffffffffffffffffffff166323b872dd82600160008667ffffffffffffffff1667ffffffffffffffff16815260200190815260200160002060020160009054906101000a900473ffffffffffffffffffffffffffffffffffffffff1660008054906101000a900473ffffffffffffffffffffffffffffffffffffffff1673ffffffffffffffffffffffffffffffffffffffff166370a08231866040518263ffffffff1660e01b8152600401620006919190620033f0565b60206040518083038186803b158015620006aa57600080fd5b505afa158015620006bf573d6000803e3d6000fd5b505050506040513d601f19601f82011682018060405250810190620006e5919062002f45565b6040518463ffffffff1660e01b815260040162000705939291906200340d565b602060405180830381600087803b1580156200072057600080fd5b505af115801562000735573d6000803e3d6000fd5b505050506040513d601f19601f820116820180604052508101906200075b919062002e3a565b50600160008367ffffffffffffffff1667ffffffffffffffff16815260200190815260200160002060000160149054906101000a900460ff166003811115620007cd577f4e487b7100000000000000000000000000000000000000000000000000000000600052602160045260246000fd5b60ff16600160008467ffffffffffffffff1667ffffffffffffffff16815260200190815260200160002060030160009054906101000a900473ffffffffffffffffffffffffffffffffffffffff1673ffffffffffffffffffffffffffffffffffffffff16600160008567ffffffffffffffff1667ffffffffffffffff16815260200190815260200160002060020160009054906101000a900473ffffffffffffffffffffffffffffffffffffffff1673ffffffffffffffffffffffffffffffffffffffff167f366ee0ed18bc9117d91efd33ad2b83e97fbc35c8839014b14d42230d052e20b3600160008767ffffffffffffffff1667ffffffffffffffff16815260200190815260200160002060010186600360048873ffffffffffffffffffffffffffffffffffffffff16633fa4f2456040518163ffffffff1660e01b815260040160206040518083038186803b1580156200092957600080fd5b505afa1580156200093e573d6000803e3d6000fd5b505050506040513d601f19601f8201168201806040525081019062000964919062002f9d565b8973ffffffffffffffffffffffffffffffffffffffff16639af1d35a6040518163ffffffff1660e01b815260040160206040518083038186803b158015620009ab57600080fd5b505afa158015620009c0573d6000803e3d6000fd5b505050506040513d601f19601f82011682018060405250810190620009e6919062002f9d565b8a73ffffffffffffffffffffffffffffffffffffffff1663a1aab33f6040518163ffffffff1660e01b815260040160206040518083038186803b15801562000a2d57600080fd5b505afa15801562000a42573d6000803e3d6000fd5b505050506040513d601f19601f8201168201806040525081019062000a68919062002e66565b600281111562000aa1577f4e487b7100000000000000000000000000000000000000000000000000000000600052602160045260246000fd5b60405162000ab69796959493929190620035fd565b60405180910390a45050565b6000600160008367ffffffffffffffff1667ffffffffffffffff16815260200190815260200160002060000160009054906101000a900473ffffffffffffffffffffffffffffffffffffffff1690506002600381111562000b4c577f4e487b7100000000000000000000000000000000000000000000000000000000600052602160045260246000fd5b600160008467ffffffffffffffff1667ffffffffffffffff16815260200190815260200160002060000160149054906101000a900460ff16600381111562000bbd577f4e487b7100000000000000000000000000000000000000000000000000000000600052602160045260246000fd5b1462000c00576040517f08c379a000000000000000000000000000000000000000000000000000000000815260040162000bf79062003773565b60405180910390fd5b600160008367ffffffffffffffff1667ffffffffffffffff16815260200190815260200160002060020160009054906101000a900473ffffffffffffffffffffffffffffffffffffffff1673ffffffffffffffffffffffffffffffffffffffff1662000c6b62002ad0565b73ffffffffffffffffffffffffffffffffffffffff161462000cc4576040517f08c379a000000000000000000000000000000000000000000000000000000000815260040162000cbb90620036eb565b60405180910390fd5b6003600160008467ffffffffffffffff1667ffffffffffffffff16815260200190815260200160002060000160146101000a81548160ff0219169083600381111562000d39577f4e487b7100000000000000000000000000000000000000000000000000000000600052602160045260246000fd5b021790555060008054906101000a900473ffffffffffffffffffffffffffffffffffffffff1673ffffffffffffffffffffffffffffffffffffffff166323b872dd82600160008667ffffffffffffffff1667ffffffffffffffff16815260200190815260200160002060030160009054906101000a900473ffffffffffffffffffffffffffffffffffffffff1660008054906101000a900473ffffffffffffffffffffffffffffffffffffffff1673ffffffffffffffffffffffffffffffffffffffff166370a08231866040518263ffffffff1660e01b815260040162000e219190620033f0565b60206040518083038186803b15801562000e3a57600080fd5b505afa15801562000e4f573d6000803e3d6000fd5b505050506040513d601f19601f8201168201806040525081019062000e75919062002f45565b6040518463ffffffff1660e01b815260040162000e95939291906200340d565b602060405180830381600087803b15801562000eb057600080fd5b505af115801562000ec5573d6000803e3d6000fd5b505050506040513d601f19601f8201168201806040525081019062000eeb919062002e3a565b50600160008367ffffffffffffffff1667ffffffffffffffff16815260200190815260200160002060000160149054906101000a900460ff16600381111562000f5d577f4e487b7100000000000000000000000000000000000000000000000000000000600052602160045260246000fd5b60ff16600160008467ffffffffffffffff1667ffffffffffffffff16815260200190815260200160002060030160009054906101000a900473ffffffffffffffffffffffffffffffffffffffff1673ffffffffffffffffffffffffffffffffffffffff16600160008567ffffffffffffffff1667ffffffffffffffff16815260200190815260200160002060020160009054906101000a900473ffffffffffffffffffffffffffffffffffffffff1673ffffffffffffffffffffffffffffffffffffffff167f366ee0ed18bc9117d91efd33ad2b83e97fbc35c8839014b14d42230d052e20b3600160008767ffffffffffffffff1667ffffffffffffffff16815260200190815260200160002060010186600360048873ffffffffffffffffffffffffffffffffffffffff16633fa4f2456040518163ffffffff1660e01b815260040160206040518083038186803b158015620010b957600080fd5b505afa158015620010ce573d6000803e3d6000fd5b505050506040513d601f19601f82011682018060405250810190620010f4919062002f9d565b8973ffffffffffffffffffffffffffffffffffffffff16639af1d35a6040518163ffffffff1660e01b815260040160206040518083038186803b1580156200113b57600080fd5b505afa15801562001150573d6000803e3d6000fd5b505050506040513d601f19601f8201168201806040525081019062001176919062002f9d565b8a73ffffffffffffffffffffffffffffffffffffffff1663a1aab33f6040518163ffffffff1660e01b815260040160206040518083038186803b158015620011bd57600080fd5b505afa158015620011d2573d6000803e3d6000fd5b505050506040513d601f19601f82011682018060405250810190620011f8919062002e66565b600281111562001231577f4e487b7100000000000000000000000000000000000000000000000000000000600052602160045260246000fd5b604051620012469796959493929190620035fd565b60405180910390a45050565b60007f000000000000000000000000000000000000000000000000000000000000000073ffffffffffffffffffffffffffffffffffffffff168273ffffffffffffffffffffffffffffffffffffffff16149050919050565b8167ffffffffffffffff1660008054906101000a900473ffffffffffffffffffffffffffffffffffffffff1673ffffffffffffffffffffffffffffffffffffffff166370a08231620012fb62002ad0565b6040518263ffffffff1660e01b8152600401620013199190620033f0565b60206040518083038186803b1580156200133257600080fd5b505afa15801562001347573d6000803e3d6000fd5b505050506040513d601f19601f820116820180604052508101906200136d919062002f45565b11620013b0576040517f08c379a0000000000000000000000000000000000000000000000000000000008152600401620013a790620036c9565b60405180910390fd5b60003060008054906101000a900473ffffffffffffffffffffffffffffffffffffffff168585600260009054906101000a900467ffffffffffffffff1686604051620013fc9062002b11565b6200140d96959493929190620034a4565b604051809103906000f0801580156200142a573d6000803e3d6000fd5b50905085600360008201518160000160006101000a81548167ffffffffffffffff021916908367ffffffffffffffff16021790555060208201518160000160086101000a81548167ffffffffffffffff021916908367ffffffffffffffff16021790555060408201518160000160106101000a81548160ff021916908360ff16021790555060608201518160000160116101000a81548161ffff021916908361ffff16021790555090505084600460008201518160000160006101000a81548167ffffffffffffffff021916908367ffffffffffffffff16021790555060208201518160000160086101000a81548167ffffffffffffffff021916908367ffffffffffffffff16021790555060408201518160000160106101000a81548160ff021916908360ff16021790555060608201518160000160116101000a81548161ffff021916908361ffff1602179055509050508060016000600260009054906101000a900467ffffffffffffffff1667ffffffffffffffff1667ffffffffffffffff16815260200190815260200160002060000160006101000a81548173ffffffffffffffffffffffffffffffffffffffff021916908373ffffffffffffffffffffffffffffffffffffffff160217905550600060016000600260009054906101000a900467ffffffffffffffff1667ffffffffffffffff1667ffffffffffffffff16815260200190815260200160002060000160146101000a81548160ff0219169083600381111562001687577f4e487b7100000000000000000000000000000000000000000000000000000000600052602160045260246000fd5b02179055508660016000600260009054906101000a900467ffffffffffffffff1667ffffffffffffffff1667ffffffffffffffff1681526020019081526020016000206001019080519060200190620016e292919062002b1f565b5060008054906101000a900473ffffffffffffffffffffffffffffffffffffffff1673ffffffffffffffffffffffffffffffffffffffff166323b872dd6200172962002ad0565b83866040518463ffffffff1660e01b81526004016200174b939291906200344a565b602060405180830381600087803b1580156200176657600080fd5b505af11580156200177b573d6000803e3d6000fd5b505050506040513d601f19601f82011682018060405250810190620017a1919062002e3a565b50620017ac62002ad0565b60016000600260009054906101000a900467ffffffffffffffff1667ffffffffffffffff1667ffffffffffffffff16815260200190815260200160002060020160006101000a81548173ffffffffffffffffffffffffffffffffffffffff021916908373ffffffffffffffffffffffffffffffffffffffff16021790555060016000600260009054906101000a900467ffffffffffffffff1667ffffffffffffffff1667ffffffffffffffff16815260200190815260200160002060000160149054906101000a900460ff166003811115620018b1577f4e487b7100000000000000000000000000000000000000000000000000000000600052602160045260246000fd5b60ff1660016000600260009054906101000a900467ffffffffffffffff1667ffffffffffffffff1667ffffffffffffffff16815260200190815260200160002060030160009054906101000a900473ffffffffffffffffffffffffffffffffffffffff1673ffffffffffffffffffffffffffffffffffffffff1660016000600260009054906101000a900467ffffffffffffffff1667ffffffffffffffff1667ffffffffffffffff16815260200190815260200160002060020160009054906101000a900473ffffffffffffffffffffffffffffffffffffffff1673ffffffffffffffffffffffffffffffffffffffff167f366ee0ed18bc9117d91efd33ad2b83e97fbc35c8839014b14d42230d052e20b38a600260009054906101000a900467ffffffffffffffff16600360048b8b8a73ffffffffffffffffffffffffffffffffffffffff1663a1aab33f6040518163ffffffff1660e01b815260040160206040518083038186803b15801562001a2857600080fd5b505afa15801562001a3d573d6000803e3d6000fd5b505050506040513d601f19601f8201168201806040525081019062001a63919062002e66565b600281111562001a9c577f4e487b7100000000000000000000000000000000000000000000000000000000600052602160045260246000fd5b60405162001ab1979695949392919062003575565b60405180910390a46002600081819054906101000a900467ffffffffffffffff168092919062001ae19062003b43565b91906101000a81548167ffffffffffffffff021916908367ffffffffffffffff1602179055505050505050505050565b6000600160008367ffffffffffffffff1667ffffffffffffffff16815260200190815260200160002060000160009054906101000a900473ffffffffffffffffffffffffffffffffffffffff1690506001600381111562001b9b577f4e487b7100000000000000000000000000000000000000000000000000000000600052602160045260246000fd5b600160008467ffffffffffffffff1667ffffffffffffffff16815260200190815260200160002060000160149054906101000a900460ff16600381111562001c0c577f4e487b7100000000000000000000000000000000000000000000000000000000600052602160045260246000fd5b1462001c4f576040517f08c379a000000000000000000000000000000000000000000000000000000000815260040162001c469062003685565b60405180910390fd5b600160008367ffffffffffffffff1667ffffffffffffffff16815260200190815260200160002060030160009054906101000a900473ffffffffffffffffffffffffffffffffffffffff1673ffffffffffffffffffffffffffffffffffffffff1662001cba62002ad0565b73ffffffffffffffffffffffffffffffffffffffff161462001d13576040517f08c379a000000000000000000000000000000000000000000000000000000000815260040162001d0a906200370d565b60405180910390fd5b6002600160008467ffffffffffffffff1667ffffffffffffffff16815260200190815260200160002060000160146101000a81548160ff0219169083600381111562001d88577f4e487b7100000000000000000000000000000000000000000000000000000000600052602160045260246000fd5b0217905550600160008367ffffffffffffffff1667ffffffffffffffff16815260200190815260200160002060000160149054906101000a900460ff16600381111562001dfe577f4e487b7100000000000000000000000000000000000000000000000000000000600052602160045260246000fd5b60ff16600160008467ffffffffffffffff1667ffffffffffffffff16815260200190815260200160002060030160009054906101000a900473ffffffffffffffffffffffffffffffffffffffff1673ffffffffffffffffffffffffffffffffffffffff16600160008567ffffffffffffffff1667ffffffffffffffff16815260200190815260200160002060020160009054906101000a900473ffffffffffffffffffffffffffffffffffffffff1673ffffffffffffffffffffffffffffffffffffffff167f366ee0ed18bc9117d91efd33ad2b83e97fbc35c8839014b14d42230d052e20b3600160008767ffffffffffffffff1667ffffffffffffffff16815260200190815260200160002060010186600360048873ffffffffffffffffffffffffffffffffffffffff16633fa4f2456040518163ffffffff1660e01b815260040160206040518083038186803b15801562001f5a57600080fd5b505afa15801562001f6f573d6000803e3d6000fd5b505050506040513d601f19601f8201168201806040525081019062001f95919062002f9d565b8973ffffffffffffffffffffffffffffffffffffffff16639af1d35a6040518163ffffffff1660e01b815260040160206040518083038186803b15801562001fdc57600080fd5b505afa15801562001ff1573d6000803e3d6000fd5b505050506040513d601f19601f8201168201806040525081019062002017919062002f9d565b8a73ffffffffffffffffffffffffffffffffffffffff1663a1aab33f6040518163ffffffff1660e01b815260040160206040518083038186803b1580156200205e57600080fd5b505afa15801562002073573d6000803e3d6000fd5b505050506040513d601f19601f8201168201806040525081019062002099919062002e66565b6002811115620020d2577f4e487b7100000000000000000000000000000000000000000000000000000000600052602160045260246000fd5b604051620020e79796959493929190620035fd565b60405180910390a45050565b60048060000160009054906101000a900467ffffffffffffffff16908060000160089054906101000a900467ffffffffffffffff16908060000160109054906101000a900460ff16908060000160119054906101000a900461ffff16905084565b6000600160008367ffffffffffffffff1667ffffffffffffffff16815260200190815260200160002060000160009054906101000a900473ffffffffffffffffffffffffffffffffffffffff16905060006003811115620021de577f4e487b7100000000000000000000000000000000000000000000000000000000600052602160045260246000fd5b600160008467ffffffffffffffff1667ffffffffffffffff16815260200190815260200160002060000160149054906101000a900460ff1660038111156200224f577f4e487b7100000000000000000000000000000000000000000000000000000000600052602160045260246000fd5b1462002292576040517f08c379a0000000000000000000000000000000000000000000000000000000008152600401620022899062003751565b60405180910390fd5b8073ffffffffffffffffffffffffffffffffffffffff16633fa4f2456040518163ffffffff1660e01b815260040160206040518083038186803b158015620022d957600080fd5b505afa158015620022ee573d6000803e3d6000fd5b505050506040513d601f19601f8201168201806040525081019062002314919062002f9d565b67ffffffffffffffff1660008054906101000a900473ffffffffffffffffffffffffffffffffffffffff1673ffffffffffffffffffffffffffffffffffffffff166370a082316200236462002ad0565b6040518263ffffffff1660e01b8152600401620023829190620033f0565b60206040518083038186803b1580156200239b57600080fd5b505afa158015620023b0573d6000803e3d6000fd5b505050506040513d601f19601f82011682018060405250810190620023d6919062002f45565b1162002419576040517f08c379a0000000000000000000000000000000000000000000000000000000008152600401620024109062003795565b60405180910390fd5b600160008367ffffffffffffffff1667ffffffffffffffff16815260200190815260200160002060020160009054906101000a900473ffffffffffffffffffffffffffffffffffffffff1673ffffffffffffffffffffffffffffffffffffffff166200248462002ad0565b73ffffffffffffffffffffffffffffffffffffffff161415620024de576040517f08c379a0000000000000000000000000000000000000000000000000000000008152600401620024d5906200372f565b60405180910390fd5b60008054906101000a900473ffffffffffffffffffffffffffffffffffffffff1673ffffffffffffffffffffffffffffffffffffffff166323b872dd6200252462002ad0565b838473ffffffffffffffffffffffffffffffffffffffff16633fa4f2456040518163ffffffff1660e01b815260040160206040518083038186803b1580156200256c57600080fd5b505afa15801562002581573d6000803e3d6000fd5b505050506040513d601f19601f82011682018060405250810190620025a7919062002f9d565b6040518463ffffffff1660e01b8152600401620025c7939291906200344a565b602060405180830381600087803b158015620025e257600080fd5b505af1158015620025f7573d6000803e3d6000fd5b505050506040513d601f19601f820116820180604052508101906200261d919062002e3a565b506200262862002ad0565b600160008467ffffffffffffffff1667ffffffffffffffff16815260200190815260200160002060030160006101000a81548173ffffffffffffffffffffffffffffffffffffffff021916908373ffffffffffffffffffffffffffffffffffffffff16021790555060018060008467ffffffffffffffff1667ffffffffffffffff16815260200190815260200160002060000160146101000a81548160ff0219169083600381111562002704577f4e487b7100000000000000000000000000000000000000000000000000000000600052602160045260246000fd5b0217905550600160008367ffffffffffffffff1667ffffffffffffffff16815260200190815260200160002060000160149054906101000a900460ff1660038111156200277a577f4e487b7100000000000000000000000000000000000000000000000000000000600052602160045260246000fd5b60ff16600160008467ffffffffffffffff1667ffffffffffffffff16815260200190815260200160002060030160009054906101000a900473ffffffffffffffffffffffffffffffffffffffff1673ffffffffffffffffffffffffffffffffffffffff16600160008567ffffffffffffffff1667ffffffffffffffff16815260200190815260200160002060020160009054906101000a900473ffffffffffffffffffffffffffffffffffffffff1673ffffffffffffffffffffffffffffffffffffffff167f366ee0ed18bc9117d91efd33ad2b83e97fbc35c8839014b14d42230d052e20b3600160008767ffffffffffffffff1667ffffffffffffffff16815260200190815260200160002060010186600360048873ffffffffffffffffffffffffffffffffffffffff16633fa4f2456040518163ffffffff1660e01b815260040160206040518083038186803b158015620028d657600080fd5b505afa158015620028eb573d6000803e3d6000fd5b505050506040513d601f19601f8201168201806040525081019062002911919062002f9d565b8973ffffffffffffffffffffffffffffffffffffffff16639af1d35a6040518163ffffffff1660e01b815260040160206040518083038186803b1580156200295857600080fd5b505afa1580156200296d573d6000803e3d6000fd5b505050506040513d601f19601f8201168201806040525081019062002993919062002f9d565b8a73ffffffffffffffffffffffffffffffffffffffff1663a1aab33f6040518163ffffffff1660e01b815260040160206040518083038186803b158015620029da57600080fd5b505afa158015620029ef573d6000803e3d6000fd5b505050506040513d601f19601f8201168201806040525081019062002a15919062002e66565b600281111562002a4e577f4e487b7100000000000000000000000000000000000000000000000000000000600052602160045260246000fd5b60405162002a639796959493929190620035fd565b60405180910390a45050565b60038060000160009054906101000a900467ffffffffffffffff16908060000160089054906101000a900467ffffffffffffffff16908060000160109054906101000a900460ff16908060000160119054906101000a900461ffff16905084565b600062002add3362001252565b1562002af357601436033560601c905062002b05565b62002afd62002b09565b905062002b06565b5b90565b600033905090565b6106a98062003ec783390190565b82805462002b2d9062003a5f565b90600052602060002090601f01602090048101928262002b51576000855562002b9d565b82601f1062002b6c57805160ff191683800117855562002b9d565b8280016001018555821562002b9d579182015b8281111562002b9c57825182559160200191906001019062002b7f565b5b50905062002bac919062002bb0565b5090565b5b8082111562002bcb57600081600090555060010162002bb1565b5090565b600062002be662002be0846200382d565b62003804565b90508281526020810184848401111562002bff57600080fd5b62002c0c84828562003a1a565b509392505050565b60008135905062002c258162003e19565b92915050565b60008151905062002c3c8162003e33565b92915050565b60008135905062002c538162003e4d565b92915050565b60008151905062002c6a8162003e4d565b92915050565b600082601f83011262002c8257600080fd5b813562002c9484826020860162002bcf565b91505092915050565b60006080828403121562002cb057600080fd5b62002cbc608062003804565b9050600062002cce8482850162002dc9565b600083015250602062002ce48482850162002dc9565b602083015250604062002cfa8482850162002df7565b604083015250606062002d108482850162002d9b565b60608301525092915050565b60006080828403121562002d2f57600080fd5b62002d3b608062003804565b9050600062002d4d8482850162002dc9565b600083015250602062002d638482850162002dc9565b602083015250604062002d798482850162002df7565b604083015250606062002d8f8482850162002d9b565b60608301525092915050565b60008135905062002dac8162003e5e565b92915050565b60008151905062002dc38162003e78565b92915050565b60008135905062002dda8162003e92565b92915050565b60008151905062002df18162003e92565b92915050565b60008135905062002e088162003eac565b92915050565b60006020828403121562002e2157600080fd5b600062002e318482850162002c14565b91505092915050565b60006020828403121562002e4d57600080fd5b600062002e5d8482850162002c2b565b91505092915050565b60006020828403121562002e7957600080fd5b600062002e898482850162002c59565b91505092915050565b600080600080600080610180878903121562002ead57600080fd5b600087013567ffffffffffffffff81111562002ec857600080fd5b62002ed689828a0162002c70565b965050602062002ee989828a0162002d1c565b95505060a062002efc89828a0162002c9d565b94505061012062002f1089828a0162002dc9565b93505061014062002f2489828a0162002dc9565b92505061016062002f3889828a0162002c42565b9150509295509295509295565b60006020828403121562002f5857600080fd5b600062002f688482850162002db2565b91505092915050565b60006020828403121562002f8457600080fd5b600062002f948482850162002dc9565b91505092915050565b60006020828403121562002fb057600080fd5b600062002fc08482850162002de0565b91505092915050565b62002fd481620038c3565b82525050565b62002fe581620038d7565b82525050565b62002ff68162003966565b82525050565b62003007816200398e565b82525050565b6200301881620039b6565b82525050565b6200302981620039de565b82525050565b6200303a81620039f2565b82525050565b60006200304d8262003878565b62003059818562003883565b93506200306b81856020860162003a29565b620030768162003c35565b840191505092915050565b60008154620030908162003a5f565b6200309c818662003883565b94506001821660008114620030ba5760018114620030cd5762003104565b60ff198316865260208601935062003104565b620030d88562003863565b60005b83811015620030fc57815481890152600182019150602081019050620030db565b808801955050505b50505092915050565b60006200311c60178362003883565b9150620031298262003c7a565b602082019050919050565b60006200314360188362003883565b9150620031508262003ca3565b602082019050919050565b60006200316a601b8362003883565b9150620031778262003ccc565b602082019050919050565b60006200319160158362003883565b91506200319e8262003cf5565b602082019050919050565b6000620031b860198362003883565b9150620031c58262003d1e565b602082019050919050565b6000620031df60188362003883565b9150620031ec8262003d47565b602082019050919050565b60006200320660188362003883565b9150620032138262003d70565b602082019050919050565b60006200322d60158362003883565b91506200323a8262003d99565b602082019050919050565b60006200325460198362003883565b9150620032618262003dc2565b602082019050919050565b608082016000808301549050620032838162003a95565b620032926000860182620033ac565b506200329e8162003aef565b620032ad6020860182620033ac565b50620032b98162003ab3565b620032c86040860182620033ce565b50620032d48162003ad1565b620032e3606086018262003368565b5050505050565b608082016000808301549050620033018162003a95565b620033106000860182620033ac565b506200331c8162003aef565b6200332b6020860182620033ac565b50620033378162003ab3565b620033466040860182620033ce565b50620033528162003ad1565b62003361606086018262003368565b5050505050565b62003373816200390d565b82525050565b62003384816200390d565b82525050565b62003395816200393b565b82525050565b620033a68162003a06565b82525050565b620033b78162003945565b82525050565b620033c88162003945565b82525050565b620033d98162003959565b82525050565b620033ea8162003959565b82525050565b600060208201905062003407600083018462002fc9565b92915050565b600060608201905062003424600083018662002fc9565b62003433602083018562002fc9565b6200344260408301846200338a565b949350505050565b600060608201905062003461600083018662002fc9565b62003470602083018562002fc9565b6200347f60408301846200339b565b949350505050565b60006020820190506200349e600083018462002fda565b92915050565b600060c082019050620034bb600083018962002ffc565b620034ca602083018862002feb565b620034d96040830187620033bd565b620034e86060830186620033bd565b620034f76080830185620033bd565b6200350660a08301846200302f565b979650505050505050565b600060a0820190506200352860008301886200300d565b6200353760208301876200301e565b81810360408301526200354b818662003040565b90506200355c606083018562002fc9565b6200356b608083018462002fc9565b9695505050505050565b60006101a082019050818103600083015262003592818a62003040565b9050620035a36020830189620033bd565b620035b26040830188620032ea565b620035c160c08301876200326c565b620035d1610140830186620033bd565b620035e1610160830185620033bd565b620035f1610180830184620033df565b98975050505050505050565b60006101a08201905081810360008301526200361a818a62003081565b90506200362b6020830189620033bd565b6200363a6040830188620032ea565b6200364960c08301876200326c565b62003659610140830186620033bd565b62003669610160830185620033bd565b62003679610180830184620033df565b98975050505050505050565b60006020820190508181036000830152620036a0816200310d565b9050919050565b60006020820190508181036000830152620036c28162003134565b9050919050565b60006020820190508181036000830152620036e4816200315b565b9050919050565b60006020820190508181036000830152620037068162003182565b9050919050565b600060208201905081810360008301526200372881620031a9565b9050919050565b600060208201905081810360008301526200374a81620031d0565b9050919050565b600060208201905081810360008301526200376c81620031f7565b9050919050565b600060208201905081810360008301526200378e816200321e565b9050919050565b60006020820190508181036000830152620037b08162003245565b9050919050565b6000608082019050620037ce6000830187620033bd565b620037dd6020830186620033bd565b620037ec6040830185620033df565b620037fb606083018462003379565b95945050505050565b60006200381062003823565b90506200381e828262003b0d565b919050565b6000604051905090565b600067ffffffffffffffff8211156200384b576200384a62003c06565b5b620038568262003c35565b9050602081019050919050565b60008190508160005260206000209050919050565b600081519050919050565b600082825260208201905092915050565b600061ffff82169050919050565b600067ffffffffffffffff82169050919050565b600060ff82169050919050565b6000620038d0826200391b565b9050919050565b60008115159050919050565b6000819050620038f38262003deb565b919050565b6000819050620039088262003e02565b919050565b600061ffff82169050919050565b600073ffffffffffffffffffffffffffffffffffffffff82169050919050565b6000819050919050565b600067ffffffffffffffff82169050919050565b600060ff82169050919050565b600062003973826200397a565b9050919050565b600062003987826200391b565b9050919050565b60006200399b82620039a2565b9050919050565b6000620039af826200391b565b9050919050565b6000620039c382620039ca565b9050919050565b6000620039d7826200391b565b9050919050565b6000620039eb82620038e3565b9050919050565b6000620039ff82620038f8565b9050919050565b600062003a138262003945565b9050919050565b82818337600083830152505050565b60005b8381101562003a4957808201518184015260208101905062003a2c565b8381111562003a59576000848401525b50505050565b6000600282049050600182168062003a7857607f821691505b6020821081141562003a8f5762003a8e62003bd7565b5b50919050565b600062003aac62003aa68362003c46565b620038a2565b9050919050565b600062003aca62003ac48362003c53565b620038b6565b9050919050565b600062003ae862003ae28362003c60565b62003894565b9050919050565b600062003b0662003b008362003c6d565b620038a2565b9050919050565b62003b188262003c35565b810181811067ffffffffffffffff8211171562003b3a5762003b3962003c06565b5b80604052505050565b600062003b508262003945565b915067ffffffffffffffff82141562003b6e5762003b6d62003b79565b5b600182019050919050565b7f4e487b7100000000000000000000000000000000000000000000000000000000600052601160045260246000fd5b7f4e487b7100000000000000000000000000000000000000000000000000000000600052602160045260246000fd5b7f4e487b7100000000000000000000000000000000000000000000000000000000600052602260045260246000fd5b7f4e487b7100000000000000000000000000000000000000000000000000000000600052604160045260246000fd5b6000601f19601f8301169050919050565b60008160001c9050919050565b60008160801c9050919050565b60008160881c9050919050565b60008160401c9050919050565b7f52657175657374206e6f74206f6e2064656c6976657279000000000000000000600082015250565b7f5265717565737420616c72656164792061636365707465640000000000000000600082015250565b7f4e6f7420656e6f75676820746f6b656e7320696e2077616c6c65740000000000600082015250565b7f54686973206973206e6f7420796f7572206974656d0000000000000000000000600082015250565b7f54686973206973206e6f7420796f75722064656c697665727900000000000000600082015250565b7f5468697320697320796f7572206f776e20726571756573740000000000000000600082015250565b7f52657175657374206973206e6f7420617661696c61626c650000000000000000600082015250565b7f52657175657374206e6f742064656c6976657265640000000000000000000000600082015250565b7f506c65617365206465706f7369742066756c6c207374616b6500000000000000600082015250565b6004811062003dff5762003dfe62003ba8565b5b50565b6003811062003e165762003e1562003ba8565b5b50565b62003e2481620038c3565b811462003e3057600080fd5b50565b62003e3e81620038d7565b811462003e4a57600080fd5b50565b6003811062003e5b57600080fd5b50565b62003e69816200390d565b811462003e7557600080fd5b50565b62003e83816200393b565b811462003e8f57600080fd5b50565b62003e9d8162003945565b811462003ea957600080fd5b50565b62003eb78162003959565b811462003ec357600080fd5b5056fe608060405234801561001057600080fd5b506040516106a93803806106a9833981810160405281019061003291906101de565b85600360006101000a81548173ffffffffffffffffffffffffffffffffffffffff021916908373ffffffffffffffffffffffffffffffffffffffff16021790555084600460006101000a81548173ffffffffffffffffffffffffffffffffffffffff021916908373ffffffffffffffffffffffffffffffffffffffff16021790555083600060146101000a81548167ffffffffffffffff021916908367ffffffffffffffff16021790555082600160006101000a81548167ffffffffffffffff021916908367ffffffffffffffff16021790555081600160086101000a81548167ffffffffffffffff021916908367ffffffffffffffff16021790555080600260146101000a81548160ff0219169083600281111561017a577f4e487b7100000000000000000000000000000000000000000000000000000000600052602160045260246000fd5b0217905550505050505050610326565b600081519050610199816102d1565b92915050565b6000815190506101ae816102e8565b92915050565b6000815190506101c3816102ff565b92915050565b6000815190506101d88161030f565b92915050565b60008060008060008060c087890312156101f757600080fd5b600061020589828a0161019f565b965050602061021689828a0161018a565b955050604061022789828a016101c9565b945050606061023889828a016101c9565b935050608061024989828a016101c9565b92505060a061025a89828a016101b4565b9150509295509295509295565b60006102728261029d565b9050919050565b600061028482610267565b9050919050565b600061029682610267565b9050919050565b600073ffffffffffffffffffffffffffffffffffffffff82169050919050565b600067ffffffffffffffff82169050919050565b6102da81610279565b81146102e557600080fd5b50565b6102f18161028b565b81146102fc57600080fd5b50565b6003811061030c57600080fd5b50565b610318816102bd565b811461032357600080fd5b50565b610374806103356000396000f3fe6080604052600436106100595760003560e01c80632986c0e5146100655780633fa4f245146100905780639af1d35a146100bb578063a1aab33f146100e6578063c2bd811914610111578063d16a53351461013c57610060565b3661006057005b600080fd5b34801561007157600080fd5b5061007a610167565b6040516100879190610275565b60405180910390f35b34801561009c57600080fd5b506100a5610181565b6040516100b29190610275565b60405180910390f35b3480156100c757600080fd5b506100d061019b565b6040516100dd9190610275565b60405180910390f35b3480156100f257600080fd5b506100fb6101b5565b604051610108919061025a565b60405180910390f35b34801561011d57600080fd5b506101266101c8565b604051610133919061023f565b60405180910390f35b34801561014857600080fd5b506101516101ee565b60405161015e919061023f565b60405180910390f35b600160089054906101000a900467ffffffffffffffff1681565b600060149054906101000a900467ffffffffffffffff1681565b600160009054906101000a900467ffffffffffffffff1681565b600260149054906101000a900460ff1681565b600260009054906101000a900473ffffffffffffffffffffffffffffffffffffffff1681565b60008054906101000a900473ffffffffffffffffffffffffffffffffffffffff1681565b61021b81610290565b82525050565b61022a816102e9565b82525050565b610239816102d5565b82525050565b60006020820190506102546000830184610212565b92915050565b600060208201905061026f6000830184610221565b92915050565b600060208201905061028a6000830184610230565b92915050565b600061029b826102b5565b9050919050565b60008190506102b08261032a565b919050565b600073ffffffffffffffffffffffffffffffffffffffff82169050919050565b600067ffffffffffffffff82169050919050565b60006102f4826102a2565b9050919050565b7f4e487b7100000000000000000000000000000000000000000000000000000000600052602160045260246000fd5b6003811061033b5761033a6102fb565b5b5056fea2646970667358221220551ac342860651937b709cc9d186503a58c3cd4fa5f1907d1b6ac8838e3ce6d864736f6c63430008040033a26469706673582212208f96fa2c7e7c188bbac724f3a752c78f022acf23d0b022c3b467d1dc3e8e1c3b64736f6c63430008040033",
  "immutableReferences": {
    "810": [
      {
        "length": 32,
        "start": 4694
      }
    ]
  },
  "source": "// SPDX-License-Identifier: MIT\r\npragma solidity ^0.8.4;\r\npragma experimental ABIEncoderV2;\r\n\r\nimport \"./Request.sol\";\r\nimport \"./ChiralToken.sol\";\r\nimport \"@openzeppelin/contracts/metatx/ERC2771Context.sol\";\r\n\r\ncontract RequestManager is ERC2771Context {\r\n    ChiralToken tokenContract;\r\n\r\n    constructor(ChiralToken newtoken, address _forwarder)\r\n        ERC2771Context(_forwarder)\r\n    {\r\n        tokenContract = newtoken;\r\n    }\r\n\r\n    struct S_Request {\r\n        Request request;\r\n        RequestManager.SupplyChainSteps step;\r\n        string identifier;\r\n        address pickupAddress;\r\n        address deliveryAddress;\r\n    }\r\n    mapping(uint64 => S_Request) public requests;\r\n    uint64 index;\r\n    \r\n    struct S_pickup {\r\n    uint64 pickup_lat;\r\n    uint64 pickup_lng;\r\n    uint8 pickup_floor;\r\n    uint16 pickup_unit;\r\n    }\r\n    S_pickup public pickup;\r\n\r\n    struct S_destination {\r\n        uint64 destination_lat;\r\n        uint64 destination_lng;\r\n        uint8 destination_floor;\r\n        uint16 destination_unit;\r\n    }\r\n    S_destination public destination;\r\n\r\n    enum SupplyChainSteps {\r\n        Created,\r\n        Accepted,\r\n        Delivered,\r\n        Received\r\n    }\r\n\r\n    event DisplayStep(\r\n        address indexed pickupAddress,\r\n        address indexed deliveryAddress,\r\n        string identifier,\r\n        uint64 index,\r\n        S_pickup pickup,\r\n        S_destination destination,\r\n        uint64 value,\r\n        uint64 fees,\r\n        uint8 indexed _step,\r\n        uint8 _weight\r\n    );\r\n\r\n    function createRequest(\r\n        string memory identifier,\r\n        S_pickup memory _pickup,\r\n        S_destination memory _destination,\r\n        uint64 value,\r\n        uint64 fees,\r\n        Request.weights weight\r\n    ) public {\r\n        require(\r\n            tokenContract.balanceOf(_msgSender()) > fees,\r\n            \"Not enough tokens in wallet\"\r\n        );\r\n        Request request = new Request(\r\n            this,\r\n            tokenContract,\r\n            value,\r\n            fees,\r\n            index,\r\n            weight\r\n        );\r\n        pickup = _pickup;\r\n        destination = _destination;\r\n        requests[index].request = request;\r\n        requests[index].step = SupplyChainSteps.Created;\r\n        requests[index].identifier = identifier;\r\n        tokenContract.transferFrom(_msgSender(), address(request), fees);\r\n        requests[index].pickupAddress = _msgSender();\r\n        emit DisplayStep(\r\n            requests[index].pickupAddress,\r\n            requests[index].deliveryAddress,\r\n            identifier,\r\n            index,\r\n            pickup,\r\n            destination,\r\n            value,\r\n            fees,\r\n            uint8(requests[index].step),\r\n            uint8(request.weight())\r\n        );\r\n        index++;\r\n    }\r\n\r\n    function triggerAccepted(uint64 _index) public {\r\n        Request request = requests[_index].request;\r\n        require(\r\n            requests[_index].step == SupplyChainSteps.Created,\r\n            \"Request is not available\"\r\n        );\r\n        require(\r\n            tokenContract.balanceOf(_msgSender()) > request.value(),\r\n            \"Please deposit full stake\"\r\n        );\r\n        require(\r\n            _msgSender() != requests[_index].pickupAddress,\r\n            \"This is your own request\"\r\n        );\r\n        tokenContract.transferFrom(\r\n            _msgSender(),\r\n            address(request),\r\n            request.value()\r\n        );\r\n        requests[_index].deliveryAddress = _msgSender();\r\n        requests[_index].step = SupplyChainSteps.Accepted;\r\n        emit DisplayStep(\r\n            requests[_index].pickupAddress,\r\n            requests[_index].deliveryAddress,\r\n            requests[_index].identifier,\r\n            _index,\r\n            pickup,\r\n            destination,\r\n            request.value(),\r\n            request.fees(),\r\n            uint8(requests[_index].step),\r\n            uint8(request.weight())\r\n        );\r\n    }\r\n\r\n    function triggerDelivery(uint64 _index) public {\r\n        Request request = requests[_index].request;\r\n        require(\r\n            requests[_index].step == SupplyChainSteps.Accepted,\r\n            \"Request not on delivery\"\r\n        );\r\n        require(\r\n            _msgSender() == requests[_index].deliveryAddress,\r\n            \"This is not your delivery\"\r\n        );\r\n        requests[_index].step = SupplyChainSteps.Delivered;\r\n        emit DisplayStep(\r\n            requests[_index].pickupAddress,\r\n            requests[_index].deliveryAddress,\r\n            requests[_index].identifier,\r\n            _index,\r\n            pickup,\r\n            destination,\r\n            request.value(),\r\n            request.fees(),\r\n            uint8(requests[_index].step),\r\n            uint8(request.weight())\r\n        );\r\n    }\r\n\r\n    function triggerReceive(uint64 _index) public {\r\n        Request request = requests[_index].request;\r\n        require(\r\n            requests[_index].step == SupplyChainSteps.Delivered,\r\n            \"Request not delivered\"\r\n        );\r\n        require(\r\n            _msgSender() == requests[_index].pickupAddress,\r\n            \"This is not your item\"\r\n        );\r\n        requests[_index].step = SupplyChainSteps.Received;\r\n        tokenContract.transferFrom(\r\n            address(request),\r\n            requests[_index].deliveryAddress,\r\n            tokenContract.balanceOf(address(request))\r\n        );\r\n        emit DisplayStep(\r\n            requests[_index].pickupAddress,\r\n            requests[_index].deliveryAddress,\r\n            requests[_index].identifier,\r\n            _index,\r\n            pickup,\r\n            destination,\r\n            request.value(),\r\n            request.fees(),\r\n            uint8(requests[_index].step),\r\n            uint8(request.weight())\r\n        );\r\n    }\r\n\r\n    function triggerCancel(uint64 _index) public {\r\n        Request request = requests[_index].request;\r\n        require(\r\n            requests[_index].step == SupplyChainSteps.Created,\r\n            \"Request already accepted\"\r\n        );\r\n        require(\r\n            _msgSender() == requests[_index].pickupAddress,\r\n            \"This is not your item\"\r\n        );\r\n        requests[_index].step = SupplyChainSteps.Received;\r\n        tokenContract.transferFrom(\r\n            address(request),\r\n            requests[_index].pickupAddress,\r\n            tokenContract.balanceOf(address(request))\r\n        );\r\n        emit DisplayStep(\r\n            requests[_index].pickupAddress,\r\n            requests[_index].deliveryAddress,\r\n            requests[_index].identifier,\r\n            _index,\r\n            pickup,\r\n            destination,\r\n            request.value(),\r\n            request.fees(),\r\n            uint8(requests[_index].step),\r\n            uint8(request.weight())\r\n        );\r\n    }\r\n}\r\n",
  "sourcePath": "C:\\Users\\pohsa\\Desktop\\Chiral\\contracts\\RequestManager.sol",
  "compiler": {
    "name": "solc",
    "version": "0.8.4+commit.c7e474f2.Emscripten.clang"
  },
  "schemaVersion": "3.4.1",
  "updatedAt": "2021-07-07T14:05:45.952Z",
  "networkType": "ethereum",
  "devdoc": {
    "kind": "dev",
    "methods": {},
    "version": 1
  },
  "userdoc": {
    "kind": "user",
    "methods": {},
    "version": 1
  }
}