{
  "contractName": "Request",
  "abi": [
    {
      "inputs": [
        {
          "internalType": "string",
          "name": "_identifier",
          "type": "string"
        },
        {
          "internalType": "address",
          "name": "_pickupAddress",
          "type": "address"
        },
        {
          "internalType": "uint32",
          "name": "_value",
          "type": "uint32"
        },
        {
          "internalType": "uint32",
          "name": "_fees",
          "type": "uint32"
        },
        {
          "internalType": "enum RequestManager.weights",
          "name": "_weight",
          "type": "uint8"
        },
        {
          "components": [
            {
              "internalType": "uint64",
              "name": "pickup_lat",
              "type": "uint64"
            },
            {
              "internalType": "uint64",
              "name": "pickup_lng",
              "type": "uint64"
            },
            {
              "internalType": "uint8",
              "name": "pickup_floor",
              "type": "uint8"
            },
            {
              "internalType": "uint16",
              "name": "pickup_unit",
              "type": "uint16"
            }
          ],
          "internalType": "struct RequestManager.S_pickup",
          "name": "_pickup",
          "type": "tuple"
        },
        {
          "components": [
            {
              "internalType": "uint64",
              "name": "destination_lat",
              "type": "uint64"
            },
            {
              "internalType": "uint64",
              "name": "destination_lng",
              "type": "uint64"
            },
            {
              "internalType": "uint8",
              "name": "destination_floor",
              "type": "uint8"
            },
            {
              "internalType": "uint16",
              "name": "destination_unit",
              "type": "uint16"
            }
          ],
          "internalType": "struct RequestManager.S_destination",
          "name": "_destination",
          "type": "tuple"
        },
        {
          "internalType": "contract ChiralToken",
          "name": "_tokenContract",
          "type": "address"
        },
        {
          "internalType": "contract RequestManager",
          "name": "_parentContract",
          "type": "address"
        }
      ],
      "stateMutability": "nonpayable",
      "type": "constructor"
    },
    {
      "inputs": [],
      "name": "courierAddress",
      "outputs": [
        {
          "internalType": "address",
          "name": "",
          "type": "address"
        }
      ],
      "stateMutability": "view",
      "type": "function"
    },
    {
      "inputs": [],
      "name": "destination",
      "outputs": [
        {
          "internalType": "uint64",
          "name": "destination_lat",
          "type": "uint64"
        },
        {
          "internalType": "uint64",
          "name": "destination_lng",
          "type": "uint64"
        },
        {
          "internalType": "uint8",
          "name": "destination_floor",
          "type": "uint8"
        },
        {
          "internalType": "uint16",
          "name": "destination_unit",
          "type": "uint16"
        }
      ],
      "stateMutability": "view",
      "type": "function"
    },
    {
      "inputs": [],
      "name": "fees",
      "outputs": [
        {
          "internalType": "uint32",
          "name": "",
          "type": "uint32"
        }
      ],
      "stateMutability": "view",
      "type": "function"
    },
    {
      "inputs": [],
      "name": "identifier",
      "outputs": [
        {
          "internalType": "string",
          "name": "",
          "type": "string"
        }
      ],
      "stateMutability": "view",
      "type": "function"
    },
    {
      "inputs": [],
      "name": "pickup",
      "outputs": [
        {
          "internalType": "uint64",
          "name": "pickup_lat",
          "type": "uint64"
        },
        {
          "internalType": "uint64",
          "name": "pickup_lng",
          "type": "uint64"
        },
        {
          "internalType": "uint8",
          "name": "pickup_floor",
          "type": "uint8"
        },
        {
          "internalType": "uint16",
          "name": "pickup_unit",
          "type": "uint16"
        }
      ],
      "stateMutability": "view",
      "type": "function"
    },
    {
      "inputs": [],
      "name": "pickupAddress",
      "outputs": [
        {
          "internalType": "address",
          "name": "",
          "type": "address"
        }
      ],
      "stateMutability": "view",
      "type": "function"
    },
    {
      "inputs": [],
      "name": "step",
      "outputs": [
        {
          "internalType": "enum RequestManager.steps",
          "name": "",
          "type": "uint8"
        }
      ],
      "stateMutability": "view",
      "type": "function"
    },
    {
      "inputs": [],
      "name": "value",
      "outputs": [
        {
          "internalType": "uint32",
          "name": "",
          "type": "uint32"
        }
      ],
      "stateMutability": "view",
      "type": "function"
    },
    {
      "inputs": [],
      "name": "weight",
      "outputs": [
        {
          "internalType": "enum RequestManager.weights",
          "name": "",
          "type": "uint8"
        }
      ],
      "stateMutability": "view",
      "type": "function"
    },
    {
      "inputs": [
        {
          "internalType": "address",
          "name": "_courierAddress",
          "type": "address"
        }
      ],
      "name": "setCourier",
      "outputs": [],
      "stateMutability": "nonpayable",
      "type": "function"
    },
    {
      "inputs": [
        {
          "internalType": "enum RequestManager.steps",
          "name": "_step",
          "type": "uint8"
        }
      ],
      "name": "setStep",
      "outputs": [],
      "stateMutability": "nonpayable",
      "type": "function"
    }
  ],
  "bytecode": "0x60806040523480156200001157600080fd5b506040516200141138038062001411833981810160405281019062000037919062000667565b88600090805190602001906200004f9291906200032e565b5087600160006101000a81548173ffffffffffffffffffffffffffffffffffffffff021916908373ffffffffffffffffffffffffffffffffffffffff16021790555086600260146101000a81548163ffffffff021916908363ffffffff16021790555085600260186101000a81548163ffffffff021916908363ffffffff160217905550846002601c6101000a81548160ff02191690836002811115620000fb57620000fa620009e2565b5b021790555083600360008201518160000160006101000a81548167ffffffffffffffff021916908367ffffffffffffffff16021790555060208201518160000160086101000a81548167ffffffffffffffff021916908367ffffffffffffffff16021790555060408201518160000160106101000a81548160ff021916908360ff16021790555060608201518160000160116101000a81548161ffff021916908361ffff16021790555090505082600460008201518160000160006101000a81548167ffffffffffffffff021916908367ffffffffffffffff16021790555060208201518160000160086101000a81548167ffffffffffffffff021916908367ffffffffffffffff16021790555060408201518160000160106101000a81548160ff021916908360ff16021790555060608201518160000160116101000a81548161ffff021916908361ffff1602179055509050506000600560006101000a81548160ff02191690836005811115620002795762000278620009e2565b5b02179055508173ffffffffffffffffffffffffffffffffffffffff1663095ea7b382888a620002a9919062000815565b6040518363ffffffff1660e01b8152600401620002c892919062000789565b602060405180830381600087803b158015620002e357600080fd5b505af1158015620002f8573d6000803e3d6000fd5b505050506040513d601f19601f820116820180604052508101906200031e919062000635565b5050505050505050505062000b7a565b8280546200033c9062000947565b90600052602060002090601f016020900481019282620003605760008555620003ac565b82601f106200037b57805160ff1916838001178555620003ac565b82800160010185558215620003ac579182015b82811115620003ab5782518255916020019190600101906200038e565b5b509050620003bb9190620003bf565b5090565b5b80821115620003da576000816000905550600101620003c0565b5090565b6000620003f5620003ef84620007df565b620007b6565b90508281526020810184848401111562000414576200041362000a79565b5b6200042184828562000911565b509392505050565b6000815190506200043a8162000a99565b92915050565b600081519050620004518162000ab3565b92915050565b600081519050620004688162000acd565b92915050565b6000815190506200047f8162000ae7565b92915050565b600081519050620004968162000b01565b92915050565b600082601f830112620004b457620004b362000a6f565b5b8151620004c6848260208601620003de565b91505092915050565b600060808284031215620004e857620004e762000a74565b5b620004f46080620007b6565b90506000620005068482850162000607565b60008301525060206200051c8482850162000607565b602083015250604062000532848285016200061e565b60408301525060606200054884828501620005d9565b60608301525092915050565b6000608082840312156200056d576200056c62000a74565b5b620005796080620007b6565b905060006200058b8482850162000607565b6000830152506020620005a18482850162000607565b6020830152506040620005b7848285016200061e565b6040830152506060620005cd84828501620005d9565b60608301525092915050565b600081519050620005ea8162000b12565b92915050565b600081519050620006018162000b2c565b92915050565b600081519050620006188162000b46565b92915050565b6000815190506200062f8162000b60565b92915050565b6000602082840312156200064e576200064d62000a83565b5b60006200065e8482850162000440565b91505092915050565b60008060008060008060008060006101e08a8c0312156200068d576200068c62000a83565b5b60008a015167ffffffffffffffff811115620006ae57620006ad62000a7e565b5b620006bc8c828d016200049c565b9950506020620006cf8c828d0162000429565b9850506040620006e28c828d01620005f0565b9750506060620006f58c828d01620005f0565b9650506080620007088c828d0162000485565b95505060a06200071b8c828d0162000554565b9450506101206200072f8c828d01620004cf565b9350506101a0620007438c828d0162000457565b9250506101c0620007578c828d016200046e565b9150509295985092959850929598565b620007728162000856565b82525050565b6200078381620008fd565b82525050565b6000604082019050620007a0600083018562000767565b620007af602083018462000778565b9392505050565b6000620007c2620007d5565b9050620007d082826200097d565b919050565b6000604051905090565b600067ffffffffffffffff821115620007fd57620007fc62000a40565b5b620008088262000a88565b9050602081019050919050565b60006200082282620008cc565b91506200082f83620008cc565b92508263ffffffff038211156200084b576200084a620009b3565b5b828201905092915050565b60006200086382620008ac565b9050919050565b60008115159050919050565b6000620008838262000856565b9050919050565b6000620008978262000856565b9050919050565b600061ffff82169050919050565b600073ffffffffffffffffffffffffffffffffffffffff82169050919050565b600063ffffffff82169050919050565b600067ffffffffffffffff82169050919050565b600060ff82169050919050565b60006200090a82620008cc565b9050919050565b60005b838110156200093157808201518184015260208101905062000914565b8381111562000941576000848401525b50505050565b600060028204905060018216806200096057607f821691505b6020821081141562000977576200097662000a11565b5b50919050565b620009888262000a88565b810181811067ffffffffffffffff82111715620009aa57620009a962000a40565b5b80604052505050565b7f4e487b7100000000000000000000000000000000000000000000000000000000600052601160045260246000fd5b7f4e487b7100000000000000000000000000000000000000000000000000000000600052602160045260246000fd5b7f4e487b7100000000000000000000000000000000000000000000000000000000600052602260045260246000fd5b7f4e487b7100000000000000000000000000000000000000000000000000000000600052604160045260246000fd5b600080fd5b600080fd5b600080fd5b600080fd5b600080fd5b6000601f19601f8301169050919050565b62000aa48162000856565b811462000ab057600080fd5b50565b62000abe816200086a565b811462000aca57600080fd5b50565b62000ad88162000876565b811462000ae457600080fd5b50565b62000af2816200088a565b811462000afe57600080fd5b50565b6003811062000b0f57600080fd5b50565b62000b1d816200089e565b811462000b2957600080fd5b50565b62000b3781620008cc565b811462000b4357600080fd5b50565b62000b5181620008dc565b811462000b5d57600080fd5b50565b62000b6b81620008f0565b811462000b7757600080fd5b50565b6108878062000b8a6000396000f3fe608060405234801561001057600080fd5b50600436106100a95760003560e01c8063a1aab33f11610071578063a1aab33f14610142578063b269681d14610160578063d16a533514610181578063e1e5b1ee1461019f578063e25fe175146101c0578063f8b89dfb146101de576100a9565b8063020c99c6146100ae57806333bfc8b4146100cc5780633fa4f245146100e85780637998a1c4146101065780639af1d35a14610124575b600080fd5b6100b66101fa565b6040516100c3919061057f565b60405180910390f35b6100e660048036038101906100e19190610483565b610220565b005b6100f0610264565b6040516100fd91906105f2565b60405180910390f35b61010e61027a565b60405161011b91906105d0565b60405180910390f35b61012c610308565b60405161013991906105f2565b60405180910390f35b61014a61031e565b60405161015791906105b5565b60405180910390f35b610168610331565b604051610178949392919061060d565b60405180910390f35b610189610392565b604051610196919061057f565b60405180910390f35b6101a76103b8565b6040516101b7949392919061060d565b60405180910390f35b6101c8610419565b6040516101d5919061059a565b60405180910390f35b6101f860048036038101906101f391906104b0565b61042c565b005b600260009054906101000a900473ffffffffffffffffffffffffffffffffffffffff1681565b80600260006101000a81548173ffffffffffffffffffffffffffffffffffffffff021916908373ffffffffffffffffffffffffffffffffffffffff16021790555050565b600260149054906101000a900463ffffffff1681565b600080546102879061075c565b80601f01602080910402602001604051908101604052809291908181526020018280546102b39061075c565b80156103005780601f106102d557610100808354040283529160200191610300565b820191906000526020600020905b8154815290600101906020018083116102e357829003601f168201915b505050505081565b600260189054906101000a900463ffffffff1681565b6002601c9054906101000a900460ff1681565b60048060000160009054906101000a900467ffffffffffffffff16908060000160089054906101000a900467ffffffffffffffff16908060000160109054906101000a900460ff16908060000160119054906101000a900461ffff16905084565b600160009054906101000a900473ffffffffffffffffffffffffffffffffffffffff1681565b60038060000160009054906101000a900467ffffffffffffffff16908060000160089054906101000a900467ffffffffffffffff16908060000160109054906101000a900460ff16908060000160119054906101000a900461ffff16905084565b600560009054906101000a900460ff1681565b80600560006101000a81548160ff021916908360058111156104515761045061078e565b5b021790555050565b6000813590506104688161082a565b92915050565b60008135905061047d81610841565b92915050565b600060208284031215610499576104986107ec565b5b60006104a784828501610459565b91505092915050565b6000602082840312156104c6576104c56107ec565b5b60006104d48482850161046e565b91505092915050565b6104e68161066e565b82525050565b6104f581610705565b82525050565b61050481610717565b82525050565b600061051582610652565b61051f818561065d565b935061052f818560208601610729565b610538816107f1565b840191505092915050565b61054c816106a6565b82525050565b61055b816106d4565b82525050565b61056a816106e4565b82525050565b610579816106f8565b82525050565b600060208201905061059460008301846104dd565b92915050565b60006020820190506105af60008301846104ec565b92915050565b60006020820190506105ca60008301846104fb565b92915050565b600060208201905081810360008301526105ea818461050a565b905092915050565b60006020820190506106076000830184610552565b92915050565b60006080820190506106226000830187610561565b61062f6020830186610561565b61063c6040830185610570565b6106496060830184610543565b95945050505050565b600081519050919050565b600082825260208201905092915050565b6000610679826106b4565b9050919050565b600081905061068e82610802565b919050565b60008190506106a182610816565b919050565b600061ffff82169050919050565b600073ffffffffffffffffffffffffffffffffffffffff82169050919050565b600063ffffffff82169050919050565b600067ffffffffffffffff82169050919050565b600060ff82169050919050565b600061071082610680565b9050919050565b600061072282610693565b9050919050565b60005b8381101561074757808201518184015260208101905061072c565b83811115610756576000848401525b50505050565b6000600282049050600182168061077457607f821691505b60208210811415610788576107876107bd565b5b50919050565b7f4e487b7100000000000000000000000000000000000000000000000000000000600052602160045260246000fd5b7f4e487b7100000000000000000000000000000000000000000000000000000000600052602260045260246000fd5b600080fd5b6000601f19601f8301169050919050565b600681106108135761081261078e565b5b50565b600381106108275761082661078e565b5b50565b6108338161066e565b811461083e57600080fd5b50565b6006811061084e57600080fd5b5056fea2646970667358221220066ddf05de57daa802b857c74983e42181e51203565266b701fc990ec28ff89464736f6c63430008070033",
  "immutableReferences": {},
  "source": "// SPDX-License-Identifier: MIT\r\npragma solidity 0.8.7;\r\n\r\nimport \"./RequestManager.sol\";\r\nimport \"./ChiralToken.sol\";\r\n\r\ncontract Request {\r\n    string public identifier;\r\n    address public pickupAddress;\r\n    address public courierAddress;\r\n    uint32 public value;\r\n    uint32 public fees;\r\n    RequestManager.weights public weight;\r\n    RequestManager.S_pickup public pickup;\r\n    RequestManager.S_destination public destination;\r\n    RequestManager.steps public step;\r\n\r\n    constructor(\r\n        string memory _identifier,\r\n        address _pickupAddress,\r\n        uint32 _value,\r\n        uint32 _fees,\r\n        RequestManager.weights _weight,\r\n        RequestManager.S_pickup memory _pickup,\r\n        RequestManager.S_destination memory _destination,\r\n        ChiralToken _tokenContract,\r\n        RequestManager _parentContract\r\n    ) {\r\n        identifier = _identifier;\r\n        pickupAddress = _pickupAddress;\r\n        value = _value;\r\n        fees = _fees;\r\n        weight = _weight;\r\n        pickup = _pickup;\r\n        destination = _destination;\r\n        step = RequestManager.steps.Created;\r\n        _tokenContract.approve(address(_parentContract), _value + _fees);\r\n    }\r\n\r\n    function setCourier(address _courierAddress) public {\r\n        courierAddress = _courierAddress;\r\n    }\r\n\r\n    function setStep(RequestManager.steps _step) public {\r\n        step = _step;\r\n    }\r\n}\r\n",
  "sourcePath": "C:\\Users\\pohsa_oc6mcgn\\Documents\\GitHub\\Chiral\\contracts\\Request.sol",
  "compiler": {
    "name": "solc",
    "version": "0.8.7+commit.e28d00a7.Emscripten.clang"
  },
  "schemaVersion": "3.4.1",
  "updatedAt": "2021-09-22T09:11:04.850Z",
  "devdoc": {
    "kind": "dev",
    "methods": {},
    "version": 1
  },
  "userdoc": {
    "kind": "user",
    "methods": {},
    "version": 1
  }
}