{
  "contractName": "RequestManager",
  "abi": [
    {
      "inputs": [
        {
          "internalType": "contract ChiralToken",
          "name": "newtoken",
          "type": "address"
        },
        {
          "internalType": "address",
          "name": "_forwarder",
          "type": "address"
        }
      ],
      "stateMutability": "nonpayable",
      "type": "constructor"
    },
    {
      "anonymous": false,
      "inputs": [
        {
          "indexed": false,
          "internalType": "uint32",
          "name": "index",
          "type": "uint32"
        },
        {
          "indexed": true,
          "internalType": "address",
          "name": "courierAddress",
          "type": "address"
        },
        {
          "indexed": true,
          "internalType": "uint8",
          "name": "step",
          "type": "uint8"
        }
      ],
      "name": "Accepted",
      "type": "event"
    },
    {
      "anonymous": false,
      "inputs": [
        {
          "indexed": false,
          "internalType": "uint32",
          "name": "index",
          "type": "uint32"
        },
        {
          "indexed": false,
          "internalType": "string",
          "name": "identifier",
          "type": "string"
        },
        {
          "indexed": true,
          "internalType": "address",
          "name": "pickupAddress",
          "type": "address"
        },
        {
          "indexed": false,
          "internalType": "uint32",
          "name": "value",
          "type": "uint32"
        },
        {
          "indexed": false,
          "internalType": "uint32",
          "name": "fees",
          "type": "uint32"
        },
        {
          "indexed": false,
          "internalType": "uint8",
          "name": "weight",
          "type": "uint8"
        },
        {
          "components": [
            {
              "internalType": "uint64",
              "name": "pickup_lat",
              "type": "uint64"
            },
            {
              "internalType": "uint64",
              "name": "pickup_lng",
              "type": "uint64"
            },
            {
              "internalType": "uint8",
              "name": "pickup_floor",
              "type": "uint8"
            },
            {
              "internalType": "uint16",
              "name": "pickup_unit",
              "type": "uint16"
            }
          ],
          "indexed": false,
          "internalType": "struct RequestManager.S_pickup",
          "name": "pickup",
          "type": "tuple"
        },
        {
          "components": [
            {
              "internalType": "uint64",
              "name": "destination_lat",
              "type": "uint64"
            },
            {
              "internalType": "uint64",
              "name": "destination_lng",
              "type": "uint64"
            },
            {
              "internalType": "uint8",
              "name": "destination_floor",
              "type": "uint8"
            },
            {
              "internalType": "uint16",
              "name": "destination_unit",
              "type": "uint16"
            }
          ],
          "indexed": false,
          "internalType": "struct RequestManager.S_destination",
          "name": "destination",
          "type": "tuple"
        },
        {
          "indexed": true,
          "internalType": "uint8",
          "name": "step",
          "type": "uint8"
        }
      ],
      "name": "Created",
      "type": "event"
    },
    {
      "anonymous": false,
      "inputs": [
        {
          "indexed": false,
          "internalType": "uint32",
          "name": "index",
          "type": "uint32"
        },
        {
          "indexed": true,
          "internalType": "uint8",
          "name": "step",
          "type": "uint8"
        }
      ],
      "name": "Step",
      "type": "event"
    },
    {
      "anonymous": false,
      "inputs": [
        {
          "indexed": false,
          "internalType": "uint32",
          "name": "index",
          "type": "uint32"
        },
        {
          "indexed": false,
          "internalType": "address",
          "name": "winner",
          "type": "address"
        }
      ],
      "name": "Verdict",
      "type": "event"
    },
    {
      "inputs": [
        {
          "internalType": "address",
          "name": "forwarder",
          "type": "address"
        }
      ],
      "name": "isTrustedForwarder",
      "outputs": [
        {
          "internalType": "bool",
          "name": "",
          "type": "bool"
        }
      ],
      "stateMutability": "view",
      "type": "function",
      "constant": true
    },
    {
      "inputs": [
        {
          "internalType": "uint32",
          "name": "",
          "type": "uint32"
        }
      ],
      "name": "requests",
      "outputs": [
        {
          "internalType": "contract Request",
          "name": "",
          "type": "address"
        }
      ],
      "stateMutability": "view",
      "type": "function",
      "constant": true
    },
    {
      "inputs": [
        {
          "internalType": "string",
          "name": "identifier",
          "type": "string"
        },
        {
          "components": [
            {
              "internalType": "uint64",
              "name": "pickup_lat",
              "type": "uint64"
            },
            {
              "internalType": "uint64",
              "name": "pickup_lng",
              "type": "uint64"
            },
            {
              "internalType": "uint8",
              "name": "pickup_floor",
              "type": "uint8"
            },
            {
              "internalType": "uint16",
              "name": "pickup_unit",
              "type": "uint16"
            }
          ],
          "internalType": "struct RequestManager.S_pickup",
          "name": "pickup",
          "type": "tuple"
        },
        {
          "components": [
            {
              "internalType": "uint64",
              "name": "destination_lat",
              "type": "uint64"
            },
            {
              "internalType": "uint64",
              "name": "destination_lng",
              "type": "uint64"
            },
            {
              "internalType": "uint8",
              "name": "destination_floor",
              "type": "uint8"
            },
            {
              "internalType": "uint16",
              "name": "destination_unit",
              "type": "uint16"
            }
          ],
          "internalType": "struct RequestManager.S_destination",
          "name": "destination",
          "type": "tuple"
        },
        {
          "internalType": "uint32",
          "name": "value",
          "type": "uint32"
        },
        {
          "internalType": "uint32",
          "name": "fees",
          "type": "uint32"
        },
        {
          "internalType": "enum RequestManager.weights",
          "name": "weight",
          "type": "uint8"
        }
      ],
      "name": "createRequest",
      "outputs": [],
      "stateMutability": "nonpayable",
      "type": "function"
    },
    {
      "inputs": [
        {
          "internalType": "uint32",
          "name": "_index",
          "type": "uint32"
        }
      ],
      "name": "triggerAccepted",
      "outputs": [],
      "stateMutability": "nonpayable",
      "type": "function"
    },
    {
      "inputs": [
        {
          "internalType": "uint32",
          "name": "_index",
          "type": "uint32"
        }
      ],
      "name": "triggerDelivery",
      "outputs": [],
      "stateMutability": "nonpayable",
      "type": "function"
    },
    {
      "inputs": [
        {
          "internalType": "uint32",
          "name": "_index",
          "type": "uint32"
        }
      ],
      "name": "triggerReceive",
      "outputs": [],
      "stateMutability": "nonpayable",
      "type": "function"
    },
    {
      "inputs": [
        {
          "internalType": "uint32",
          "name": "_index",
          "type": "uint32"
        }
      ],
      "name": "triggerCancel",
      "outputs": [],
      "stateMutability": "nonpayable",
      "type": "function"
    },
    {
      "inputs": [
        {
          "internalType": "uint32",
          "name": "_index",
          "type": "uint32"
        }
      ],
      "name": "triggerReport",
      "outputs": [],
      "stateMutability": "nonpayable",
      "type": "function"
    },
    {
      "inputs": [
        {
          "internalType": "uint32",
          "name": "_index",
          "type": "uint32"
        }
      ],
      "name": "awardToSender",
      "outputs": [],
      "stateMutability": "nonpayable",
      "type": "function"
    },
    {
      "inputs": [
        {
          "internalType": "uint32",
          "name": "_index",
          "type": "uint32"
        }
      ],
      "name": "awardToCourier",
      "outputs": [],
      "stateMutability": "nonpayable",
      "type": "function"
    }
  ],
  "bytecode": "0x60806040523480156200001157600080fd5b5060405162005d4138038062005d418339818101604052810190620000379190620000f0565b80806000806101000a81548173ffffffffffffffffffffffffffffffffffffffff021916908373ffffffffffffffffffffffffffffffffffffffff1602179055505081600160006101000a81548173ffffffffffffffffffffffffffffffffffffffff021916908373ffffffffffffffffffffffffffffffffffffffff1602179055505050620001b8565b600081519050620000d38162000184565b92915050565b600081519050620000ea816200019e565b92915050565b600080604083850312156200010a57620001096200017f565b5b60006200011a85828601620000d9565b92505060206200012d85828601620000c2565b9150509250929050565b600062000144826200015f565b9050919050565b6000620001588262000137565b9050919050565b600073ffffffffffffffffffffffffffffffffffffffff82169050919050565b600080fd5b6200018f8162000137565b81146200019b57600080fd5b50565b620001a9816200014b565b8114620001b557600080fd5b50565b615b7980620001c86000396000f3fe60806040523480156200001157600080fd5b5060043610620000ac5760003560e01c80635732fd3c116200006f5780635732fd3c146200017d5780637463f874146200019d578063a1a4628714620001bd578063ae01046d14620001dd578063b51f650014620001fd57620000ac565b80630ab469b014620000b157806343e8d0fc14620000e75780634828207c146200010757806353139d441462000127578063572b6c051462000147575b600080fd5b620000cf6004803603810190620000c9919062003e02565b6200021d565b604051620000de919062004103565b60405180910390f35b620001056004803603810190620000ff919062003e02565b62000250565b005b6200012560048036038101906200011f919062003e02565b62000c1b565b005b6200014560048036038101906200013f919062003e02565b62000fd9565b005b6200016560048036038101906200015f919062003c49565b62001688565b604051620001749190620040e6565b60405180910390f35b6200019b600480360381019062000195919062003e02565b620016e1565b005b620001bb6004803603810190620001b5919062003e02565b62001f7a565b005b620001db6004803603810190620001d5919062003e02565b62002946565b005b620001fb6004803603810190620001f5919062003e02565b62002faa565b005b6200021b600480360381019062000215919062003d11565b6200360e565b005b60026020528060005260406000206000915054906101000a900473ffffffffffffffffffffffffffffffffffffffff1681565b600260008263ffffffff1663ffffffff16815260200190815260200160002060009054906101000a900473ffffffffffffffffffffffffffffffffffffffff1673ffffffffffffffffffffffffffffffffffffffff1663d16a53356040518163ffffffff1660e01b815260040160206040518083038186803b158015620002d657600080fd5b505afa158015620002eb573d6000803e3d6000fd5b505050506040513d601f19601f8201168201806040525081019062000311919062003c7b565b73ffffffffffffffffffffffffffffffffffffffff166200033162003975565b73ffffffffffffffffffffffffffffffffffffffff16141580156200044b5750600260008263ffffffff1663ffffffff16815260200190815260200160002060009054906101000a900473ffffffffffffffffffffffffffffffffffffffff1673ffffffffffffffffffffffffffffffffffffffff1663020c99c66040518163ffffffff1660e01b815260040160206040518083038186803b158015620003d757600080fd5b505afa158015620003ec573d6000803e3d6000fd5b505050506040513d601f19601f8201168201806040525081019062000412919062003c7b565b73ffffffffffffffffffffffffffffffffffffffff166200043262003975565b73ffffffffffffffffffffffffffffffffffffffff1614155b6200045557600080fd5b600a600260008363ffffffff1663ffffffff16815260200190815260200160002060009054906101000a900473ffffffffffffffffffffffffffffffffffffffff1673ffffffffffffffffffffffffffffffffffffffff16633fa4f2456040518163ffffffff1660e01b815260040160206040518083038186803b158015620004dd57600080fd5b505afa158015620004f2573d6000803e3d6000fd5b505050506040513d601f19601f8201168201806040525081019062000518919062003e34565b62000524919062004330565b63ffffffff16600160009054906101000a900473ffffffffffffffffffffffffffffffffffffffff1673ffffffffffffffffffffffffffffffffffffffff166370a082316200057262003975565b6040518263ffffffff1660e01b81526004016200059091906200404f565b60206040518083038186803b158015620005a957600080fd5b505afa158015620005be573d6000803e3d6000fd5b505050506040513d601f19601f82011682018060405250810190620005e4919062003dd0565b11620005ef57600080fd5b600580811115620006055762000604620045a4565b5b600260008363ffffffff1663ffffffff16815260200190815260200160002060009054906101000a900473ffffffffffffffffffffffffffffffffffffffff1673ffffffffffffffffffffffffffffffffffffffff1663e25fe1756040518163ffffffff1660e01b815260040160206040518083038186803b1580156200068b57600080fd5b505afa158015620006a0573d6000803e3d6000fd5b505050506040513d601f19601f82011682018060405250810190620006c6919062003cdf565b6005811115620006db57620006da620045a4565b5b14620006e657600080fd5b600160009054906101000a900473ffffffffffffffffffffffffffffffffffffffff1673ffffffffffffffffffffffffffffffffffffffff166323b872dd600260008463ffffffff1663ffffffff16815260200190815260200160002060009054906101000a900473ffffffffffffffffffffffffffffffffffffffff16600260008563ffffffff1663ffffffff16815260200190815260200160002060009054906101000a900473ffffffffffffffffffffffffffffffffffffffff1673ffffffffffffffffffffffffffffffffffffffff1663d16a53356040518163ffffffff1660e01b815260040160206040518083038186803b158015620007ea57600080fd5b505afa158015620007ff573d6000803e3d6000fd5b505050506040513d601f19601f8201168201806040525081019062000825919062003c7b565b600260008663ffffffff1663ffffffff16815260200190815260200160002060009054906101000a900473ffffffffffffffffffffffffffffffffffffffff1673ffffffffffffffffffffffffffffffffffffffff16633fa4f2456040518163ffffffff1660e01b815260040160206040518083038186803b158015620008ab57600080fd5b505afa158015620008c0573d6000803e3d6000fd5b505050506040513d601f19601f82011682018060405250810190620008e6919062003e34565b6040518463ffffffff1660e01b81526004016200090693929190620040a9565b602060405180830381600087803b1580156200092157600080fd5b505af115801562000936573d6000803e3d6000fd5b505050506040513d601f19601f820116820180604052508101906200095c919062003cad565b50600160009054906101000a900473ffffffffffffffffffffffffffffffffffffffff1673ffffffffffffffffffffffffffffffffffffffff166323b872dd600260008463ffffffff1663ffffffff16815260200190815260200160002060009054906101000a900473ffffffffffffffffffffffffffffffffffffffff16620009e562003975565b600260008663ffffffff1663ffffffff16815260200190815260200160002060009054906101000a900473ffffffffffffffffffffffffffffffffffffffff1673ffffffffffffffffffffffffffffffffffffffff16639af1d35a6040518163ffffffff1660e01b815260040160206040518083038186803b15801562000a6b57600080fd5b505afa15801562000a80573d6000803e3d6000fd5b505050506040513d601f19601f8201168201806040525081019062000aa6919062003e34565b6040518463ffffffff1660e01b815260040162000ac693929190620040a9565b602060405180830381600087803b15801562000ae157600080fd5b505af115801562000af6573d6000803e3d6000fd5b505050506040513d601f19601f8201168201806040525081019062000b1c919062003cad565b507fb5480b5a23fbc36200da005dc9403e3d29a06d30e50aed631a832a1bd560ce3881600260008463ffffffff1663ffffffff16815260200190815260200160002060009054906101000a900473ffffffffffffffffffffffffffffffffffffffff1673ffffffffffffffffffffffffffffffffffffffff1663d16a53356040518163ffffffff1660e01b815260040160206040518083038186803b15801562000bc557600080fd5b505afa15801562000bda573d6000803e3d6000fd5b505050506040513d601f19601f8201168201806040525081019062000c00919062003c7b565b60405162000c1092919062004202565b60405180910390a150565b6001600581111562000c325762000c31620045a4565b5b600260008363ffffffff1663ffffffff16815260200190815260200160002060009054906101000a900473ffffffffffffffffffffffffffffffffffffffff1673ffffffffffffffffffffffffffffffffffffffff1663e25fe1756040518163ffffffff1660e01b815260040160206040518083038186803b15801562000cb857600080fd5b505afa15801562000ccd573d6000803e3d6000fd5b505050506040513d601f19601f8201168201806040525081019062000cf3919062003cdf565b600581111562000d085762000d07620045a4565b5b1462000d1357600080fd5b600260008263ffffffff1663ffffffff16815260200190815260200160002060009054906101000a900473ffffffffffffffffffffffffffffffffffffffff1673ffffffffffffffffffffffffffffffffffffffff1663020c99c66040518163ffffffff1660e01b815260040160206040518083038186803b15801562000d9957600080fd5b505afa15801562000dae573d6000803e3d6000fd5b505050506040513d601f19601f8201168201806040525081019062000dd4919062003c7b565b73ffffffffffffffffffffffffffffffffffffffff1662000df462003975565b73ffffffffffffffffffffffffffffffffffffffff161462000e1557600080fd5b600260008263ffffffff1663ffffffff16815260200190815260200160002060009054906101000a900473ffffffffffffffffffffffffffffffffffffffff1673ffffffffffffffffffffffffffffffffffffffff1663f8b89dfb60026040518263ffffffff1660e01b815260040162000e90919062004120565b600060405180830381600087803b15801562000eab57600080fd5b505af115801562000ec0573d6000803e3d6000fd5b50505050600260008263ffffffff1663ffffffff16815260200190815260200160002060009054906101000a900473ffffffffffffffffffffffffffffffffffffffff1673ffffffffffffffffffffffffffffffffffffffff1663e25fe1756040518163ffffffff1660e01b815260040160206040518083038186803b15801562000f4a57600080fd5b505afa15801562000f5f573d6000803e3d6000fd5b505050506040513d601f19601f8201168201806040525081019062000f85919062003cdf565b600581111562000f9a5762000f99620045a4565b5b60ff167f0328cc765bc28471b54b0e1c79c0373d75d958a8c64ac111b8e101e592a9acf58260405162000fce9190620041e5565b60405180910390a250565b600260008263ffffffff1663ffffffff16815260200190815260200160002060009054906101000a900473ffffffffffffffffffffffffffffffffffffffff1673ffffffffffffffffffffffffffffffffffffffff1663d16a53356040518163ffffffff1660e01b815260040160206040518083038186803b1580156200105f57600080fd5b505afa15801562001074573d6000803e3d6000fd5b505050506040513d601f19601f820116820180604052508101906200109a919062003c7b565b73ffffffffffffffffffffffffffffffffffffffff16620010ba62003975565b73ffffffffffffffffffffffffffffffffffffffff161480620011d15750600260008263ffffffff1663ffffffff16815260200190815260200160002060009054906101000a900473ffffffffffffffffffffffffffffffffffffffff1673ffffffffffffffffffffffffffffffffffffffff1663020c99c66040518163ffffffff1660e01b815260040160206040518083038186803b1580156200115e57600080fd5b505afa15801562001173573d6000803e3d6000fd5b505050506040513d601f19601f8201168201806040525081019062001199919062003c7b565b73ffffffffffffffffffffffffffffffffffffffff16620011b962003975565b73ffffffffffffffffffffffffffffffffffffffff16145b620011db57600080fd5b60006005811115620011f257620011f1620045a4565b5b600260008363ffffffff1663ffffffff16815260200190815260200160002060009054906101000a900473ffffffffffffffffffffffffffffffffffffffff1673ffffffffffffffffffffffffffffffffffffffff1663e25fe1756040518163ffffffff1660e01b815260040160206040518083038186803b1580156200127857600080fd5b505afa1580156200128d573d6000803e3d6000fd5b505050506040513d601f19601f82011682018060405250810190620012b3919062003cdf565b6005811115620012c857620012c7620045a4565b5b14158015620013c2575060046005811115620012e957620012e8620045a4565b5b600260008363ffffffff1663ffffffff16815260200190815260200160002060009054906101000a900473ffffffffffffffffffffffffffffffffffffffff1673ffffffffffffffffffffffffffffffffffffffff1663e25fe1756040518163ffffffff1660e01b815260040160206040518083038186803b1580156200136f57600080fd5b505afa15801562001384573d6000803e3d6000fd5b505050506040513d601f19601f82011682018060405250810190620013aa919062003cdf565b6005811115620013bf57620013be620045a4565b5b14155b620013cc57600080fd5b600580811115620013e257620013e1620045a4565b5b600260008363ffffffff1663ffffffff16815260200190815260200160002060009054906101000a900473ffffffffffffffffffffffffffffffffffffffff1673ffffffffffffffffffffffffffffffffffffffff1663e25fe1756040518163ffffffff1660e01b815260040160206040518083038186803b1580156200146857600080fd5b505afa1580156200147d573d6000803e3d6000fd5b505050506040513d601f19601f82011682018060405250810190620014a3919062003cdf565b6005811115620014b857620014b7620045a4565b5b1415620014c457600080fd5b600260008263ffffffff1663ffffffff16815260200190815260200160002060009054906101000a900473ffffffffffffffffffffffffffffffffffffffff1673ffffffffffffffffffffffffffffffffffffffff1663f8b89dfb60056040518263ffffffff1660e01b81526004016200153f919062004120565b600060405180830381600087803b1580156200155a57600080fd5b505af11580156200156f573d6000803e3d6000fd5b50505050600260008263ffffffff1663ffffffff16815260200190815260200160002060009054906101000a900473ffffffffffffffffffffffffffffffffffffffff1673ffffffffffffffffffffffffffffffffffffffff1663e25fe1756040518163ffffffff1660e01b815260040160206040518083038186803b158015620015f957600080fd5b505afa1580156200160e573d6000803e3d6000fd5b505050506040513d601f19601f8201168201806040525081019062001634919062003cdf565b6005811115620016495762001648620045a4565b5b60ff167f0328cc765bc28471b54b0e1c79c0373d75d958a8c64ac111b8e101e592a9acf5826040516200167d9190620041e5565b60405180910390a250565b60008060009054906101000a900473ffffffffffffffffffffffffffffffffffffffff1673ffffffffffffffffffffffffffffffffffffffff168273ffffffffffffffffffffffffffffffffffffffff16149050919050565b60006005811115620016f857620016f7620045a4565b5b600260008363ffffffff1663ffffffff16815260200190815260200160002060009054906101000a900473ffffffffffffffffffffffffffffffffffffffff1673ffffffffffffffffffffffffffffffffffffffff1663e25fe1756040518163ffffffff1660e01b815260040160206040518083038186803b1580156200177e57600080fd5b505afa15801562001793573d6000803e3d6000fd5b505050506040513d601f19601f82011682018060405250810190620017b9919062003cdf565b6005811115620017ce57620017cd620045a4565b5b14620017d957600080fd5b600260008263ffffffff1663ffffffff16815260200190815260200160002060009054906101000a900473ffffffffffffffffffffffffffffffffffffffff1673ffffffffffffffffffffffffffffffffffffffff16633fa4f2456040518163ffffffff1660e01b815260040160206040518083038186803b1580156200185f57600080fd5b505afa15801562001874573d6000803e3d6000fd5b505050506040513d601f19601f820116820180604052508101906200189a919062003e34565b63ffffffff16600160009054906101000a900473ffffffffffffffffffffffffffffffffffffffff1673ffffffffffffffffffffffffffffffffffffffff166370a08231620018e862003975565b6040518263ffffffff1660e01b81526004016200190691906200404f565b60206040518083038186803b1580156200191f57600080fd5b505afa15801562001934573d6000803e3d6000fd5b505050506040513d601f19601f820116820180604052508101906200195a919062003dd0565b116200196557600080fd5b600260008263ffffffff1663ffffffff16815260200190815260200160002060009054906101000a900473ffffffffffffffffffffffffffffffffffffffff1673ffffffffffffffffffffffffffffffffffffffff1663d16a53356040518163ffffffff1660e01b815260040160206040518083038186803b158015620019eb57600080fd5b505afa15801562001a00573d6000803e3d6000fd5b505050506040513d601f19601f8201168201806040525081019062001a26919062003c7b565b73ffffffffffffffffffffffffffffffffffffffff1662001a4662003975565b73ffffffffffffffffffffffffffffffffffffffff16141562001a6857600080fd5b600160009054906101000a900473ffffffffffffffffffffffffffffffffffffffff1673ffffffffffffffffffffffffffffffffffffffff166323b872dd62001ab062003975565b600260008563ffffffff1663ffffffff16815260200190815260200160002060009054906101000a900473ffffffffffffffffffffffffffffffffffffffff16600260008663ffffffff1663ffffffff16815260200190815260200160002060009054906101000a900473ffffffffffffffffffffffffffffffffffffffff1673ffffffffffffffffffffffffffffffffffffffff16633fa4f2456040518163ffffffff1660e01b815260040160206040518083038186803b15801562001b7657600080fd5b505afa15801562001b8b573d6000803e3d6000fd5b505050506040513d601f19601f8201168201806040525081019062001bb1919062003e34565b6040518463ffffffff1660e01b815260040162001bd193929190620040a9565b602060405180830381600087803b15801562001bec57600080fd5b505af115801562001c01573d6000803e3d6000fd5b505050506040513d601f19601f8201168201806040525081019062001c27919062003cad565b50600260008263ffffffff1663ffffffff16815260200190815260200160002060009054906101000a900473ffffffffffffffffffffffffffffffffffffffff1673ffffffffffffffffffffffffffffffffffffffff166333bfc8b462001c8d62003975565b6040518263ffffffff1660e01b815260040162001cab91906200404f565b600060405180830381600087803b15801562001cc657600080fd5b505af115801562001cdb573d6000803e3d6000fd5b50505050600260008263ffffffff1663ffffffff16815260200190815260200160002060009054906101000a900473ffffffffffffffffffffffffffffffffffffffff1673ffffffffffffffffffffffffffffffffffffffff1663f8b89dfb60016040518263ffffffff1660e01b815260040162001d5a919062004120565b600060405180830381600087803b15801562001d7557600080fd5b505af115801562001d8a573d6000803e3d6000fd5b50505050600260008263ffffffff1663ffffffff16815260200190815260200160002060009054906101000a900473ffffffffffffffffffffffffffffffffffffffff1673ffffffffffffffffffffffffffffffffffffffff1663e25fe1756040518163ffffffff1660e01b815260040160206040518083038186803b15801562001e1457600080fd5b505afa15801562001e29573d6000803e3d6000fd5b505050506040513d601f19601f8201168201806040525081019062001e4f919062003cdf565b600581111562001e645762001e63620045a4565b5b60ff16600260008363ffffffff1663ffffffff16815260200190815260200160002060009054906101000a900473ffffffffffffffffffffffffffffffffffffffff1673ffffffffffffffffffffffffffffffffffffffff1663020c99c66040518163ffffffff1660e01b815260040160206040518083038186803b15801562001eed57600080fd5b505afa15801562001f02573d6000803e3d6000fd5b505050506040513d601f19601f8201168201806040525081019062001f28919062003c7b565b73ffffffffffffffffffffffffffffffffffffffff167f70224dc41b0f3706ebf2e1180f1bcc5505dddf32faa529cacdf20457e07fc41f8360405162001f6f9190620041e5565b60405180910390a350565b600260008263ffffffff1663ffffffff16815260200190815260200160002060009054906101000a900473ffffffffffffffffffffffffffffffffffffffff1673ffffffffffffffffffffffffffffffffffffffff1663d16a53356040518163ffffffff1660e01b815260040160206040518083038186803b1580156200200057600080fd5b505afa15801562002015573d6000803e3d6000fd5b505050506040513d601f19601f820116820180604052508101906200203b919062003c7b565b73ffffffffffffffffffffffffffffffffffffffff166200205b62003975565b73ffffffffffffffffffffffffffffffffffffffff1614158015620021755750600260008263ffffffff1663ffffffff16815260200190815260200160002060009054906101000a900473ffffffffffffffffffffffffffffffffffffffff1673ffffffffffffffffffffffffffffffffffffffff1663020c99c66040518163ffffffff1660e01b815260040160206040518083038186803b1580156200210157600080fd5b505afa15801562002116573d6000803e3d6000fd5b505050506040513d601f19601f820116820180604052508101906200213c919062003c7b565b73ffffffffffffffffffffffffffffffffffffffff166200215c62003975565b73ffffffffffffffffffffffffffffffffffffffff1614155b6200217f57600080fd5b600a600260008363ffffffff1663ffffffff16815260200190815260200160002060009054906101000a900473ffffffffffffffffffffffffffffffffffffffff1673ffffffffffffffffffffffffffffffffffffffff16633fa4f2456040518163ffffffff1660e01b815260040160206040518083038186803b1580156200220757600080fd5b505afa1580156200221c573d6000803e3d6000fd5b505050506040513d601f19601f8201168201806040525081019062002242919062003e34565b6200224e919062004330565b63ffffffff16600160009054906101000a900473ffffffffffffffffffffffffffffffffffffffff1673ffffffffffffffffffffffffffffffffffffffff166370a082316200229c62003975565b6040518263ffffffff1660e01b8152600401620022ba91906200404f565b60206040518083038186803b158015620022d357600080fd5b505afa158015620022e8573d6000803e3d6000fd5b505050506040513d601f19601f820116820180604052508101906200230e919062003dd0565b10156200231a57600080fd5b60058081111562002330576200232f620045a4565b5b600260008363ffffffff1663ffffffff16815260200190815260200160002060009054906101000a900473ffffffffffffffffffffffffffffffffffffffff1673ffffffffffffffffffffffffffffffffffffffff1663e25fe1756040518163ffffffff1660e01b815260040160206040518083038186803b158015620023b657600080fd5b505afa158015620023cb573d6000803e3d6000fd5b505050506040513d601f19601f82011682018060405250810190620023f1919062003cdf565b6005811115620024065762002405620045a4565b5b146200241157600080fd5b600160009054906101000a900473ffffffffffffffffffffffffffffffffffffffff1673ffffffffffffffffffffffffffffffffffffffff166323b872dd600260008463ffffffff1663ffffffff16815260200190815260200160002060009054906101000a900473ffffffffffffffffffffffffffffffffffffffff16600260008563ffffffff1663ffffffff16815260200190815260200160002060009054906101000a900473ffffffffffffffffffffffffffffffffffffffff1673ffffffffffffffffffffffffffffffffffffffff1663020c99c66040518163ffffffff1660e01b815260040160206040518083038186803b1580156200251557600080fd5b505afa1580156200252a573d6000803e3d6000fd5b505050506040513d601f19601f8201168201806040525081019062002550919062003c7b565b600260008663ffffffff1663ffffffff16815260200190815260200160002060009054906101000a900473ffffffffffffffffffffffffffffffffffffffff1673ffffffffffffffffffffffffffffffffffffffff16633fa4f2456040518163ffffffff1660e01b815260040160206040518083038186803b158015620025d657600080fd5b505afa158015620025eb573d6000803e3d6000fd5b505050506040513d601f19601f8201168201806040525081019062002611919062003e34565b6040518463ffffffff1660e01b81526004016200263193929190620040a9565b602060405180830381600087803b1580156200264c57600080fd5b505af115801562002661573d6000803e3d6000fd5b505050506040513d601f19601f8201168201806040525081019062002687919062003cad565b50600160009054906101000a900473ffffffffffffffffffffffffffffffffffffffff1673ffffffffffffffffffffffffffffffffffffffff166323b872dd600260008463ffffffff1663ffffffff16815260200190815260200160002060009054906101000a900473ffffffffffffffffffffffffffffffffffffffff166200271062003975565b600260008663ffffffff1663ffffffff16815260200190815260200160002060009054906101000a900473ffffffffffffffffffffffffffffffffffffffff1673ffffffffffffffffffffffffffffffffffffffff16639af1d35a6040518163ffffffff1660e01b815260040160206040518083038186803b1580156200279657600080fd5b505afa158015620027ab573d6000803e3d6000fd5b505050506040513d601f19601f82011682018060405250810190620027d1919062003e34565b6040518463ffffffff1660e01b8152600401620027f193929190620040a9565b602060405180830381600087803b1580156200280c57600080fd5b505af115801562002821573d6000803e3d6000fd5b505050506040513d601f19601f8201168201806040525081019062002847919062003cad565b507fb5480b5a23fbc36200da005dc9403e3d29a06d30e50aed631a832a1bd560ce3881600260008463ffffffff1663ffffffff16815260200190815260200160002060009054906101000a900473ffffffffffffffffffffffffffffffffffffffff1673ffffffffffffffffffffffffffffffffffffffff1663020c99c66040518163ffffffff1660e01b815260040160206040518083038186803b158015620028f057600080fd5b505afa15801562002905573d6000803e3d6000fd5b505050506040513d601f19601f820116820180604052508101906200292b919062003c7b565b6040516200293b92919062004202565b60405180910390a150565b600260058111156200295d576200295c620045a4565b5b600260008363ffffffff1663ffffffff16815260200190815260200160002060009054906101000a900473ffffffffffffffffffffffffffffffffffffffff1673ffffffffffffffffffffffffffffffffffffffff1663e25fe1756040518163ffffffff1660e01b815260040160206040518083038186803b158015620029e357600080fd5b505afa158015620029f8573d6000803e3d6000fd5b505050506040513d601f19601f8201168201806040525081019062002a1e919062003cdf565b600581111562002a335762002a32620045a4565b5b1462002a3e57600080fd5b600260008263ffffffff1663ffffffff16815260200190815260200160002060009054906101000a900473ffffffffffffffffffffffffffffffffffffffff1673ffffffffffffffffffffffffffffffffffffffff1663d16a53356040518163ffffffff1660e01b815260040160206040518083038186803b15801562002ac457600080fd5b505afa15801562002ad9573d6000803e3d6000fd5b505050506040513d601f19601f8201168201806040525081019062002aff919062003c7b565b73ffffffffffffffffffffffffffffffffffffffff1662002b1f62003975565b73ffffffffffffffffffffffffffffffffffffffff161462002b4057600080fd5b600260008263ffffffff1663ffffffff16815260200190815260200160002060009054906101000a900473ffffffffffffffffffffffffffffffffffffffff1673ffffffffffffffffffffffffffffffffffffffff1663f8b89dfb60036040518263ffffffff1660e01b815260040162002bbb919062004120565b600060405180830381600087803b15801562002bd657600080fd5b505af115801562002beb573d6000803e3d6000fd5b50505050600160009054906101000a900473ffffffffffffffffffffffffffffffffffffffff1673ffffffffffffffffffffffffffffffffffffffff166323b872dd600260008463ffffffff1663ffffffff16815260200190815260200160002060009054906101000a900473ffffffffffffffffffffffffffffffffffffffff16600260008563ffffffff1663ffffffff16815260200190815260200160002060009054906101000a900473ffffffffffffffffffffffffffffffffffffffff1673ffffffffffffffffffffffffffffffffffffffff1663020c99c66040518163ffffffff1660e01b815260040160206040518083038186803b15801562002cf357600080fd5b505afa15801562002d08573d6000803e3d6000fd5b505050506040513d601f19601f8201168201806040525081019062002d2e919062003c7b565b600160009054906101000a900473ffffffffffffffffffffffffffffffffffffffff1673ffffffffffffffffffffffffffffffffffffffff166370a08231600260008863ffffffff1663ffffffff16815260200190815260200160002060009054906101000a900473ffffffffffffffffffffffffffffffffffffffff166040518263ffffffff1660e01b815260040162002dca91906200404f565b60206040518083038186803b15801562002de357600080fd5b505afa15801562002df8573d6000803e3d6000fd5b505050506040513d601f19601f8201168201806040525081019062002e1e919062003dd0565b6040518463ffffffff1660e01b815260040162002e3e939291906200406c565b602060405180830381600087803b15801562002e5957600080fd5b505af115801562002e6e573d6000803e3d6000fd5b505050506040513d601f19601f8201168201806040525081019062002e94919062003cad565b50600260008263ffffffff1663ffffffff16815260200190815260200160002060009054906101000a900473ffffffffffffffffffffffffffffffffffffffff1673ffffffffffffffffffffffffffffffffffffffff1663e25fe1756040518163ffffffff1660e01b815260040160206040518083038186803b15801562002f1b57600080fd5b505afa15801562002f30573d6000803e3d6000fd5b505050506040513d601f19601f8201168201806040525081019062002f56919062003cdf565b600581111562002f6b5762002f6a620045a4565b5b60ff167f0328cc765bc28471b54b0e1c79c0373d75d958a8c64ac111b8e101e592a9acf58260405162002f9f9190620041e5565b60405180910390a250565b6000600581111562002fc15762002fc0620045a4565b5b600260008363ffffffff1663ffffffff16815260200190815260200160002060009054906101000a900473ffffffffffffffffffffffffffffffffffffffff1673ffffffffffffffffffffffffffffffffffffffff1663e25fe1756040518163ffffffff1660e01b815260040160206040518083038186803b1580156200304757600080fd5b505afa1580156200305c573d6000803e3d6000fd5b505050506040513d601f19601f8201168201806040525081019062003082919062003cdf565b6005811115620030975762003096620045a4565b5b14620030a257600080fd5b600260008263ffffffff1663ffffffff16815260200190815260200160002060009054906101000a900473ffffffffffffffffffffffffffffffffffffffff1673ffffffffffffffffffffffffffffffffffffffff1663d16a53356040518163ffffffff1660e01b815260040160206040518083038186803b1580156200312857600080fd5b505afa1580156200313d573d6000803e3d6000fd5b505050506040513d601f19601f8201168201806040525081019062003163919062003c7b565b73ffffffffffffffffffffffffffffffffffffffff166200318362003975565b73ffffffffffffffffffffffffffffffffffffffff1614620031a457600080fd5b600260008263ffffffff1663ffffffff16815260200190815260200160002060009054906101000a900473ffffffffffffffffffffffffffffffffffffffff1673ffffffffffffffffffffffffffffffffffffffff1663f8b89dfb60046040518263ffffffff1660e01b81526004016200321f919062004120565b600060405180830381600087803b1580156200323a57600080fd5b505af11580156200324f573d6000803e3d6000fd5b50505050600160009054906101000a900473ffffffffffffffffffffffffffffffffffffffff1673ffffffffffffffffffffffffffffffffffffffff166323b872dd600260008463ffffffff1663ffffffff16815260200190815260200160002060009054906101000a900473ffffffffffffffffffffffffffffffffffffffff16600260008563ffffffff1663ffffffff16815260200190815260200160002060009054906101000a900473ffffffffffffffffffffffffffffffffffffffff1673ffffffffffffffffffffffffffffffffffffffff1663d16a53356040518163ffffffff1660e01b815260040160206040518083038186803b1580156200335757600080fd5b505afa1580156200336c573d6000803e3d6000fd5b505050506040513d601f19601f8201168201806040525081019062003392919062003c7b565b600160009054906101000a900473ffffffffffffffffffffffffffffffffffffffff1673ffffffffffffffffffffffffffffffffffffffff166370a08231600260008863ffffffff1663ffffffff16815260200190815260200160002060009054906101000a900473ffffffffffffffffffffffffffffffffffffffff166040518263ffffffff1660e01b81526004016200342e91906200404f565b60206040518083038186803b1580156200344757600080fd5b505afa1580156200345c573d6000803e3d6000fd5b505050506040513d601f19601f8201168201806040525081019062003482919062003dd0565b6040518463ffffffff1660e01b8152600401620034a2939291906200406c565b602060405180830381600087803b158015620034bd57600080fd5b505af1158015620034d2573d6000803e3d6000fd5b505050506040513d601f19601f82011682018060405250810190620034f8919062003cad565b50600260008263ffffffff1663ffffffff16815260200190815260200160002060009054906101000a900473ffffffffffffffffffffffffffffffffffffffff1673ffffffffffffffffffffffffffffffffffffffff1663e25fe1756040518163ffffffff1660e01b815260040160206040518083038186803b1580156200357f57600080fd5b505afa15801562003594573d6000803e3d6000fd5b505050506040513d601f19601f82011682018060405250810190620035ba919062003cdf565b6005811115620035cf57620035ce620045a4565b5b60ff167f0328cc765bc28471b54b0e1c79c0373d75d958a8c64ac111b8e101e592a9acf582604051620036039190620041e5565b60405180910390a250565b8163ffffffff16600160009054906101000a900473ffffffffffffffffffffffffffffffffffffffff1673ffffffffffffffffffffffffffffffffffffffff166370a082316200365d62003975565b6040518263ffffffff1660e01b81526004016200367b91906200404f565b60206040518083038186803b1580156200369457600080fd5b505afa158015620036a9573d6000803e3d6000fd5b505050506040513d601f19601f82011682018060405250810190620036cf919062003dd0565b11620036da57600080fd5b600086620036e762003975565b8585858a8a600160009054906101000a900473ffffffffffffffffffffffffffffffffffffffff16306040516200371e90620039b6565b62003732999897969594939291906200413d565b604051809103906000f0801580156200374f573d6000803e3d6000fd5b5090508060026000600360009054906101000a900463ffffffff1663ffffffff1663ffffffff16815260200190815260200160002060006101000a81548173ffffffffffffffffffffffffffffffffffffffff021916908373ffffffffffffffffffffffffffffffffffffffff160217905550600160009054906101000a900473ffffffffffffffffffffffffffffffffffffffff1673ffffffffffffffffffffffffffffffffffffffff166323b872dd6200380a62003975565b83866040518463ffffffff1660e01b81526004016200382c93929190620040a9565b602060405180830381600087803b1580156200384757600080fd5b505af11580156200385c573d6000803e3d6000fd5b505050506040513d601f19601f8201168201806040525081019062003882919062003cad565b50600060058111156200389a5762003899620045a4565b5b60ff16620038a762003975565b73ffffffffffffffffffffffffffffffffffffffff167f87d17b1eca1959acaf21aa3fc334d1b6da63d5f559e892ffc87518dcc54e0851600360009054906101000a900463ffffffff168a88888860028111156200390a5762003909620045a4565b5b8d8d6040516200392197969594939291906200422f565b60405180910390a36003600081819054906101000a900463ffffffff16809291906200394d9062004543565b91906101000a81548163ffffffff021916908363ffffffff1602179055505050505050505050565b6000620039823362001688565b156200399857601436033560601c9050620039aa565b620039a2620039ae565b9050620039ab565b5b90565b600033905090565b611411806200473383390190565b6000620039db620039d584620042de565b620042b5565b905082815260208101848484011115620039fa57620039f96200460c565b5b62003a07848285620044c8565b509392505050565b60008135905062003a20816200465a565b92915050565b60008151905062003a37816200465a565b92915050565b60008151905062003a4e8162004674565b92915050565b60008151905062003a65816200468e565b92915050565b60008135905062003a7c816200469f565b92915050565b600082601f83011262003a9a5762003a9962004602565b5b813562003aac848260208601620039c4565b91505092915050565b60006080828403121562003ace5762003acd62004607565b5b62003ada6080620042b5565b9050600062003aec8482850162003c1b565b600083015250602062003b028482850162003c1b565b602083015250604062003b188482850162003c32565b604083015250606062003b2e8482850162003bbf565b60608301525092915050565b60006080828403121562003b535762003b5262004607565b5b62003b5f6080620042b5565b9050600062003b718482850162003c1b565b600083015250602062003b878482850162003c1b565b602083015250604062003b9d8482850162003c32565b604083015250606062003bb38482850162003bbf565b60608301525092915050565b60008135905062003bd081620046b0565b92915050565b60008151905062003be781620046ca565b92915050565b60008135905062003bfe81620046e4565b92915050565b60008151905062003c1581620046e4565b92915050565b60008135905062003c2c81620046fe565b92915050565b60008135905062003c438162004718565b92915050565b60006020828403121562003c625762003c6162004616565b5b600062003c728482850162003a0f565b91505092915050565b60006020828403121562003c945762003c9362004616565b5b600062003ca48482850162003a26565b91505092915050565b60006020828403121562003cc65762003cc562004616565b5b600062003cd68482850162003a3d565b91505092915050565b60006020828403121562003cf85762003cf762004616565b5b600062003d088482850162003a54565b91505092915050565b600080600080600080610180878903121562003d325762003d3162004616565b5b600087013567ffffffffffffffff81111562003d535762003d5262004611565b5b62003d6189828a0162003a82565b965050602062003d7489828a0162003b3a565b95505060a062003d8789828a0162003ab5565b94505061012062003d9b89828a0162003bed565b93505061014062003daf89828a0162003bed565b92505061016062003dc389828a0162003a6b565b9150509295509295509295565b60006020828403121562003de95762003de862004616565b5b600062003df98482850162003bd6565b91505092915050565b60006020828403121562003e1b5762003e1a62004616565b5b600062003e2b8482850162003bed565b91505092915050565b60006020828403121562003e4d5762003e4c62004616565b5b600062003e5d8482850162003c04565b91505092915050565b62003e718162004375565b82525050565b62003e828162004389565b82525050565b62003e938162004428565b82525050565b62003ea4816200443c565b82525050565b62003eb58162004450565b82525050565b62003ec68162004464565b82525050565b62003ed78162004478565b82525050565b600062003eea8262004314565b62003ef681856200431f565b935062003f08818560208601620044d7565b62003f13816200461b565b840191505092915050565b60808201600082015162003f3660008501826200401c565b50602082015162003f4b60208501826200401c565b50604082015162003f6060408501826200402d565b50606082015162003f75606085018262003fd8565b50505050565b60808201600082015162003f9360008501826200401c565b50602082015162003fa860208501826200401c565b50604082015162003fbd60408501826200402d565b50606082015162003fd2606085018262003fd8565b50505050565b62003fe381620043bf565b82525050565b62003ff481620043ed565b82525050565b6200400581620044b4565b82525050565b6200401681620043f7565b82525050565b620040278162004407565b82525050565b62004038816200441b565b82525050565b62004049816200441b565b82525050565b600060208201905062004066600083018462003e66565b92915050565b600060608201905062004083600083018662003e66565b62004092602083018562003e66565b620040a1604083018462003fe9565b949350505050565b6000606082019050620040c0600083018662003e66565b620040cf602083018562003e66565b620040de604083018462003ffa565b949350505050565b6000602082019050620040fd600083018462003e77565b92915050565b60006020820190506200411a600083018462003eaa565b92915050565b600060208201905062004137600083018462003ebb565b92915050565b60006101e08201905081810360008301526200415a818c62003edd565b90506200416b602083018b62003e66565b6200417a604083018a6200400b565b6200418960608301896200400b565b62004198608083018862003ecc565b620041a760a083018762003f7b565b620041b761012083018662003f1e565b620041c76101a083018562003e88565b620041d76101c083018462003e99565b9a9950505050505050505050565b6000602082019050620041fc60008301846200400b565b92915050565b60006040820190506200421960008301856200400b565b62004228602083018462003e66565b9392505050565b60006101a08201905062004247600083018a6200400b565b81810360208301526200425b818962003edd565b90506200426c60408301886200400b565b6200427b60608301876200400b565b6200428a60808301866200403e565b6200429960a083018562003f7b565b620042a961012083018462003f1e565b98975050505050505050565b6000620042c1620042d4565b9050620042cf82826200450d565b919050565b6000604051905090565b600067ffffffffffffffff821115620042fc57620042fb620045d3565b5b62004307826200461b565b9050602081019050919050565b600081519050919050565b600082825260208201905092915050565b60006200433d82620043f7565b91506200434a83620043f7565b92508163ffffffff04831182151516156200436a576200436962004575565b5b828202905092915050565b60006200438282620043cd565b9050919050565b60008115159050919050565b6000819050620043a5826200462c565b919050565b6000819050620043ba8262004643565b919050565b600061ffff82169050919050565b600073ffffffffffffffffffffffffffffffffffffffff82169050919050565b6000819050919050565b600063ffffffff82169050919050565b600067ffffffffffffffff82169050919050565b600060ff82169050919050565b600062004435826200448c565b9050919050565b600062004449826200448c565b9050919050565b60006200445d826200448c565b9050919050565b6000620044718262004395565b9050919050565b60006200448582620043aa565b9050919050565b60006200449982620044a0565b9050919050565b6000620044ad82620043cd565b9050919050565b6000620044c182620043f7565b9050919050565b82818337600083830152505050565b60005b83811015620044f7578082015181840152602081019050620044da565b8381111562004507576000848401525b50505050565b62004518826200461b565b810181811067ffffffffffffffff821117156200453a5762004539620045d3565b5b80604052505050565b60006200455082620043f7565b915063ffffffff8214156200456a576200456962004575565b5b600182019050919050565b7f4e487b7100000000000000000000000000000000000000000000000000000000600052601160045260246000fd5b7f4e487b7100000000000000000000000000000000000000000000000000000000600052602160045260246000fd5b7f4e487b7100000000000000000000000000000000000000000000000000000000600052604160045260246000fd5b600080fd5b600080fd5b600080fd5b600080fd5b600080fd5b6000601f19601f8301169050919050565b6006811062004640576200463f620045a4565b5b50565b60038110620046575762004656620045a4565b5b50565b620046658162004375565b81146200467157600080fd5b50565b6200467f8162004389565b81146200468b57600080fd5b50565b600681106200469c57600080fd5b50565b60038110620046ad57600080fd5b50565b620046bb81620043bf565b8114620046c757600080fd5b50565b620046d581620043ed565b8114620046e157600080fd5b50565b620046ef81620043f7565b8114620046fb57600080fd5b50565b620047098162004407565b81146200471557600080fd5b50565b62004723816200441b565b81146200472f57600080fd5b5056fe60806040523480156200001157600080fd5b506040516200141138038062001411833981810160405281019062000037919062000667565b88600090805190602001906200004f9291906200032e565b5087600160006101000a81548173ffffffffffffffffffffffffffffffffffffffff021916908373ffffffffffffffffffffffffffffffffffffffff16021790555086600260146101000a81548163ffffffff021916908363ffffffff16021790555085600260186101000a81548163ffffffff021916908363ffffffff160217905550846002601c6101000a81548160ff02191690836002811115620000fb57620000fa620009e2565b5b021790555083600360008201518160000160006101000a81548167ffffffffffffffff021916908367ffffffffffffffff16021790555060208201518160000160086101000a81548167ffffffffffffffff021916908367ffffffffffffffff16021790555060408201518160000160106101000a81548160ff021916908360ff16021790555060608201518160000160116101000a81548161ffff021916908361ffff16021790555090505082600460008201518160000160006101000a81548167ffffffffffffffff021916908367ffffffffffffffff16021790555060208201518160000160086101000a81548167ffffffffffffffff021916908367ffffffffffffffff16021790555060408201518160000160106101000a81548160ff021916908360ff16021790555060608201518160000160116101000a81548161ffff021916908361ffff1602179055509050506000600560006101000a81548160ff02191690836005811115620002795762000278620009e2565b5b02179055508173ffffffffffffffffffffffffffffffffffffffff1663095ea7b382888a620002a9919062000815565b6040518363ffffffff1660e01b8152600401620002c892919062000789565b602060405180830381600087803b158015620002e357600080fd5b505af1158015620002f8573d6000803e3d6000fd5b505050506040513d601f19601f820116820180604052508101906200031e919062000635565b5050505050505050505062000b7a565b8280546200033c9062000947565b90600052602060002090601f016020900481019282620003605760008555620003ac565b82601f106200037b57805160ff1916838001178555620003ac565b82800160010185558215620003ac579182015b82811115620003ab5782518255916020019190600101906200038e565b5b509050620003bb9190620003bf565b5090565b5b80821115620003da576000816000905550600101620003c0565b5090565b6000620003f5620003ef84620007df565b620007b6565b90508281526020810184848401111562000414576200041362000a79565b5b6200042184828562000911565b509392505050565b6000815190506200043a8162000a99565b92915050565b600081519050620004518162000ab3565b92915050565b600081519050620004688162000acd565b92915050565b6000815190506200047f8162000ae7565b92915050565b600081519050620004968162000b01565b92915050565b600082601f830112620004b457620004b362000a6f565b5b8151620004c6848260208601620003de565b91505092915050565b600060808284031215620004e857620004e762000a74565b5b620004f46080620007b6565b90506000620005068482850162000607565b60008301525060206200051c8482850162000607565b602083015250604062000532848285016200061e565b60408301525060606200054884828501620005d9565b60608301525092915050565b6000608082840312156200056d576200056c62000a74565b5b620005796080620007b6565b905060006200058b8482850162000607565b6000830152506020620005a18482850162000607565b6020830152506040620005b7848285016200061e565b6040830152506060620005cd84828501620005d9565b60608301525092915050565b600081519050620005ea8162000b12565b92915050565b600081519050620006018162000b2c565b92915050565b600081519050620006188162000b46565b92915050565b6000815190506200062f8162000b60565b92915050565b6000602082840312156200064e576200064d62000a83565b5b60006200065e8482850162000440565b91505092915050565b60008060008060008060008060006101e08a8c0312156200068d576200068c62000a83565b5b60008a015167ffffffffffffffff811115620006ae57620006ad62000a7e565b5b620006bc8c828d016200049c565b9950506020620006cf8c828d0162000429565b9850506040620006e28c828d01620005f0565b9750506060620006f58c828d01620005f0565b9650506080620007088c828d0162000485565b95505060a06200071b8c828d0162000554565b9450506101206200072f8c828d01620004cf565b9350506101a0620007438c828d0162000457565b9250506101c0620007578c828d016200046e565b9150509295985092959850929598565b620007728162000856565b82525050565b6200078381620008fd565b82525050565b6000604082019050620007a0600083018562000767565b620007af602083018462000778565b9392505050565b6000620007c2620007d5565b9050620007d082826200097d565b919050565b6000604051905090565b600067ffffffffffffffff821115620007fd57620007fc62000a40565b5b620008088262000a88565b9050602081019050919050565b60006200082282620008cc565b91506200082f83620008cc565b92508263ffffffff038211156200084b576200084a620009b3565b5b828201905092915050565b60006200086382620008ac565b9050919050565b60008115159050919050565b6000620008838262000856565b9050919050565b6000620008978262000856565b9050919050565b600061ffff82169050919050565b600073ffffffffffffffffffffffffffffffffffffffff82169050919050565b600063ffffffff82169050919050565b600067ffffffffffffffff82169050919050565b600060ff82169050919050565b60006200090a82620008cc565b9050919050565b60005b838110156200093157808201518184015260208101905062000914565b8381111562000941576000848401525b50505050565b600060028204905060018216806200096057607f821691505b6020821081141562000977576200097662000a11565b5b50919050565b620009888262000a88565b810181811067ffffffffffffffff82111715620009aa57620009a962000a40565b5b80604052505050565b7f4e487b7100000000000000000000000000000000000000000000000000000000600052601160045260246000fd5b7f4e487b7100000000000000000000000000000000000000000000000000000000600052602160045260246000fd5b7f4e487b7100000000000000000000000000000000000000000000000000000000600052602260045260246000fd5b7f4e487b7100000000000000000000000000000000000000000000000000000000600052604160045260246000fd5b600080fd5b600080fd5b600080fd5b600080fd5b600080fd5b6000601f19601f8301169050919050565b62000aa48162000856565b811462000ab057600080fd5b50565b62000abe816200086a565b811462000aca57600080fd5b50565b62000ad88162000876565b811462000ae457600080fd5b50565b62000af2816200088a565b811462000afe57600080fd5b50565b6003811062000b0f57600080fd5b50565b62000b1d816200089e565b811462000b2957600080fd5b50565b62000b3781620008cc565b811462000b4357600080fd5b50565b62000b5181620008dc565b811462000b5d57600080fd5b50565b62000b6b81620008f0565b811462000b7757600080fd5b50565b6108878062000b8a6000396000f3fe608060405234801561001057600080fd5b50600436106100a95760003560e01c8063a1aab33f11610071578063a1aab33f14610142578063b269681d14610160578063d16a533514610181578063e1e5b1ee1461019f578063e25fe175146101c0578063f8b89dfb146101de576100a9565b8063020c99c6146100ae57806333bfc8b4146100cc5780633fa4f245146100e85780637998a1c4146101065780639af1d35a14610124575b600080fd5b6100b66101fa565b6040516100c3919061057f565b60405180910390f35b6100e660048036038101906100e19190610483565b610220565b005b6100f0610264565b6040516100fd91906105f2565b60405180910390f35b61010e61027a565b60405161011b91906105d0565b60405180910390f35b61012c610308565b60405161013991906105f2565b60405180910390f35b61014a61031e565b60405161015791906105b5565b60405180910390f35b610168610331565b604051610178949392919061060d565b60405180910390f35b610189610392565b604051610196919061057f565b60405180910390f35b6101a76103b8565b6040516101b7949392919061060d565b60405180910390f35b6101c8610419565b6040516101d5919061059a565b60405180910390f35b6101f860048036038101906101f391906104b0565b61042c565b005b600260009054906101000a900473ffffffffffffffffffffffffffffffffffffffff1681565b80600260006101000a81548173ffffffffffffffffffffffffffffffffffffffff021916908373ffffffffffffffffffffffffffffffffffffffff16021790555050565b600260149054906101000a900463ffffffff1681565b600080546102879061075c565b80601f01602080910402602001604051908101604052809291908181526020018280546102b39061075c565b80156103005780601f106102d557610100808354040283529160200191610300565b820191906000526020600020905b8154815290600101906020018083116102e357829003601f168201915b505050505081565b600260189054906101000a900463ffffffff1681565b6002601c9054906101000a900460ff1681565b60048060000160009054906101000a900467ffffffffffffffff16908060000160089054906101000a900467ffffffffffffffff16908060000160109054906101000a900460ff16908060000160119054906101000a900461ffff16905084565b600160009054906101000a900473ffffffffffffffffffffffffffffffffffffffff1681565b60038060000160009054906101000a900467ffffffffffffffff16908060000160089054906101000a900467ffffffffffffffff16908060000160109054906101000a900460ff16908060000160119054906101000a900461ffff16905084565b600560009054906101000a900460ff1681565b80600560006101000a81548160ff021916908360058111156104515761045061078e565b5b021790555050565b6000813590506104688161082a565b92915050565b60008135905061047d81610841565b92915050565b600060208284031215610499576104986107ec565b5b60006104a784828501610459565b91505092915050565b6000602082840312156104c6576104c56107ec565b5b60006104d48482850161046e565b91505092915050565b6104e68161066e565b82525050565b6104f581610705565b82525050565b61050481610717565b82525050565b600061051582610652565b61051f818561065d565b935061052f818560208601610729565b610538816107f1565b840191505092915050565b61054c816106a6565b82525050565b61055b816106d4565b82525050565b61056a816106e4565b82525050565b610579816106f8565b82525050565b600060208201905061059460008301846104dd565b92915050565b60006020820190506105af60008301846104ec565b92915050565b60006020820190506105ca60008301846104fb565b92915050565b600060208201905081810360008301526105ea818461050a565b905092915050565b60006020820190506106076000830184610552565b92915050565b60006080820190506106226000830187610561565b61062f6020830186610561565b61063c6040830185610570565b6106496060830184610543565b95945050505050565b600081519050919050565b600082825260208201905092915050565b6000610679826106b4565b9050919050565b600081905061068e82610802565b919050565b60008190506106a182610816565b919050565b600061ffff82169050919050565b600073ffffffffffffffffffffffffffffffffffffffff82169050919050565b600063ffffffff82169050919050565b600067ffffffffffffffff82169050919050565b600060ff82169050919050565b600061071082610680565b9050919050565b600061072282610693565b9050919050565b60005b8381101561074757808201518184015260208101905061072c565b83811115610756576000848401525b50505050565b6000600282049050600182168061077457607f821691505b60208210811415610788576107876107bd565b5b50919050565b7f4e487b7100000000000000000000000000000000000000000000000000000000600052602160045260246000fd5b7f4e487b7100000000000000000000000000000000000000000000000000000000600052602260045260246000fd5b600080fd5b6000601f19601f8301169050919050565b600681106108135761081261078e565b5b50565b600381106108275761082661078e565b5b50565b6108338161066e565b811461083e57600080fd5b50565b6006811061084e57600080fd5b5056fea2646970667358221220066ddf05de57daa802b857c74983e42181e51203565266b701fc990ec28ff89464736f6c63430008070033a2646970667358221220e7da92af900481ef9e8c08c2d0201f6d55a7cfe4e6656069f3bc7712ec6752b864736f6c63430008070033",
  "immutableReferences": {},
  "source": "// SPDX-License-Identifier: MIT\r\npragma solidity 0.8.7;\r\n\r\nimport \"./Request.sol\";\r\nimport \"./ChiralToken.sol\";\r\nimport \"@openzeppelin/contracts/metatx/ERC2771Context.sol\";\r\n\r\ncontract RequestManager is ERC2771Context {\r\n    ChiralToken tokenContract;\r\n\r\n    constructor(ChiralToken newtoken, address _forwarder)\r\n        ERC2771Context(_forwarder)\r\n    {\r\n        tokenContract = newtoken;\r\n    }\r\n\r\n    mapping(uint32 => Request) public requests;\r\n    uint32 nextIndex;\r\n    enum weights {\r\n        foot,\r\n        bike,\r\n        car\r\n    }\r\n    struct S_pickup {\r\n        uint64 pickup_lat;\r\n        uint64 pickup_lng;\r\n        uint8 pickup_floor;\r\n        uint16 pickup_unit;\r\n    }\r\n\r\n    struct S_destination {\r\n        uint64 destination_lat;\r\n        uint64 destination_lng;\r\n        uint8 destination_floor;\r\n        uint16 destination_unit;\r\n    }\r\n\r\n    enum steps {\r\n        Created,\r\n        Accepted,\r\n        Delivered,\r\n        Received,\r\n        Cancelled,\r\n        Intervention\r\n    }\r\n\r\n    event Created(\r\n        uint32 index,\r\n        string identifier,\r\n        address indexed pickupAddress,\r\n        uint32 value,\r\n        uint32 fees,\r\n        uint8 weight,\r\n        S_pickup pickup,\r\n        S_destination destination,\r\n        uint8 indexed step\r\n    );\r\n\r\n    event Accepted(\r\n        uint32 index,\r\n        address indexed courierAddress,\r\n        uint8 indexed step\r\n    );\r\n\r\n    event Verdict(uint32 index, address winner);\r\n\r\n    event Step(uint32 index, uint8 indexed step);\r\n\r\n    function createRequest(\r\n        string memory identifier,\r\n        S_pickup memory pickup,\r\n        S_destination memory destination,\r\n        uint32 value,\r\n        uint32 fees,\r\n        weights weight\r\n    ) public {\r\n        require(tokenContract.balanceOf(_msgSender()) > fees);\r\n        Request request = new Request(\r\n            identifier,\r\n            _msgSender(),\r\n            value,\r\n            fees,\r\n            weight,\r\n            pickup,\r\n            destination,\r\n            tokenContract,\r\n            this\r\n        );\r\n        requests[nextIndex] = request;\r\n        tokenContract.transferFrom(_msgSender(), address(request), fees);\r\n        emit Created(\r\n            nextIndex,\r\n            identifier,\r\n            _msgSender(),\r\n            value,\r\n            fees,\r\n            uint8(weight),\r\n            pickup,\r\n            destination,\r\n            uint8(steps.Created)\r\n        );\r\n        nextIndex++;\r\n    }\r\n\r\n    function triggerAccepted(uint32 _index) public {\r\n        require(requests[_index].step() == steps.Created);\r\n        require(\r\n            tokenContract.balanceOf(_msgSender()) > requests[_index].value()\r\n        );\r\n        require(_msgSender() != requests[_index].pickupAddress());\r\n        tokenContract.transferFrom(\r\n            _msgSender(),\r\n            address(requests[_index]),\r\n            requests[_index].value()\r\n        );\r\n        requests[_index].setCourier(_msgSender());\r\n        requests[_index].setStep(steps.Accepted);\r\n        emit Accepted(\r\n            _index,\r\n            requests[_index].courierAddress(),\r\n            uint8(requests[_index].step())\r\n        );\r\n    }\r\n\r\n    function triggerDelivery(uint32 _index) public {\r\n        require(requests[_index].step() == steps.Accepted);\r\n        require(_msgSender() == requests[_index].courierAddress());\r\n        requests[_index].setStep(steps.Delivered);\r\n        emit Step(_index, uint8(requests[_index].step()));\r\n    }\r\n\r\n    function triggerReceive(uint32 _index) public {\r\n        require(requests[_index].step() == steps.Delivered);\r\n        require(_msgSender() == requests[_index].pickupAddress());\r\n        requests[_index].setStep(steps.Received);\r\n        tokenContract.transferFrom(\r\n            address(requests[_index]),\r\n            requests[_index].courierAddress(),\r\n            tokenContract.balanceOf(address(requests[_index]))\r\n        );\r\n        emit Step(_index, uint8(requests[_index].step()));\r\n    }\r\n\r\n    function triggerCancel(uint32 _index) public {\r\n        require(requests[_index].step() == steps.Created);\r\n        require(_msgSender() == requests[_index].pickupAddress());\r\n        requests[_index].setStep(steps.Cancelled);\r\n        tokenContract.transferFrom(\r\n            address(requests[_index]),\r\n            requests[_index].pickupAddress(),\r\n            tokenContract.balanceOf(address(requests[_index]))\r\n        );\r\n        emit Step(_index, uint8(requests[_index].step()));\r\n    }\r\n\r\n    function triggerReport(uint32 _index) public {\r\n        require(\r\n            _msgSender() == requests[_index].pickupAddress() ||\r\n                _msgSender() == requests[_index].courierAddress()\r\n        );\r\n        require(\r\n            requests[_index].step() != steps.Created &&\r\n                requests[_index].step() != steps.Cancelled\r\n        );\r\n        require(requests[_index].step() != steps.Intervention);\r\n        requests[_index].setStep(steps.Intervention);\r\n        emit Step(_index, uint8(requests[_index].step()));\r\n    }\r\n\r\n    function awardToSender(uint32 _index) public {\r\n        require(\r\n            _msgSender() != requests[_index].pickupAddress() &&\r\n                _msgSender() != requests[_index].courierAddress()\r\n        );\r\n        require(\r\n            tokenContract.balanceOf(_msgSender()) >\r\n                requests[_index].value() * 10\r\n        );\r\n        require(requests[_index].step() == steps.Intervention);\r\n        tokenContract.transferFrom(\r\n            address(requests[_index]),\r\n            requests[_index].pickupAddress(),\r\n            requests[_index].value()\r\n        );\r\n        tokenContract.transferFrom(\r\n            address(requests[_index]),\r\n            _msgSender(),\r\n            requests[_index].fees()\r\n        );\r\n        emit Verdict(_index, requests[_index].pickupAddress());\r\n    }\r\n\r\n    function awardToCourier(uint32 _index) public {\r\n        require(\r\n            _msgSender() != requests[_index].pickupAddress() &&\r\n                _msgSender() != requests[_index].courierAddress()\r\n        );\r\n        require(\r\n            tokenContract.balanceOf(_msgSender()) >=\r\n                requests[_index].value() * 10\r\n        );\r\n        require(requests[_index].step() == steps.Intervention);\r\n        tokenContract.transferFrom(\r\n            address(requests[_index]),\r\n            requests[_index].courierAddress(),\r\n            requests[_index].value()\r\n        );\r\n        tokenContract.transferFrom(\r\n            address(requests[_index]),\r\n            _msgSender(),\r\n            requests[_index].fees()\r\n        );\r\n        emit Verdict(_index, requests[_index].courierAddress());\r\n    }\r\n}\r\n",
  "sourcePath": "C:\\Users\\pohsa_oc6mcgn\\Documents\\GitHub\\Chiral\\contracts\\RequestManager.sol",
  "compiler": {
    "name": "solc",
    "version": "0.8.7+commit.e28d00a7.Emscripten.clang"
  },
  "schemaVersion": "3.4.1",
  "updatedAt": "2021-09-22T09:13:49.402Z",
  "networkType": "ethereum",
  "devdoc": {
    "kind": "dev",
    "methods": {},
    "version": 1
  },
  "userdoc": {
    "kind": "user",
    "methods": {},
    "version": 1
  }
}