{
  "contractName": "Request",
  "abi": [
    {
      "inputs": [
        {
          "internalType": "contract RequestManager",
          "name": "_parentContract",
          "type": "address"
        },
        {
          "internalType": "contract ChiralToken",
          "name": "_tokenContract",
          "type": "address"
        },
        {
          "internalType": "uint256",
          "name": "_pickup_lat",
          "type": "uint256"
        },
        {
          "internalType": "uint256",
          "name": "_pickup_lng",
          "type": "uint256"
        },
        {
          "internalType": "uint256",
          "name": "_destination_lat",
          "type": "uint256"
        },
        {
          "internalType": "uint256",
          "name": "_destination_lng",
          "type": "uint256"
        },
        {
          "internalType": "uint256",
          "name": "_value",
          "type": "uint256"
        },
        {
          "internalType": "uint256",
          "name": "_fees",
          "type": "uint256"
        },
        {
          "internalType": "uint256",
          "name": "_index",
          "type": "uint256"
        }
      ],
      "stateMutability": "nonpayable",
      "type": "constructor"
    },
    {
      "inputs": [],
      "name": "deliveryAddress",
      "outputs": [
        {
          "internalType": "address",
          "name": "",
          "type": "address"
        }
      ],
      "stateMutability": "view",
      "type": "function"
    },
    {
      "inputs": [],
      "name": "destination_lat",
      "outputs": [
        {
          "internalType": "uint256",
          "name": "",
          "type": "uint256"
        }
      ],
      "stateMutability": "view",
      "type": "function"
    },
    {
      "inputs": [],
      "name": "destination_lng",
      "outputs": [
        {
          "internalType": "uint256",
          "name": "",
          "type": "uint256"
        }
      ],
      "stateMutability": "view",
      "type": "function"
    },
    {
      "inputs": [],
      "name": "fees",
      "outputs": [
        {
          "internalType": "uint256",
          "name": "",
          "type": "uint256"
        }
      ],
      "stateMutability": "view",
      "type": "function"
    },
    {
      "inputs": [],
      "name": "index",
      "outputs": [
        {
          "internalType": "uint256",
          "name": "",
          "type": "uint256"
        }
      ],
      "stateMutability": "view",
      "type": "function"
    },
    {
      "inputs": [],
      "name": "pickupAddress",
      "outputs": [
        {
          "internalType": "address",
          "name": "",
          "type": "address"
        }
      ],
      "stateMutability": "view",
      "type": "function"
    },
    {
      "inputs": [],
      "name": "pickup_lat",
      "outputs": [
        {
          "internalType": "uint256",
          "name": "",
          "type": "uint256"
        }
      ],
      "stateMutability": "view",
      "type": "function"
    },
    {
      "inputs": [],
      "name": "pickup_lng",
      "outputs": [
        {
          "internalType": "uint256",
          "name": "",
          "type": "uint256"
        }
      ],
      "stateMutability": "view",
      "type": "function"
    },
    {
      "inputs": [],
      "name": "value",
      "outputs": [
        {
          "internalType": "uint256",
          "name": "",
          "type": "uint256"
        }
      ],
      "stateMutability": "view",
      "type": "function"
    },
    {
      "stateMutability": "payable",
      "type": "receive"
    }
  ],
  "bytecode": "0x608060405234801561001057600080fd5b5060405161080d38038061080d83398181016040528101906100329190610251565b88600960006101000a81548173ffffffffffffffffffffffffffffffffffffffff021916908373ffffffffffffffffffffffffffffffffffffffff16021790555087600a60006101000a81548173ffffffffffffffffffffffffffffffffffffffff021916908373ffffffffffffffffffffffffffffffffffffffff16021790555086600181905550856002819055508460038190555083600481905550826005819055508160068190555080600781905550600a60009054906101000a900473ffffffffffffffffffffffffffffffffffffffff1673ffffffffffffffffffffffffffffffffffffffff166339509351600960009054906101000a900473ffffffffffffffffffffffffffffffffffffffff16600654600554610156919061035e565b6040518363ffffffff1660e01b8152600401610173929190610335565b602060405180830381600087803b15801561018d57600080fd5b505af11580156101a1573d6000803e3d6000fd5b505050506040513d601f19601f820116820180604052508101906101c59190610228565b505050505050505050506104ab565b6000815190506101e38161044f565b92915050565b6000815190506101f881610466565b92915050565b60008151905061020d8161047d565b92915050565b60008151905061022281610494565b92915050565b60006020828403121561023a57600080fd5b6000610248848285016101d4565b91505092915050565b60008060008060008060008060006101208a8c03121561027057600080fd5b600061027e8c828d016101fe565b995050602061028f8c828d016101e9565b98505060406102a08c828d01610213565b97505060606102b18c828d01610213565b96505060806102c28c828d01610213565b95505060a06102d38c828d01610213565b94505060c06102e48c828d01610213565b93505060e06102f58c828d01610213565b9250506101006103078c828d01610213565b9150509295985092959850929598565b610320816103b4565b82525050565b61032f81610416565b82525050565b600060408201905061034a6000830185610317565b6103576020830184610326565b9392505050565b600061036982610416565b915061037483610416565b9250827fffffffffffffffffffffffffffffffffffffffffffffffffffffffffffffffff038211156103a9576103a8610420565b5b828201905092915050565b60006103bf826103f6565b9050919050565b60008115159050919050565b60006103dd826103b4565b9050919050565b60006103ef826103b4565b9050919050565b600073ffffffffffffffffffffffffffffffffffffffff82169050919050565b6000819050919050565b7f4e487b7100000000000000000000000000000000000000000000000000000000600052601160045260246000fd5b610458816103c6565b811461046357600080fd5b50565b61046f816103d2565b811461047a57600080fd5b50565b610486816103e4565b811461049157600080fd5b50565b61049d81610416565b81146104a857600080fd5b50565b610353806104ba6000396000f3fe60806040526004361061008a5760003560e01c806379100d6b1161005957806379100d6b1461014257806399c47ae61461016d5780639af1d35a14610198578063c2bd8119146101c3578063d16a5335146101ee57610091565b80632986c0e5146100965780632d84b5c0146100c15780633fa4f245146100ec57806352359b971461011757610091565b3661009157005b600080fd5b3480156100a257600080fd5b506100ab610219565b6040516100b891906102c6565b60405180910390f35b3480156100cd57600080fd5b506100d661021f565b6040516100e391906102c6565b60405180910390f35b3480156100f857600080fd5b50610101610225565b60405161010e91906102c6565b60405180910390f35b34801561012357600080fd5b5061012c61022b565b60405161013991906102c6565b60405180910390f35b34801561014e57600080fd5b50610157610231565b60405161016491906102c6565b60405180910390f35b34801561017957600080fd5b50610182610237565b60405161018f91906102c6565b60405180910390f35b3480156101a457600080fd5b506101ad61023d565b6040516101ba91906102c6565b60405180910390f35b3480156101cf57600080fd5b506101d8610243565b6040516101e591906102ab565b60405180910390f35b3480156101fa57600080fd5b50610203610269565b60405161021091906102ab565b60405180910390f35b60075481565b60015481565b60055481565b60045481565b60035481565b60025481565b60065481565b600860009054906101000a900473ffffffffffffffffffffffffffffffffffffffff1681565b60008054906101000a900473ffffffffffffffffffffffffffffffffffffffff1681565b610296816102e1565b82525050565b6102a581610313565b82525050565b60006020820190506102c0600083018461028d565b92915050565b60006020820190506102db600083018461029c565b92915050565b60006102ec826102f3565b9050919050565b600073ffffffffffffffffffffffffffffffffffffffff82169050919050565b600081905091905056fea2646970667358221220bb0a0aba6ffcdcdda916d48a0ce0b794d19b53662efac90ad309be02081b57aa64736f6c63430008040033",
  "immutableReferences": {},
  "source": "// SPDX-License-Identifier: MIT\r\npragma solidity ^0.8.4;\r\n\r\nimport \"./RequestManager.sol\";\r\nimport \"./ChiralToken.sol\";\r\n\r\ncontract Request {\r\n    address public pickupAddress;\r\n    uint256 public pickup_lat;\r\n    uint256 public pickup_lng;\r\n    uint256 public destination_lat;\r\n    uint256 public destination_lng;\r\n    uint256 public value;\r\n    uint256 public fees;\r\n    uint256 public index;\r\n    address public deliveryAddress;\r\n\r\n    RequestManager parentContract;\r\n    ChiralToken tokenContract;\r\n\r\n    constructor(\r\n        RequestManager _parentContract,\r\n        ChiralToken _tokenContract,\r\n        uint256 _pickup_lat,\r\n        uint256 _pickup_lng,\r\n        uint256 _destination_lat,\r\n        uint256 _destination_lng,\r\n        uint256 _value,\r\n        uint256 _fees,\r\n        uint256 _index\r\n    ) {\r\n        parentContract = _parentContract;\r\n        tokenContract = _tokenContract;\r\n        pickup_lat = _pickup_lat;\r\n        pickup_lng = _pickup_lng;\r\n        destination_lat = _destination_lat;\r\n        destination_lng = _destination_lng;\r\n        value = _value;\r\n        fees = _fees;\r\n        index = _index;\r\n        tokenContract.increaseAllowance(address(parentContract), value + fees);\r\n    }\r\n\r\n    receive() external payable {}\r\n}\r\n",
  "sourcePath": "C:\\Users\\pohsa\\Desktop\\Chiral\\contracts\\Request.sol",
  "compiler": {
    "name": "solc",
    "version": "0.8.4+commit.c7e474f2.Emscripten.clang"
  },
  "schemaVersion": "3.4.1",
  "updatedAt": "2021-06-10T06:57:17.414Z",
  "devdoc": {
    "kind": "dev",
    "methods": {},
    "version": 1
  },
  "userdoc": {
    "kind": "user",
    "methods": {},
    "version": 1
  }
}