{
  "contractName": "Request",
  "abi": [
    {
      "inputs": [
        {
          "internalType": "contract RequestManager",
          "name": "_parentContract",
          "type": "address"
        },
        {
          "internalType": "contract ChiralToken",
          "name": "_tokenContract",
          "type": "address"
        },
        {
          "internalType": "uint64",
          "name": "_value",
          "type": "uint64"
        },
        {
          "internalType": "uint64",
          "name": "_fees",
          "type": "uint64"
        },
        {
          "internalType": "uint64",
          "name": "_index",
          "type": "uint64"
        },
        {
          "internalType": "enum Request.weights",
          "name": "_weight",
          "type": "uint8"
        }
      ],
      "stateMutability": "nonpayable",
      "type": "constructor"
    },
    {
      "inputs": [],
      "name": "deliveryAddress",
      "outputs": [
        {
          "internalType": "address",
          "name": "",
          "type": "address"
        }
      ],
      "stateMutability": "view",
      "type": "function"
    },
    {
      "inputs": [],
      "name": "fees",
      "outputs": [
        {
          "internalType": "uint64",
          "name": "",
          "type": "uint64"
        }
      ],
      "stateMutability": "view",
      "type": "function"
    },
    {
      "inputs": [],
      "name": "index",
      "outputs": [
        {
          "internalType": "uint64",
          "name": "",
          "type": "uint64"
        }
      ],
      "stateMutability": "view",
      "type": "function"
    },
    {
      "inputs": [],
      "name": "pickupAddress",
      "outputs": [
        {
          "internalType": "address",
          "name": "",
          "type": "address"
        }
      ],
      "stateMutability": "view",
      "type": "function"
    },
    {
      "inputs": [],
      "name": "value",
      "outputs": [
        {
          "internalType": "uint64",
          "name": "",
          "type": "uint64"
        }
      ],
      "stateMutability": "view",
      "type": "function"
    },
    {
      "inputs": [],
      "name": "weight",
      "outputs": [
        {
          "internalType": "enum Request.weights",
          "name": "",
          "type": "uint8"
        }
      ],
      "stateMutability": "view",
      "type": "function"
    },
    {
      "stateMutability": "payable",
      "type": "receive"
    }
  ],
  "bytecode": "0x608060405234801561001057600080fd5b506040516106a93803806106a9833981810160405281019061003291906101de565b85600360006101000a81548173ffffffffffffffffffffffffffffffffffffffff021916908373ffffffffffffffffffffffffffffffffffffffff16021790555084600460006101000a81548173ffffffffffffffffffffffffffffffffffffffff021916908373ffffffffffffffffffffffffffffffffffffffff16021790555083600060146101000a81548167ffffffffffffffff021916908367ffffffffffffffff16021790555082600160006101000a81548167ffffffffffffffff021916908367ffffffffffffffff16021790555081600160086101000a81548167ffffffffffffffff021916908367ffffffffffffffff16021790555080600260146101000a81548160ff0219169083600281111561017a577f4e487b7100000000000000000000000000000000000000000000000000000000600052602160045260246000fd5b0217905550505050505050610326565b600081519050610199816102d1565b92915050565b6000815190506101ae816102e8565b92915050565b6000815190506101c3816102ff565b92915050565b6000815190506101d88161030f565b92915050565b60008060008060008060c087890312156101f757600080fd5b600061020589828a0161019f565b965050602061021689828a0161018a565b955050604061022789828a016101c9565b945050606061023889828a016101c9565b935050608061024989828a016101c9565b92505060a061025a89828a016101b4565b9150509295509295509295565b60006102728261029d565b9050919050565b600061028482610267565b9050919050565b600061029682610267565b9050919050565b600073ffffffffffffffffffffffffffffffffffffffff82169050919050565b600067ffffffffffffffff82169050919050565b6102da81610279565b81146102e557600080fd5b50565b6102f18161028b565b81146102fc57600080fd5b50565b6003811061030c57600080fd5b50565b610318816102bd565b811461032357600080fd5b50565b610374806103356000396000f3fe6080604052600436106100595760003560e01c80632986c0e5146100655780633fa4f245146100905780639af1d35a146100bb578063a1aab33f146100e6578063c2bd811914610111578063d16a53351461013c57610060565b3661006057005b600080fd5b34801561007157600080fd5b5061007a610167565b6040516100879190610275565b60405180910390f35b34801561009c57600080fd5b506100a5610181565b6040516100b29190610275565b60405180910390f35b3480156100c757600080fd5b506100d061019b565b6040516100dd9190610275565b60405180910390f35b3480156100f257600080fd5b506100fb6101b5565b604051610108919061025a565b60405180910390f35b34801561011d57600080fd5b506101266101c8565b604051610133919061023f565b60405180910390f35b34801561014857600080fd5b506101516101ee565b60405161015e919061023f565b60405180910390f35b600160089054906101000a900467ffffffffffffffff1681565b600060149054906101000a900467ffffffffffffffff1681565b600160009054906101000a900467ffffffffffffffff1681565b600260149054906101000a900460ff1681565b600260009054906101000a900473ffffffffffffffffffffffffffffffffffffffff1681565b60008054906101000a900473ffffffffffffffffffffffffffffffffffffffff1681565b61021b81610290565b82525050565b61022a816102e9565b82525050565b610239816102d5565b82525050565b60006020820190506102546000830184610212565b92915050565b600060208201905061026f6000830184610221565b92915050565b600060208201905061028a6000830184610230565b92915050565b600061029b826102b5565b9050919050565b60008190506102b08261032a565b919050565b600073ffffffffffffffffffffffffffffffffffffffff82169050919050565b600067ffffffffffffffff82169050919050565b60006102f4826102a2565b9050919050565b7f4e487b7100000000000000000000000000000000000000000000000000000000600052602160045260246000fd5b6003811061033b5761033a6102fb565b5b5056fea2646970667358221220551ac342860651937b709cc9d186503a58c3cd4fa5f1907d1b6ac8838e3ce6d864736f6c63430008040033",
  "immutableReferences": {},
  "source": "// SPDX-License-Identifier: MIT\r\npragma solidity ^0.8.4;\r\n\r\nimport \"./RequestManager.sol\";\r\nimport \"./ChiralToken.sol\";\r\n\r\ncontract Request {\r\n    address public pickupAddress;\r\n    uint64 public value;\r\n    uint64 public fees;\r\n    uint64 public index;\r\n    address public deliveryAddress;\r\n    enum weights {\r\n        foot,\r\n        bike,\r\n        car\r\n    }\r\n    weights public weight;\r\n    \r\n\r\n    RequestManager parentContract;\r\n    ChiralToken tokenContract;\r\n\r\n    constructor(\r\n        RequestManager _parentContract,\r\n        ChiralToken _tokenContract,\r\n        uint64 _value,\r\n        uint64 _fees,\r\n        uint64 _index,\r\n        weights _weight\r\n    ) {\r\n        parentContract = _parentContract;\r\n        tokenContract = _tokenContract;\r\n        value = _value;\r\n        fees = _fees;\r\n        index = _index;\r\n        weight = _weight;\r\n    }\r\n\r\n    receive() external payable {}\r\n}",
  "sourcePath": "C:\\Users\\pohsa\\Desktop\\Chiral\\contracts\\Request.sol",
  "compiler": {
    "name": "solc",
    "version": "0.8.4+commit.c7e474f2.Emscripten.clang"
  },
  "schemaVersion": "3.4.1",
  "updatedAt": "2021-07-07T14:01:59.606Z",
  "devdoc": {
    "kind": "dev",
    "methods": {},
    "version": 1
  },
  "userdoc": {
    "kind": "user",
    "methods": {},
    "version": 1
  }
}