{
  "contractName": "Request",
  "abi": [
    {
      "inputs": [
        {
          "internalType": "contract RequestManager",
          "name": "_parentContract",
          "type": "address"
        },
        {
          "internalType": "contract ChiralToken",
          "name": "_tokenContract",
          "type": "address"
        },
        {
          "internalType": "uint256",
          "name": "_pickup_lat",
          "type": "uint256"
        },
        {
          "internalType": "uint256",
          "name": "_pickup_lng",
          "type": "uint256"
        },
        {
          "internalType": "uint256",
          "name": "_destination_lat",
          "type": "uint256"
        },
        {
          "internalType": "uint256",
          "name": "_destination_lng",
          "type": "uint256"
        },
        {
          "internalType": "uint256",
          "name": "_value",
          "type": "uint256"
        },
        {
          "internalType": "uint256",
          "name": "_fees",
          "type": "uint256"
        },
        {
          "internalType": "uint256",
          "name": "_index",
          "type": "uint256"
        }
      ],
      "stateMutability": "nonpayable",
      "type": "constructor"
    },
    {
      "inputs": [],
      "name": "deliveryAddress",
      "outputs": [
        {
          "internalType": "address",
          "name": "",
          "type": "address"
        }
      ],
      "stateMutability": "view",
      "type": "function"
    },
    {
      "inputs": [],
      "name": "destination_lat",
      "outputs": [
        {
          "internalType": "uint256",
          "name": "",
          "type": "uint256"
        }
      ],
      "stateMutability": "view",
      "type": "function"
    },
    {
      "inputs": [],
      "name": "destination_lng",
      "outputs": [
        {
          "internalType": "uint256",
          "name": "",
          "type": "uint256"
        }
      ],
      "stateMutability": "view",
      "type": "function"
    },
    {
      "inputs": [],
      "name": "fees",
      "outputs": [
        {
          "internalType": "uint256",
          "name": "",
          "type": "uint256"
        }
      ],
      "stateMutability": "view",
      "type": "function"
    },
    {
      "inputs": [],
      "name": "index",
      "outputs": [
        {
          "internalType": "uint256",
          "name": "",
          "type": "uint256"
        }
      ],
      "stateMutability": "view",
      "type": "function"
    },
    {
      "inputs": [],
      "name": "pickupAddress",
      "outputs": [
        {
          "internalType": "address",
          "name": "",
          "type": "address"
        }
      ],
      "stateMutability": "view",
      "type": "function"
    },
    {
      "inputs": [],
      "name": "pickup_lat",
      "outputs": [
        {
          "internalType": "uint256",
          "name": "",
          "type": "uint256"
        }
      ],
      "stateMutability": "view",
      "type": "function"
    },
    {
      "inputs": [],
      "name": "pickup_lng",
      "outputs": [
        {
          "internalType": "uint256",
          "name": "",
          "type": "uint256"
        }
      ],
      "stateMutability": "view",
      "type": "function"
    },
    {
      "inputs": [],
      "name": "value",
      "outputs": [
        {
          "internalType": "uint256",
          "name": "",
          "type": "uint256"
        }
      ],
      "stateMutability": "view",
      "type": "function"
    },
    {
      "stateMutability": "payable",
      "type": "receive"
    }
  ],
  "bytecode": "0x608060405234801561001057600080fd5b506040516105ff3803806105ff83398181016040528101906100329190610132565b88600960006101000a81548173ffffffffffffffffffffffffffffffffffffffff021916908373ffffffffffffffffffffffffffffffffffffffff16021790555087600a60006101000a81548173ffffffffffffffffffffffffffffffffffffffff021916908373ffffffffffffffffffffffffffffffffffffffff1602179055508660018190555085600281905550846003819055508360048190555082600581905550816006819055508060078190555050505050505050505061029d565b60008151905061010281610258565b92915050565b6000815190506101178161026f565b92915050565b60008151905061012c81610286565b92915050565b60008060008060008060008060006101208a8c03121561015157600080fd5b600061015f8c828d01610108565b99505060206101708c828d016100f3565b98505060406101818c828d0161011d565b97505060606101928c828d0161011d565b96505060806101a38c828d0161011d565b95505060a06101b48c828d0161011d565b94505060c06101c58c828d0161011d565b93505060e06101d68c828d0161011d565b9250506101006101e88c828d0161011d565b9150509295985092959850929598565b60006102038261022e565b9050919050565b6000610215826101f8565b9050919050565b6000610227826101f8565b9050919050565b600073ffffffffffffffffffffffffffffffffffffffff82169050919050565b6000819050919050565b6102618161020a565b811461026c57600080fd5b50565b6102788161021c565b811461028357600080fd5b50565b61028f8161024e565b811461029a57600080fd5b50565b610353806102ac6000396000f3fe60806040526004361061008a5760003560e01c806379100d6b1161005957806379100d6b1461014257806399c47ae61461016d5780639af1d35a14610198578063c2bd8119146101c3578063d16a5335146101ee57610091565b80632986c0e5146100965780632d84b5c0146100c15780633fa4f245146100ec57806352359b971461011757610091565b3661009157005b600080fd5b3480156100a257600080fd5b506100ab610219565b6040516100b891906102c6565b60405180910390f35b3480156100cd57600080fd5b506100d661021f565b6040516100e391906102c6565b60405180910390f35b3480156100f857600080fd5b50610101610225565b60405161010e91906102c6565b60405180910390f35b34801561012357600080fd5b5061012c61022b565b60405161013991906102c6565b60405180910390f35b34801561014e57600080fd5b50610157610231565b60405161016491906102c6565b60405180910390f35b34801561017957600080fd5b50610182610237565b60405161018f91906102c6565b60405180910390f35b3480156101a457600080fd5b506101ad61023d565b6040516101ba91906102c6565b60405180910390f35b3480156101cf57600080fd5b506101d8610243565b6040516101e591906102ab565b60405180910390f35b3480156101fa57600080fd5b50610203610269565b60405161021091906102ab565b60405180910390f35b60075481565b60015481565b60055481565b60045481565b60035481565b60025481565b60065481565b600860009054906101000a900473ffffffffffffffffffffffffffffffffffffffff1681565b60008054906101000a900473ffffffffffffffffffffffffffffffffffffffff1681565b610296816102e1565b82525050565b6102a581610313565b82525050565b60006020820190506102c0600083018461028d565b92915050565b60006020820190506102db600083018461029c565b92915050565b60006102ec826102f3565b9050919050565b600073ffffffffffffffffffffffffffffffffffffffff82169050919050565b600081905091905056fea2646970667358221220115a927663193f32f3dc3d14dc3d9623e38fd42bacffadf70bdeabb81d59153964736f6c63430008040033",
  "immutableReferences": {},
  "source": "// SPDX-License-Identifier: MIT\r\npragma solidity ^0.8.4;\r\n\r\nimport \"./RequestManager.sol\";\r\nimport \"./ChiralToken.sol\";\r\n\r\ncontract Request {\r\n    address public pickupAddress;\r\n    uint256 public pickup_lat;\r\n    uint256 public pickup_lng;\r\n    uint256 public destination_lat;\r\n    uint256 public destination_lng;\r\n    uint256 public value;\r\n    uint256 public fees;\r\n    uint256 public index;\r\n    address public deliveryAddress;\r\n\r\n    RequestManager parentContract;\r\n    ChiralToken tokenContract;\r\n\r\n    constructor(\r\n        RequestManager _parentContract,\r\n        ChiralToken _tokenContract,\r\n        uint256 _pickup_lat,\r\n        uint256 _pickup_lng,\r\n        uint256 _destination_lat,\r\n        uint256 _destination_lng,\r\n        uint256 _value,\r\n        uint256 _fees,\r\n        uint256 _index\r\n    ) {\r\n        parentContract = _parentContract;\r\n        tokenContract = _tokenContract;\r\n        pickup_lat = _pickup_lat;\r\n        pickup_lng = _pickup_lng;\r\n        destination_lat = _destination_lat;\r\n        destination_lng = _destination_lng;\r\n        value = _value;\r\n        fees = _fees;\r\n        index = _index;\r\n    }\r\n\r\n    receive() external payable {}\r\n}\r\n",
  "sourcePath": "C:\\Users\\pohsa\\Desktop\\Chiral\\contracts\\Request.sol",
  "compiler": {
    "name": "solc",
    "version": "0.8.4+commit.c7e474f2.Emscripten.clang"
  },
  "schemaVersion": "3.4.1",
  "updatedAt": "2021-06-16T06:45:33.694Z",
  "devdoc": {
    "kind": "dev",
    "methods": {},
    "version": 1
  },
  "userdoc": {
    "kind": "user",
    "methods": {},
    "version": 1
  }
}